{
	"Gamegrid.sol": {
		"GameGrid": {
			"abi": [
				{
					"anonymous": false,
					"inputs": [
						{
							"indexed": true,
							"internalType": "address",
							"name": "userAddress",
							"type": "address"
						},
						{
							"indexed": false,
							"internalType": "uint256",
							"name": "lvPoints",
							"type": "uint256"
						},
						{
							"indexed": false,
							"internalType": "uint256",
							"name": "ggPoints",
							"type": "uint256"
						}
					],
					"name": "PointsAdded",
					"type": "event"
				},
				{
					"anonymous": false,
					"inputs": [
						{
							"indexed": true,
							"internalType": "address",
							"name": "userAddress",
							"type": "address"
						},
						{
							"indexed": false,
							"internalType": "uint256",
							"name": "lvPoints",
							"type": "uint256"
						},
						{
							"indexed": false,
							"internalType": "uint256",
							"name": "ggPoints",
							"type": "uint256"
						}
					],
					"name": "PointsRemoved",
					"type": "event"
				},
				{
					"anonymous": false,
					"inputs": [
						{
							"indexed": true,
							"internalType": "address",
							"name": "userAddress",
							"type": "address"
						},
						{
							"indexed": false,
							"internalType": "string",
							"name": "userId",
							"type": "string"
						}
					],
					"name": "UserProfileCreated",
					"type": "event"
				},
				{
					"anonymous": false,
					"inputs": [
						{
							"indexed": true,
							"internalType": "address",
							"name": "userAddress",
							"type": "address"
						},
						{
							"indexed": false,
							"internalType": "string",
							"name": "userId",
							"type": "string"
						}
					],
					"name": "UserProfileUpdated",
					"type": "event"
				},
				{
					"inputs": [
						{
							"internalType": "uint256",
							"name": "_lvPoints",
							"type": "uint256"
						},
						{
							"internalType": "uint256",
							"name": "_ggPoints",
							"type": "uint256"
						}
					],
					"name": "addPoints",
					"outputs": [],
					"stateMutability": "nonpayable",
					"type": "function"
				},
				{
					"inputs": [
						{
							"internalType": "string",
							"name": "_username",
							"type": "string"
						},
						{
							"internalType": "string",
							"name": "_email",
							"type": "string"
						},
						{
							"internalType": "string",
							"name": "_class",
							"type": "string"
						},
						{
							"internalType": "string",
							"name": "_race",
							"type": "string"
						},
						{
							"internalType": "string",
							"name": "_gender",
							"type": "string"
						},
						{
							"internalType": "string",
							"name": "_background",
							"type": "string"
						},
						{
							"internalType": "string",
							"name": "_nftImage",
							"type": "string"
						}
					],
					"name": "createUserProfile",
					"outputs": [],
					"stateMutability": "nonpayable",
					"type": "function"
				},
				{
					"inputs": [],
					"name": "getUserProfile",
					"outputs": [
						{
							"components": [
								{
									"internalType": "string",
									"name": "userId",
									"type": "string"
								},
								{
									"internalType": "string",
									"name": "username",
									"type": "string"
								},
								{
									"internalType": "string",
									"name": "email",
									"type": "string"
								},
								{
									"internalType": "uint256",
									"name": "lastLoggedIn",
									"type": "uint256"
								},
								{
									"internalType": "uint256",
									"name": "joinedDate",
									"type": "uint256"
								},
								{
									"internalType": "uint256",
									"name": "lvPoints",
									"type": "uint256"
								},
								{
									"internalType": "uint256",
									"name": "ggPoints",
									"type": "uint256"
								},
								{
									"internalType": "string",
									"name": "class",
									"type": "string"
								},
								{
									"internalType": "string",
									"name": "race",
									"type": "string"
								},
								{
									"internalType": "string",
									"name": "gender",
									"type": "string"
								},
								{
									"internalType": "string",
									"name": "background",
									"type": "string"
								},
								{
									"internalType": "string",
									"name": "nftImage",
									"type": "string"
								},
								{
									"internalType": "address",
									"name": "walletAddress",
									"type": "address"
								}
							],
							"internalType": "struct GameGrid.UserProfile",
							"name": "",
							"type": "tuple"
						}
					],
					"stateMutability": "view",
					"type": "function"
				},
				{
					"inputs": [
						{
							"internalType": "uint256",
							"name": "_lvPoints",
							"type": "uint256"
						},
						{
							"internalType": "uint256",
							"name": "_ggPoints",
							"type": "uint256"
						}
					],
					"name": "removePoints",
					"outputs": [],
					"stateMutability": "nonpayable",
					"type": "function"
				},
				{
					"inputs": [
						{
							"internalType": "string",
							"name": "_username",
							"type": "string"
						},
						{
							"internalType": "string",
							"name": "_email",
							"type": "string"
						},
						{
							"internalType": "string",
							"name": "_class",
							"type": "string"
						},
						{
							"internalType": "string",
							"name": "_race",
							"type": "string"
						},
						{
							"internalType": "string",
							"name": "_gender",
							"type": "string"
						},
						{
							"internalType": "string",
							"name": "_background",
							"type": "string"
						},
						{
							"internalType": "string",
							"name": "_nftImage",
							"type": "string"
						}
					],
					"name": "updateUserProfile",
					"outputs": [],
					"stateMutability": "nonpayable",
					"type": "function"
				}
			],
			"devdoc": {
				"kind": "dev",
				"methods": {},
				"version": 1
			},
			"evm": {
				"assembly": "    /* \"Gamegrid.sol\":61:4639  contract GameGrid {... */\n  mstore(0x40, 0x80)\n  callvalue\n  dup1\n  iszero\n  tag_1\n  jumpi\n  revert(0x00, 0x00)\ntag_1:\n  pop\n  dataSize(sub_0)\n  dup1\n  dataOffset(sub_0)\n  0x00\n  codecopy\n  0x00\n  return\nstop\n\nsub_0: assembly {\n        /* \"Gamegrid.sol\":61:4639  contract GameGrid {... */\n      mstore(0x40, 0x80)\n      callvalue\n      dup1\n      iszero\n      tag_1\n      jumpi\n      revert(0x00, 0x00)\n    tag_1:\n      pop\n      jumpi(tag_2, lt(calldatasize, 0x04))\n      shr(0xe0, calldataload(0x00))\n      dup1\n      0x6f61c744\n      eq\n      tag_3\n      jumpi\n      dup1\n      0x70e997e2\n      eq\n      tag_4\n      jumpi\n      dup1\n      0xde095560\n      eq\n      tag_5\n      jumpi\n      dup1\n      0xe0794800\n      eq\n      tag_6\n      jumpi\n      dup1\n      0xfe4651a0\n      eq\n      tag_7\n      jumpi\n    tag_2:\n      revert(0x00, 0x00)\n        /* \"Gamegrid.sol\":3932:4064  function getUserProfile() public view onlyRegistered returns (UserProfile memory) {... */\n    tag_3:\n      tag_8\n      tag_9\n      jump\t// in\n    tag_8:\n      mload(0x40)\n      tag_10\n      swap2\n      swap1\n      tag_11\n      jump\t// in\n    tag_10:\n      mload(0x40)\n      dup1\n      swap2\n      sub\n      swap1\n      return\n        /* \"Gamegrid.sol\":1253:2371  function createUserProfile(... */\n    tag_4:\n      tag_12\n      0x04\n      dup1\n      calldatasize\n      sub\n      dup2\n      add\n      swap1\n      tag_13\n      swap2\n      swap1\n      tag_14\n      jump\t// in\n    tag_13:\n      tag_15\n      jump\t// in\n    tag_12:\n      stop\n        /* \"Gamegrid.sol\":2419:3068  function updateUserProfile(... */\n    tag_5:\n      tag_16\n      0x04\n      dup1\n      calldatasize\n      sub\n      dup2\n      add\n      swap1\n      tag_17\n      swap2\n      swap1\n      tag_14\n      jump\t// in\n    tag_17:\n      tag_18\n      jump\t// in\n    tag_16:\n      stop\n        /* \"Gamegrid.sol\":3437:3878  function removePoints(uint256 _lvPoints, uint256 _ggPoints) public onlyRegistered {... */\n    tag_6:\n      tag_19\n      0x04\n      dup1\n      calldatasize\n      sub\n      dup2\n      add\n      swap1\n      tag_20\n      swap2\n      swap1\n      tag_21\n      jump\t// in\n    tag_20:\n      tag_22\n      jump\t// in\n    tag_19:\n      stop\n        /* \"Gamegrid.sol\":3107:3395  function addPoints(uint256 _lvPoints, uint256 _ggPoints) public onlyRegistered {... */\n    tag_7:\n      tag_23\n      0x04\n      dup1\n      calldatasize\n      sub\n      dup2\n      add\n      swap1\n      tag_24\n      swap2\n      swap1\n      tag_21\n      jump\t// in\n    tag_24:\n      tag_25\n      jump\t// in\n    tag_23:\n      stop\n        /* \"Gamegrid.sol\":3932:4064  function getUserProfile() public view onlyRegistered returns (UserProfile memory) {... */\n    tag_9:\n        /* \"Gamegrid.sol\":3994:4012  UserProfile memory */\n      tag_26\n      tag_27\n      jump\t// in\n    tag_26:\n        /* \"Gamegrid.sol\":1134:1146  isRegistered */\n      0x01\n        /* \"Gamegrid.sol\":1134:1158  isRegistered[msg.sender] */\n      0x00\n        /* \"Gamegrid.sol\":1147:1157  msg.sender */\n      caller\n        /* \"Gamegrid.sol\":1134:1158  isRegistered[msg.sender] */\n      0xffffffffffffffffffffffffffffffffffffffff\n      and\n      0xffffffffffffffffffffffffffffffffffffffff\n      and\n      dup2\n      mstore\n      0x20\n      add\n      swap1\n      dup2\n      mstore\n      0x20\n      add\n      0x00\n      keccak256\n      0x00\n      swap1\n      sload\n      swap1\n      0x0100\n      exp\n      swap1\n      div\n      0xff\n      and\n        /* \"Gamegrid.sol\":1126:1183  require(isRegistered[msg.sender], \"User not registered.\") */\n      tag_29\n      jumpi\n      mload(0x40)\n      0x08c379a000000000000000000000000000000000000000000000000000000000\n      dup2\n      mstore\n      0x04\n      add\n      tag_30\n      swap1\n      tag_31\n      jump\t// in\n    tag_30:\n      mload(0x40)\n      dup1\n      swap2\n      sub\n      swap1\n      revert\n    tag_29:\n        /* \"Gamegrid.sol\":4032:4044  userProfiles */\n      0x00\n        /* \"Gamegrid.sol\":4032:4056  userProfiles[msg.sender] */\n      0x00\n        /* \"Gamegrid.sol\":4045:4055  msg.sender */\n      caller\n        /* \"Gamegrid.sol\":4032:4056  userProfiles[msg.sender] */\n      0xffffffffffffffffffffffffffffffffffffffff\n      and\n      0xffffffffffffffffffffffffffffffffffffffff\n      and\n      dup2\n      mstore\n      0x20\n      add\n      swap1\n      dup2\n      mstore\n      0x20\n      add\n      0x00\n      keccak256\n        /* \"Gamegrid.sol\":4025:4056  return userProfiles[msg.sender] */\n      mload(0x40)\n      dup1\n      0x01a0\n      add\n      0x40\n      mstore\n      swap1\n      dup2\n      0x00\n      dup3\n      add\n      dup1\n      sload\n      tag_33\n      swap1\n      tag_34\n      jump\t// in\n    tag_33:\n      dup1\n      0x1f\n      add\n      0x20\n      dup1\n      swap2\n      div\n      mul\n      0x20\n      add\n      mload(0x40)\n      swap1\n      dup2\n      add\n      0x40\n      mstore\n      dup1\n      swap3\n      swap2\n      swap1\n      dup2\n      dup2\n      mstore\n      0x20\n      add\n      dup3\n      dup1\n      sload\n      tag_35\n      swap1\n      tag_34\n      jump\t// in\n    tag_35:\n      dup1\n      iszero\n      tag_36\n      jumpi\n      dup1\n      0x1f\n      lt\n      tag_37\n      jumpi\n      0x0100\n      dup1\n      dup4\n      sload\n      div\n      mul\n      dup4\n      mstore\n      swap2\n      0x20\n      add\n      swap2\n      jump(tag_36)\n    tag_37:\n      dup3\n      add\n      swap2\n      swap1\n      0x00\n      mstore\n      keccak256(0x00, 0x20)\n      swap1\n    tag_38:\n      dup2\n      sload\n      dup2\n      mstore\n      swap1\n      0x01\n      add\n      swap1\n      0x20\n      add\n      dup1\n      dup4\n      gt\n      tag_38\n      jumpi\n      dup3\n      swap1\n      sub\n      0x1f\n      and\n      dup3\n      add\n      swap2\n    tag_36:\n      pop\n      pop\n      pop\n      pop\n      pop\n      dup2\n      mstore\n      0x20\n      add\n      0x01\n      dup3\n      add\n      dup1\n      sload\n      tag_39\n      swap1\n      tag_34\n      jump\t// in\n    tag_39:\n      dup1\n      0x1f\n      add\n      0x20\n      dup1\n      swap2\n      div\n      mul\n      0x20\n      add\n      mload(0x40)\n      swap1\n      dup2\n      add\n      0x40\n      mstore\n      dup1\n      swap3\n      swap2\n      swap1\n      dup2\n      dup2\n      mstore\n      0x20\n      add\n      dup3\n      dup1\n      sload\n      tag_40\n      swap1\n      tag_34\n      jump\t// in\n    tag_40:\n      dup1\n      iszero\n      tag_41\n      jumpi\n      dup1\n      0x1f\n      lt\n      tag_42\n      jumpi\n      0x0100\n      dup1\n      dup4\n      sload\n      div\n      mul\n      dup4\n      mstore\n      swap2\n      0x20\n      add\n      swap2\n      jump(tag_41)\n    tag_42:\n      dup3\n      add\n      swap2\n      swap1\n      0x00\n      mstore\n      keccak256(0x00, 0x20)\n      swap1\n    tag_43:\n      dup2\n      sload\n      dup2\n      mstore\n      swap1\n      0x01\n      add\n      swap1\n      0x20\n      add\n      dup1\n      dup4\n      gt\n      tag_43\n      jumpi\n      dup3\n      swap1\n      sub\n      0x1f\n      and\n      dup3\n      add\n      swap2\n    tag_41:\n      pop\n      pop\n      pop\n      pop\n      pop\n      dup2\n      mstore\n      0x20\n      add\n      0x02\n      dup3\n      add\n      dup1\n      sload\n      tag_44\n      swap1\n      tag_34\n      jump\t// in\n    tag_44:\n      dup1\n      0x1f\n      add\n      0x20\n      dup1\n      swap2\n      div\n      mul\n      0x20\n      add\n      mload(0x40)\n      swap1\n      dup2\n      add\n      0x40\n      mstore\n      dup1\n      swap3\n      swap2\n      swap1\n      dup2\n      dup2\n      mstore\n      0x20\n      add\n      dup3\n      dup1\n      sload\n      tag_45\n      swap1\n      tag_34\n      jump\t// in\n    tag_45:\n      dup1\n      iszero\n      tag_46\n      jumpi\n      dup1\n      0x1f\n      lt\n      tag_47\n      jumpi\n      0x0100\n      dup1\n      dup4\n      sload\n      div\n      mul\n      dup4\n      mstore\n      swap2\n      0x20\n      add\n      swap2\n      jump(tag_46)\n    tag_47:\n      dup3\n      add\n      swap2\n      swap1\n      0x00\n      mstore\n      keccak256(0x00, 0x20)\n      swap1\n    tag_48:\n      dup2\n      sload\n      dup2\n      mstore\n      swap1\n      0x01\n      add\n      swap1\n      0x20\n      add\n      dup1\n      dup4\n      gt\n      tag_48\n      jumpi\n      dup3\n      swap1\n      sub\n      0x1f\n      and\n      dup3\n      add\n      swap2\n    tag_46:\n      pop\n      pop\n      pop\n      pop\n      pop\n      dup2\n      mstore\n      0x20\n      add\n      0x03\n      dup3\n      add\n      sload\n      dup2\n      mstore\n      0x20\n      add\n      0x04\n      dup3\n      add\n      sload\n      dup2\n      mstore\n      0x20\n      add\n      0x05\n      dup3\n      add\n      sload\n      dup2\n      mstore\n      0x20\n      add\n      0x06\n      dup3\n      add\n      sload\n      dup2\n      mstore\n      0x20\n      add\n      0x07\n      dup3\n      add\n      dup1\n      sload\n      tag_49\n      swap1\n      tag_34\n      jump\t// in\n    tag_49:\n      dup1\n      0x1f\n      add\n      0x20\n      dup1\n      swap2\n      div\n      mul\n      0x20\n      add\n      mload(0x40)\n      swap1\n      dup2\n      add\n      0x40\n      mstore\n      dup1\n      swap3\n      swap2\n      swap1\n      dup2\n      dup2\n      mstore\n      0x20\n      add\n      dup3\n      dup1\n      sload\n      tag_50\n      swap1\n      tag_34\n      jump\t// in\n    tag_50:\n      dup1\n      iszero\n      tag_51\n      jumpi\n      dup1\n      0x1f\n      lt\n      tag_52\n      jumpi\n      0x0100\n      dup1\n      dup4\n      sload\n      div\n      mul\n      dup4\n      mstore\n      swap2\n      0x20\n      add\n      swap2\n      jump(tag_51)\n    tag_52:\n      dup3\n      add\n      swap2\n      swap1\n      0x00\n      mstore\n      keccak256(0x00, 0x20)\n      swap1\n    tag_53:\n      dup2\n      sload\n      dup2\n      mstore\n      swap1\n      0x01\n      add\n      swap1\n      0x20\n      add\n      dup1\n      dup4\n      gt\n      tag_53\n      jumpi\n      dup3\n      swap1\n      sub\n      0x1f\n      and\n      dup3\n      add\n      swap2\n    tag_51:\n      pop\n      pop\n      pop\n      pop\n      pop\n      dup2\n      mstore\n      0x20\n      add\n      0x08\n      dup3\n      add\n      dup1\n      sload\n      tag_54\n      swap1\n      tag_34\n      jump\t// in\n    tag_54:\n      dup1\n      0x1f\n      add\n      0x20\n      dup1\n      swap2\n      div\n      mul\n      0x20\n      add\n      mload(0x40)\n      swap1\n      dup2\n      add\n      0x40\n      mstore\n      dup1\n      swap3\n      swap2\n      swap1\n      dup2\n      dup2\n      mstore\n      0x20\n      add\n      dup3\n      dup1\n      sload\n      tag_55\n      swap1\n      tag_34\n      jump\t// in\n    tag_55:\n      dup1\n      iszero\n      tag_56\n      jumpi\n      dup1\n      0x1f\n      lt\n      tag_57\n      jumpi\n      0x0100\n      dup1\n      dup4\n      sload\n      div\n      mul\n      dup4\n      mstore\n      swap2\n      0x20\n      add\n      swap2\n      jump(tag_56)\n    tag_57:\n      dup3\n      add\n      swap2\n      swap1\n      0x00\n      mstore\n      keccak256(0x00, 0x20)\n      swap1\n    tag_58:\n      dup2\n      sload\n      dup2\n      mstore\n      swap1\n      0x01\n      add\n      swap1\n      0x20\n      add\n      dup1\n      dup4\n      gt\n      tag_58\n      jumpi\n      dup3\n      swap1\n      sub\n      0x1f\n      and\n      dup3\n      add\n      swap2\n    tag_56:\n      pop\n      pop\n      pop\n      pop\n      pop\n      dup2\n      mstore\n      0x20\n      add\n      0x09\n      dup3\n      add\n      dup1\n      sload\n      tag_59\n      swap1\n      tag_34\n      jump\t// in\n    tag_59:\n      dup1\n      0x1f\n      add\n      0x20\n      dup1\n      swap2\n      div\n      mul\n      0x20\n      add\n      mload(0x40)\n      swap1\n      dup2\n      add\n      0x40\n      mstore\n      dup1\n      swap3\n      swap2\n      swap1\n      dup2\n      dup2\n      mstore\n      0x20\n      add\n      dup3\n      dup1\n      sload\n      tag_60\n      swap1\n      tag_34\n      jump\t// in\n    tag_60:\n      dup1\n      iszero\n      tag_61\n      jumpi\n      dup1\n      0x1f\n      lt\n      tag_62\n      jumpi\n      0x0100\n      dup1\n      dup4\n      sload\n      div\n      mul\n      dup4\n      mstore\n      swap2\n      0x20\n      add\n      swap2\n      jump(tag_61)\n    tag_62:\n      dup3\n      add\n      swap2\n      swap1\n      0x00\n      mstore\n      keccak256(0x00, 0x20)\n      swap1\n    tag_63:\n      dup2\n      sload\n      dup2\n      mstore\n      swap1\n      0x01\n      add\n      swap1\n      0x20\n      add\n      dup1\n      dup4\n      gt\n      tag_63\n      jumpi\n      dup3\n      swap1\n      sub\n      0x1f\n      and\n      dup3\n      add\n      swap2\n    tag_61:\n      pop\n      pop\n      pop\n      pop\n      pop\n      dup2\n      mstore\n      0x20\n      add\n      0x0a\n      dup3\n      add\n      dup1\n      sload\n      tag_64\n      swap1\n      tag_34\n      jump\t// in\n    tag_64:\n      dup1\n      0x1f\n      add\n      0x20\n      dup1\n      swap2\n      div\n      mul\n      0x20\n      add\n      mload(0x40)\n      swap1\n      dup2\n      add\n      0x40\n      mstore\n      dup1\n      swap3\n      swap2\n      swap1\n      dup2\n      dup2\n      mstore\n      0x20\n      add\n      dup3\n      dup1\n      sload\n      tag_65\n      swap1\n      tag_34\n      jump\t// in\n    tag_65:\n      dup1\n      iszero\n      tag_66\n      jumpi\n      dup1\n      0x1f\n      lt\n      tag_67\n      jumpi\n      0x0100\n      dup1\n      dup4\n      sload\n      div\n      mul\n      dup4\n      mstore\n      swap2\n      0x20\n      add\n      swap2\n      jump(tag_66)\n    tag_67:\n      dup3\n      add\n      swap2\n      swap1\n      0x00\n      mstore\n      keccak256(0x00, 0x20)\n      swap1\n    tag_68:\n      dup2\n      sload\n      dup2\n      mstore\n      swap1\n      0x01\n      add\n      swap1\n      0x20\n      add\n      dup1\n      dup4\n      gt\n      tag_68\n      jumpi\n      dup3\n      swap1\n      sub\n      0x1f\n      and\n      dup3\n      add\n      swap2\n    tag_66:\n      pop\n      pop\n      pop\n      pop\n      pop\n      dup2\n      mstore\n      0x20\n      add\n      0x0b\n      dup3\n      add\n      dup1\n      sload\n      tag_69\n      swap1\n      tag_34\n      jump\t// in\n    tag_69:\n      dup1\n      0x1f\n      add\n      0x20\n      dup1\n      swap2\n      div\n      mul\n      0x20\n      add\n      mload(0x40)\n      swap1\n      dup2\n      add\n      0x40\n      mstore\n      dup1\n      swap3\n      swap2\n      swap1\n      dup2\n      dup2\n      mstore\n      0x20\n      add\n      dup3\n      dup1\n      sload\n      tag_70\n      swap1\n      tag_34\n      jump\t// in\n    tag_70:\n      dup1\n      iszero\n      tag_71\n      jumpi\n      dup1\n      0x1f\n      lt\n      tag_72\n      jumpi\n      0x0100\n      dup1\n      dup4\n      sload\n      div\n      mul\n      dup4\n      mstore\n      swap2\n      0x20\n      add\n      swap2\n      jump(tag_71)\n    tag_72:\n      dup3\n      add\n      swap2\n      swap1\n      0x00\n      mstore\n      keccak256(0x00, 0x20)\n      swap1\n    tag_73:\n      dup2\n      sload\n      dup2\n      mstore\n      swap1\n      0x01\n      add\n      swap1\n      0x20\n      add\n      dup1\n      dup4\n      gt\n      tag_73\n      jumpi\n      dup3\n      swap1\n      sub\n      0x1f\n      and\n      dup3\n      add\n      swap2\n    tag_71:\n      pop\n      pop\n      pop\n      pop\n      pop\n      dup2\n      mstore\n      0x20\n      add\n      0x0c\n      dup3\n      add\n      0x00\n      swap1\n      sload\n      swap1\n      0x0100\n      exp\n      swap1\n      div\n      0xffffffffffffffffffffffffffffffffffffffff\n      and\n      0xffffffffffffffffffffffffffffffffffffffff\n      and\n      0xffffffffffffffffffffffffffffffffffffffff\n      and\n      dup2\n      mstore\n      pop\n      pop\n      swap1\n      pop\n        /* \"Gamegrid.sol\":3932:4064  function getUserProfile() public view onlyRegistered returns (UserProfile memory) {... */\n      swap1\n      jump\t// out\n        /* \"Gamegrid.sol\":1253:2371  function createUserProfile(... */\n    tag_15:\n        /* \"Gamegrid.sol\":1542:1554  isRegistered */\n      0x01\n        /* \"Gamegrid.sol\":1542:1566  isRegistered[msg.sender] */\n      0x00\n        /* \"Gamegrid.sol\":1555:1565  msg.sender */\n      caller\n        /* \"Gamegrid.sol\":1542:1566  isRegistered[msg.sender] */\n      0xffffffffffffffffffffffffffffffffffffffff\n      and\n      0xffffffffffffffffffffffffffffffffffffffff\n      and\n      dup2\n      mstore\n      0x20\n      add\n      swap1\n      dup2\n      mstore\n      0x20\n      add\n      0x00\n      keccak256\n      0x00\n      swap1\n      sload\n      swap1\n      0x0100\n      exp\n      swap1\n      div\n      0xff\n      and\n        /* \"Gamegrid.sol\":1541:1566  !isRegistered[msg.sender] */\n      iszero\n        /* \"Gamegrid.sol\":1533:1595  require(!isRegistered[msg.sender], \"User already registered.\") */\n      tag_75\n      jumpi\n      mload(0x40)\n      0x08c379a000000000000000000000000000000000000000000000000000000000\n      dup2\n      mstore\n      0x04\n      add\n      tag_76\n      swap1\n      tag_77\n      jump\t// in\n    tag_76:\n      mload(0x40)\n      dup1\n      swap2\n      sub\n      swap1\n      revert\n    tag_75:\n        /* \"Gamegrid.sol\":1686:1706  string memory userId */\n      0x00\n        /* \"Gamegrid.sol\":1733:1742  _username */\n      dup8\n        /* \"Gamegrid.sol\":1749:1774  uint2str(block.timestamp) */\n      tag_78\n        /* \"Gamegrid.sol\":1758:1773  block.timestamp */\n      timestamp\n        /* \"Gamegrid.sol\":1749:1757  uint2str */\n      tag_79\n        /* \"Gamegrid.sol\":1749:1774  uint2str(block.timestamp) */\n      jump\t// in\n    tag_78:\n        /* \"Gamegrid.sol\":1716:1775  abi.encodePacked(_username, \"_\", uint2str(block.timestamp)) */\n      add(0x20, mload(0x40))\n      tag_80\n      swap3\n      swap2\n      swap1\n      tag_81\n      jump\t// in\n    tag_80:\n      mload(0x40)\n      0x20\n      dup2\n      dup4\n      sub\n      sub\n      dup2\n      mstore\n      swap1\n      0x40\n      mstore\n        /* \"Gamegrid.sol\":1686:1776  string memory userId = string(abi.encodePacked(_username, \"_\", uint2str(block.timestamp))) */\n      swap1\n      pop\n        /* \"Gamegrid.sol\":1816:2265  UserProfile({... */\n      mload(0x40)\n      dup1\n      0x01a0\n      add\n      0x40\n      mstore\n      dup1\n        /* \"Gamegrid.sol\":1851:1857  userId */\n      dup3\n        /* \"Gamegrid.sol\":1816:2265  UserProfile({... */\n      dup2\n      mstore\n      0x20\n      add\n        /* \"Gamegrid.sol\":1882:1891  _username */\n      dup10\n        /* \"Gamegrid.sol\":1816:2265  UserProfile({... */\n      dup2\n      mstore\n      0x20\n      add\n        /* \"Gamegrid.sol\":1913:1919  _email */\n      dup9\n        /* \"Gamegrid.sol\":1816:2265  UserProfile({... */\n      dup2\n      mstore\n      0x20\n      add\n        /* \"Gamegrid.sol\":1948:1963  block.timestamp */\n      timestamp\n        /* \"Gamegrid.sol\":1816:2265  UserProfile({... */\n      dup2\n      mstore\n      0x20\n      add\n        /* \"Gamegrid.sol\":1990:2005  block.timestamp */\n      timestamp\n        /* \"Gamegrid.sol\":1816:2265  UserProfile({... */\n      dup2\n      mstore\n      0x20\n      add\n        /* \"Gamegrid.sol\":2030:2031  0 */\n      0x00\n        /* \"Gamegrid.sol\":1816:2265  UserProfile({... */\n      dup2\n      mstore\n      0x20\n      add\n        /* \"Gamegrid.sol\":2056:2057  0 */\n      0x00\n        /* \"Gamegrid.sol\":1816:2265  UserProfile({... */\n      dup2\n      mstore\n      0x20\n      add\n        /* \"Gamegrid.sol\":2079:2085  _class */\n      dup8\n        /* \"Gamegrid.sol\":1816:2265  UserProfile({... */\n      dup2\n      mstore\n      0x20\n      add\n        /* \"Gamegrid.sol\":2106:2111  _race */\n      dup7\n        /* \"Gamegrid.sol\":1816:2265  UserProfile({... */\n      dup2\n      mstore\n      0x20\n      add\n        /* \"Gamegrid.sol\":2134:2141  _gender */\n      dup6\n        /* \"Gamegrid.sol\":1816:2265  UserProfile({... */\n      dup2\n      mstore\n      0x20\n      add\n        /* \"Gamegrid.sol\":2168:2179  _background */\n      dup5\n        /* \"Gamegrid.sol\":1816:2265  UserProfile({... */\n      dup2\n      mstore\n      0x20\n      add\n        /* \"Gamegrid.sol\":2204:2213  _nftImage */\n      dup4\n        /* \"Gamegrid.sol\":1816:2265  UserProfile({... */\n      dup2\n      mstore\n      0x20\n      add\n        /* \"Gamegrid.sol\":2243:2253  msg.sender */\n      caller\n        /* \"Gamegrid.sol\":1816:2265  UserProfile({... */\n      0xffffffffffffffffffffffffffffffffffffffff\n      and\n      dup2\n      mstore\n      pop\n        /* \"Gamegrid.sol\":1789:1801  userProfiles */\n      0x00\n        /* \"Gamegrid.sol\":1789:1813  userProfiles[msg.sender] */\n      0x00\n        /* \"Gamegrid.sol\":1802:1812  msg.sender */\n      caller\n        /* \"Gamegrid.sol\":1789:1813  userProfiles[msg.sender] */\n      0xffffffffffffffffffffffffffffffffffffffff\n      and\n      0xffffffffffffffffffffffffffffffffffffffff\n      and\n      dup2\n      mstore\n      0x20\n      add\n      swap1\n      dup2\n      mstore\n      0x20\n      add\n      0x00\n      keccak256\n        /* \"Gamegrid.sol\":1789:2265  userProfiles[msg.sender] = UserProfile({... */\n      0x00\n      dup3\n      add\n      mload\n      dup2\n      0x00\n      add\n      swap1\n      dup2\n      tag_82\n      swap2\n      swap1\n      tag_83\n      jump\t// in\n    tag_82:\n      pop\n      0x20\n      dup3\n      add\n      mload\n      dup2\n      0x01\n      add\n      swap1\n      dup2\n      tag_84\n      swap2\n      swap1\n      tag_83\n      jump\t// in\n    tag_84:\n      pop\n      0x40\n      dup3\n      add\n      mload\n      dup2\n      0x02\n      add\n      swap1\n      dup2\n      tag_85\n      swap2\n      swap1\n      tag_83\n      jump\t// in\n    tag_85:\n      pop\n      0x60\n      dup3\n      add\n      mload\n      dup2\n      0x03\n      add\n      sstore\n      0x80\n      dup3\n      add\n      mload\n      dup2\n      0x04\n      add\n      sstore\n      0xa0\n      dup3\n      add\n      mload\n      dup2\n      0x05\n      add\n      sstore\n      0xc0\n      dup3\n      add\n      mload\n      dup2\n      0x06\n      add\n      sstore\n      0xe0\n      dup3\n      add\n      mload\n      dup2\n      0x07\n      add\n      swap1\n      dup2\n      tag_86\n      swap2\n      swap1\n      tag_83\n      jump\t// in\n    tag_86:\n      pop\n      0x0100\n      dup3\n      add\n      mload\n      dup2\n      0x08\n      add\n      swap1\n      dup2\n      tag_87\n      swap2\n      swap1\n      tag_83\n      jump\t// in\n    tag_87:\n      pop\n      0x0120\n      dup3\n      add\n      mload\n      dup2\n      0x09\n      add\n      swap1\n      dup2\n      tag_88\n      swap2\n      swap1\n      tag_83\n      jump\t// in\n    tag_88:\n      pop\n      0x0140\n      dup3\n      add\n      mload\n      dup2\n      0x0a\n      add\n      swap1\n      dup2\n      tag_89\n      swap2\n      swap1\n      tag_83\n      jump\t// in\n    tag_89:\n      pop\n      0x0160\n      dup3\n      add\n      mload\n      dup2\n      0x0b\n      add\n      swap1\n      dup2\n      tag_90\n      swap2\n      swap1\n      tag_83\n      jump\t// in\n    tag_90:\n      pop\n      0x0180\n      dup3\n      add\n      mload\n      dup2\n      0x0c\n      add\n      exp(0x0100, 0x00)\n      dup2\n      sload\n      dup2\n      0xffffffffffffffffffffffffffffffffffffffff\n      mul\n      not\n      and\n      swap1\n      dup4\n      0xffffffffffffffffffffffffffffffffffffffff\n      and\n      mul\n      or\n      swap1\n      sstore\n      pop\n      swap1\n      pop\n      pop\n        /* \"Gamegrid.sol\":2305:2309  true */\n      0x01\n        /* \"Gamegrid.sol\":2278:2290  isRegistered */\n      dup1\n        /* \"Gamegrid.sol\":2278:2302  isRegistered[msg.sender] */\n      0x00\n        /* \"Gamegrid.sol\":2291:2301  msg.sender */\n      caller\n        /* \"Gamegrid.sol\":2278:2302  isRegistered[msg.sender] */\n      0xffffffffffffffffffffffffffffffffffffffff\n      and\n      0xffffffffffffffffffffffffffffffffffffffff\n      and\n      dup2\n      mstore\n      0x20\n      add\n      swap1\n      dup2\n      mstore\n      0x20\n      add\n      0x00\n      keccak256\n      0x00\n        /* \"Gamegrid.sol\":2278:2309  isRegistered[msg.sender] = true */\n      0x0100\n      exp\n      dup2\n      sload\n      dup2\n      0xff\n      mul\n      not\n      and\n      swap1\n      dup4\n      iszero\n      iszero\n      mul\n      or\n      swap1\n      sstore\n      pop\n        /* \"Gamegrid.sol\":2344:2354  msg.sender */\n      caller\n        /* \"Gamegrid.sol\":2325:2363  UserProfileCreated(msg.sender, userId) */\n      0xffffffffffffffffffffffffffffffffffffffff\n      and\n      0x1538f861908189043f30d0d55e8666c6a013900115b741f6d75a7a1a85293fdb\n        /* \"Gamegrid.sol\":2356:2362  userId */\n      dup3\n        /* \"Gamegrid.sol\":2325:2363  UserProfileCreated(msg.sender, userId) */\n      mload(0x40)\n      tag_91\n      swap2\n      swap1\n      tag_92\n      jump\t// in\n    tag_91:\n      mload(0x40)\n      dup1\n      swap2\n      sub\n      swap1\n      log2\n        /* \"Gamegrid.sol\":1522:2371  {... */\n      pop\n        /* \"Gamegrid.sol\":1253:2371  function createUserProfile(... */\n      pop\n      pop\n      pop\n      pop\n      pop\n      pop\n      pop\n      jump\t// out\n        /* \"Gamegrid.sol\":2419:3068  function updateUserProfile(... */\n    tag_18:\n        /* \"Gamegrid.sol\":1134:1146  isRegistered */\n      0x01\n        /* \"Gamegrid.sol\":1134:1158  isRegistered[msg.sender] */\n      0x00\n        /* \"Gamegrid.sol\":1147:1157  msg.sender */\n      caller\n        /* \"Gamegrid.sol\":1134:1158  isRegistered[msg.sender] */\n      0xffffffffffffffffffffffffffffffffffffffff\n      and\n      0xffffffffffffffffffffffffffffffffffffffff\n      and\n      dup2\n      mstore\n      0x20\n      add\n      swap1\n      dup2\n      mstore\n      0x20\n      add\n      0x00\n      keccak256\n      0x00\n      swap1\n      sload\n      swap1\n      0x0100\n      exp\n      swap1\n      div\n      0xff\n      and\n        /* \"Gamegrid.sol\":1126:1183  require(isRegistered[msg.sender], \"User not registered.\") */\n      tag_94\n      jumpi\n      mload(0x40)\n      0x08c379a000000000000000000000000000000000000000000000000000000000\n      dup2\n      mstore\n      0x04\n      add\n      tag_95\n      swap1\n      tag_31\n      jump\t// in\n    tag_95:\n      mload(0x40)\n      dup1\n      swap2\n      sub\n      swap1\n      revert\n    tag_94:\n        /* \"Gamegrid.sol\":2714:2738  UserProfile storage user */\n      0x00\n        /* \"Gamegrid.sol\":2741:2753  userProfiles */\n      0x00\n        /* \"Gamegrid.sol\":2741:2765  userProfiles[msg.sender] */\n      0x00\n        /* \"Gamegrid.sol\":2754:2764  msg.sender */\n      caller\n        /* \"Gamegrid.sol\":2741:2765  userProfiles[msg.sender] */\n      0xffffffffffffffffffffffffffffffffffffffff\n      and\n      0xffffffffffffffffffffffffffffffffffffffff\n      and\n      dup2\n      mstore\n      0x20\n      add\n      swap1\n      dup2\n      mstore\n      0x20\n      add\n      0x00\n      keccak256\n        /* \"Gamegrid.sol\":2714:2765  UserProfile storage user = userProfiles[msg.sender] */\n      swap1\n      pop\n        /* \"Gamegrid.sol\":2794:2803  _username */\n      dup8\n        /* \"Gamegrid.sol\":2778:2782  user */\n      dup2\n        /* \"Gamegrid.sol\":2778:2791  user.username */\n      0x01\n      add\n        /* \"Gamegrid.sol\":2778:2803  user.username = _username */\n      swap1\n      dup2\n      tag_97\n      swap2\n      swap1\n      tag_83\n      jump\t// in\n    tag_97:\n      pop\n        /* \"Gamegrid.sol\":2827:2833  _email */\n      dup7\n        /* \"Gamegrid.sol\":2814:2818  user */\n      dup2\n        /* \"Gamegrid.sol\":2814:2824  user.email */\n      0x02\n      add\n        /* \"Gamegrid.sol\":2814:2833  user.email = _email */\n      swap1\n      dup2\n      tag_98\n      swap2\n      swap1\n      tag_83\n      jump\t// in\n    tag_98:\n      pop\n        /* \"Gamegrid.sol\":2857:2863  _class */\n      dup6\n        /* \"Gamegrid.sol\":2844:2848  user */\n      dup2\n        /* \"Gamegrid.sol\":2844:2854  user.class */\n      0x07\n      add\n        /* \"Gamegrid.sol\":2844:2863  user.class = _class */\n      swap1\n      dup2\n      tag_99\n      swap2\n      swap1\n      tag_83\n      jump\t// in\n    tag_99:\n      pop\n        /* \"Gamegrid.sol\":2886:2891  _race */\n      dup5\n        /* \"Gamegrid.sol\":2874:2878  user */\n      dup2\n        /* \"Gamegrid.sol\":2874:2883  user.race */\n      0x08\n      add\n        /* \"Gamegrid.sol\":2874:2891  user.race = _race */\n      swap1\n      dup2\n      tag_100\n      swap2\n      swap1\n      tag_83\n      jump\t// in\n    tag_100:\n      pop\n        /* \"Gamegrid.sol\":2916:2923  _gender */\n      dup4\n        /* \"Gamegrid.sol\":2902:2906  user */\n      dup2\n        /* \"Gamegrid.sol\":2902:2913  user.gender */\n      0x09\n      add\n        /* \"Gamegrid.sol\":2902:2923  user.gender = _gender */\n      swap1\n      dup2\n      tag_101\n      swap2\n      swap1\n      tag_83\n      jump\t// in\n    tag_101:\n      pop\n        /* \"Gamegrid.sol\":2952:2963  _background */\n      dup3\n        /* \"Gamegrid.sol\":2934:2938  user */\n      dup2\n        /* \"Gamegrid.sol\":2934:2949  user.background */\n      0x0a\n      add\n        /* \"Gamegrid.sol\":2934:2963  user.background = _background */\n      swap1\n      dup2\n      tag_102\n      swap2\n      swap1\n      tag_83\n      jump\t// in\n    tag_102:\n      pop\n        /* \"Gamegrid.sol\":2990:2999  _nftImage */\n      dup2\n        /* \"Gamegrid.sol\":2974:2978  user */\n      dup2\n        /* \"Gamegrid.sol\":2974:2987  user.nftImage */\n      0x0b\n      add\n        /* \"Gamegrid.sol\":2974:2999  user.nftImage = _nftImage */\n      swap1\n      dup2\n      tag_103\n      swap2\n      swap1\n      tag_83\n      jump\t// in\n    tag_103:\n      pop\n        /* \"Gamegrid.sol\":3036:3046  msg.sender */\n      caller\n        /* \"Gamegrid.sol\":3017:3060  UserProfileUpdated(msg.sender, user.userId) */\n      0xffffffffffffffffffffffffffffffffffffffff\n      and\n      0x9ab5b01c08788936fb2b48da858665afe9fa06d32e17dc49e0510c24ba05c983\n        /* \"Gamegrid.sol\":3048:3052  user */\n      dup3\n        /* \"Gamegrid.sol\":3048:3059  user.userId */\n      0x00\n      add\n        /* \"Gamegrid.sol\":3017:3060  UserProfileUpdated(msg.sender, user.userId) */\n      mload(0x40)\n      tag_104\n      swap2\n      swap1\n      tag_105\n      jump\t// in\n    tag_104:\n      mload(0x40)\n      dup1\n      swap2\n      sub\n      swap1\n      log2\n        /* \"Gamegrid.sol\":2703:3068  {... */\n      pop\n        /* \"Gamegrid.sol\":2419:3068  function updateUserProfile(... */\n      pop\n      pop\n      pop\n      pop\n      pop\n      pop\n      pop\n      jump\t// out\n        /* \"Gamegrid.sol\":3437:3878  function removePoints(uint256 _lvPoints, uint256 _ggPoints) public onlyRegistered {... */\n    tag_22:\n        /* \"Gamegrid.sol\":1134:1146  isRegistered */\n      0x01\n        /* \"Gamegrid.sol\":1134:1158  isRegistered[msg.sender] */\n      0x00\n        /* \"Gamegrid.sol\":1147:1157  msg.sender */\n      caller\n        /* \"Gamegrid.sol\":1134:1158  isRegistered[msg.sender] */\n      0xffffffffffffffffffffffffffffffffffffffff\n      and\n      0xffffffffffffffffffffffffffffffffffffffff\n      and\n      dup2\n      mstore\n      0x20\n      add\n      swap1\n      dup2\n      mstore\n      0x20\n      add\n      0x00\n      keccak256\n      0x00\n      swap1\n      sload\n      swap1\n      0x0100\n      exp\n      swap1\n      div\n      0xff\n      and\n        /* \"Gamegrid.sol\":1126:1183  require(isRegistered[msg.sender], \"User not registered.\") */\n      tag_107\n      jumpi\n      mload(0x40)\n      0x08c379a000000000000000000000000000000000000000000000000000000000\n      dup2\n      mstore\n      0x04\n      add\n      tag_108\n      swap1\n      tag_31\n      jump\t// in\n    tag_108:\n      mload(0x40)\n      dup1\n      swap2\n      sub\n      swap1\n      revert\n    tag_107:\n        /* \"Gamegrid.sol\":3530:3554  UserProfile storage user */\n      0x00\n        /* \"Gamegrid.sol\":3557:3569  userProfiles */\n      0x00\n        /* \"Gamegrid.sol\":3557:3581  userProfiles[msg.sender] */\n      0x00\n        /* \"Gamegrid.sol\":3570:3580  msg.sender */\n      caller\n        /* \"Gamegrid.sol\":3557:3581  userProfiles[msg.sender] */\n      0xffffffffffffffffffffffffffffffffffffffff\n      and\n      0xffffffffffffffffffffffffffffffffffffffff\n      and\n      dup2\n      mstore\n      0x20\n      add\n      swap1\n      dup2\n      mstore\n      0x20\n      add\n      0x00\n      keccak256\n        /* \"Gamegrid.sol\":3530:3581  UserProfile storage user = userProfiles[msg.sender] */\n      swap1\n      pop\n        /* \"Gamegrid.sol\":3619:3628  _lvPoints */\n      dup3\n        /* \"Gamegrid.sol\":3602:3606  user */\n      dup2\n        /* \"Gamegrid.sol\":3602:3615  user.lvPoints */\n      0x05\n      add\n      sload\n        /* \"Gamegrid.sol\":3602:3628  user.lvPoints >= _lvPoints */\n      lt\n      iszero\n        /* \"Gamegrid.sol\":3594:3656  require(user.lvPoints >= _lvPoints, \"Insufficient LV points.\") */\n      tag_110\n      jumpi\n      mload(0x40)\n      0x08c379a000000000000000000000000000000000000000000000000000000000\n      dup2\n      mstore\n      0x04\n      add\n      tag_111\n      swap1\n      tag_112\n      jump\t// in\n    tag_111:\n      mload(0x40)\n      dup1\n      swap2\n      sub\n      swap1\n      revert\n    tag_110:\n        /* \"Gamegrid.sol\":3692:3701  _ggPoints */\n      dup2\n        /* \"Gamegrid.sol\":3675:3679  user */\n      dup2\n        /* \"Gamegrid.sol\":3675:3688  user.ggPoints */\n      0x06\n      add\n      sload\n        /* \"Gamegrid.sol\":3675:3701  user.ggPoints >= _ggPoints */\n      lt\n      iszero\n        /* \"Gamegrid.sol\":3667:3729  require(user.ggPoints >= _ggPoints, \"Insufficient GG points.\") */\n      tag_113\n      jumpi\n      mload(0x40)\n      0x08c379a000000000000000000000000000000000000000000000000000000000\n      dup2\n      mstore\n      0x04\n      add\n      tag_114\n      swap1\n      tag_115\n      jump\t// in\n    tag_114:\n      mload(0x40)\n      dup1\n      swap2\n      sub\n      swap1\n      revert\n    tag_113:\n        /* \"Gamegrid.sol\":3759:3768  _lvPoints */\n      dup3\n        /* \"Gamegrid.sol\":3742:3746  user */\n      dup2\n        /* \"Gamegrid.sol\":3742:3755  user.lvPoints */\n      0x05\n      add\n      0x00\n        /* \"Gamegrid.sol\":3742:3768  user.lvPoints -= _lvPoints */\n      dup3\n      dup3\n      sload\n      tag_116\n      swap2\n      swap1\n      tag_117\n      jump\t// in\n    tag_116:\n      swap3\n      pop\n      pop\n      dup2\n      swap1\n      sstore\n      pop\n        /* \"Gamegrid.sol\":3796:3805  _ggPoints */\n      dup2\n        /* \"Gamegrid.sol\":3779:3783  user */\n      dup2\n        /* \"Gamegrid.sol\":3779:3792  user.ggPoints */\n      0x06\n      add\n      0x00\n        /* \"Gamegrid.sol\":3779:3805  user.ggPoints -= _ggPoints */\n      dup3\n      dup3\n      sload\n      tag_118\n      swap2\n      swap1\n      tag_117\n      jump\t// in\n    tag_118:\n      swap3\n      pop\n      pop\n      dup2\n      swap1\n      sstore\n      pop\n        /* \"Gamegrid.sol\":3837:3847  msg.sender */\n      caller\n        /* \"Gamegrid.sol\":3823:3870  PointsRemoved(msg.sender, _lvPoints, _ggPoints) */\n      0xffffffffffffffffffffffffffffffffffffffff\n      and\n      0x2b58a342147e52cafbfa184a8d6a3583ffe7664f958cdf1c00af5cf9c02ccb46\n        /* \"Gamegrid.sol\":3849:3858  _lvPoints */\n      dup5\n        /* \"Gamegrid.sol\":3860:3869  _ggPoints */\n      dup5\n        /* \"Gamegrid.sol\":3823:3870  PointsRemoved(msg.sender, _lvPoints, _ggPoints) */\n      mload(0x40)\n      tag_119\n      swap3\n      swap2\n      swap1\n      tag_120\n      jump\t// in\n    tag_119:\n      mload(0x40)\n      dup1\n      swap2\n      sub\n      swap1\n      log2\n        /* \"Gamegrid.sol\":3519:3878  {... */\n      pop\n        /* \"Gamegrid.sol\":3437:3878  function removePoints(uint256 _lvPoints, uint256 _ggPoints) public onlyRegistered {... */\n      pop\n      pop\n      jump\t// out\n        /* \"Gamegrid.sol\":3107:3395  function addPoints(uint256 _lvPoints, uint256 _ggPoints) public onlyRegistered {... */\n    tag_25:\n        /* \"Gamegrid.sol\":1134:1146  isRegistered */\n      0x01\n        /* \"Gamegrid.sol\":1134:1158  isRegistered[msg.sender] */\n      0x00\n        /* \"Gamegrid.sol\":1147:1157  msg.sender */\n      caller\n        /* \"Gamegrid.sol\":1134:1158  isRegistered[msg.sender] */\n      0xffffffffffffffffffffffffffffffffffffffff\n      and\n      0xffffffffffffffffffffffffffffffffffffffff\n      and\n      dup2\n      mstore\n      0x20\n      add\n      swap1\n      dup2\n      mstore\n      0x20\n      add\n      0x00\n      keccak256\n      0x00\n      swap1\n      sload\n      swap1\n      0x0100\n      exp\n      swap1\n      div\n      0xff\n      and\n        /* \"Gamegrid.sol\":1126:1183  require(isRegistered[msg.sender], \"User not registered.\") */\n      tag_122\n      jumpi\n      mload(0x40)\n      0x08c379a000000000000000000000000000000000000000000000000000000000\n      dup2\n      mstore\n      0x04\n      add\n      tag_123\n      swap1\n      tag_31\n      jump\t// in\n    tag_123:\n      mload(0x40)\n      dup1\n      swap2\n      sub\n      swap1\n      revert\n    tag_122:\n        /* \"Gamegrid.sol\":3197:3221  UserProfile storage user */\n      0x00\n        /* \"Gamegrid.sol\":3224:3236  userProfiles */\n      0x00\n        /* \"Gamegrid.sol\":3224:3248  userProfiles[msg.sender] */\n      0x00\n        /* \"Gamegrid.sol\":3237:3247  msg.sender */\n      caller\n        /* \"Gamegrid.sol\":3224:3248  userProfiles[msg.sender] */\n      0xffffffffffffffffffffffffffffffffffffffff\n      and\n      0xffffffffffffffffffffffffffffffffffffffff\n      and\n      dup2\n      mstore\n      0x20\n      add\n      swap1\n      dup2\n      mstore\n      0x20\n      add\n      0x00\n      keccak256\n        /* \"Gamegrid.sol\":3197:3248  UserProfile storage user = userProfiles[msg.sender] */\n      swap1\n      pop\n        /* \"Gamegrid.sol\":3278:3287  _lvPoints */\n      dup3\n        /* \"Gamegrid.sol\":3261:3265  user */\n      dup2\n        /* \"Gamegrid.sol\":3261:3274  user.lvPoints */\n      0x05\n      add\n      0x00\n        /* \"Gamegrid.sol\":3261:3287  user.lvPoints += _lvPoints */\n      dup3\n      dup3\n      sload\n      tag_125\n      swap2\n      swap1\n      tag_126\n      jump\t// in\n    tag_125:\n      swap3\n      pop\n      pop\n      dup2\n      swap1\n      sstore\n      pop\n        /* \"Gamegrid.sol\":3315:3324  _ggPoints */\n      dup2\n        /* \"Gamegrid.sol\":3298:3302  user */\n      dup2\n        /* \"Gamegrid.sol\":3298:3311  user.ggPoints */\n      0x06\n      add\n      0x00\n        /* \"Gamegrid.sol\":3298:3324  user.ggPoints += _ggPoints */\n      dup3\n      dup3\n      sload\n      tag_127\n      swap2\n      swap1\n      tag_126\n      jump\t// in\n    tag_127:\n      swap3\n      pop\n      pop\n      dup2\n      swap1\n      sstore\n      pop\n        /* \"Gamegrid.sol\":3354:3364  msg.sender */\n      caller\n        /* \"Gamegrid.sol\":3342:3387  PointsAdded(msg.sender, _lvPoints, _ggPoints) */\n      0xffffffffffffffffffffffffffffffffffffffff\n      and\n      0x27909057bad6ce6fc50ecea73759a0da1ec7790bbb0144577bf31372a78b3e64\n        /* \"Gamegrid.sol\":3366:3375  _lvPoints */\n      dup5\n        /* \"Gamegrid.sol\":3377:3386  _ggPoints */\n      dup5\n        /* \"Gamegrid.sol\":3342:3387  PointsAdded(msg.sender, _lvPoints, _ggPoints) */\n      mload(0x40)\n      tag_128\n      swap3\n      swap2\n      swap1\n      tag_120\n      jump\t// in\n    tag_128:\n      mload(0x40)\n      dup1\n      swap2\n      sub\n      swap1\n      log2\n        /* \"Gamegrid.sol\":3186:3395  {... */\n      pop\n        /* \"Gamegrid.sol\":3107:3395  function addPoints(uint256 _lvPoints, uint256 _ggPoints) public onlyRegistered {... */\n      pop\n      pop\n      jump\t// out\n        /* \"Gamegrid.sol\":4122:4636  function uint2str(uint256 _i) internal pure returns (string memory) {... */\n    tag_79:\n        /* \"Gamegrid.sol\":4175:4188  string memory */\n      0x60\n        /* \"Gamegrid.sol\":4211:4212  0 */\n      0x00\n        /* \"Gamegrid.sol\":4205:4207  _i */\n      dup3\n        /* \"Gamegrid.sol\":4205:4212  _i == 0 */\n      sub\n        /* \"Gamegrid.sol\":4201:4251  if (_i == 0) {... */\n      tag_130\n      jumpi\n        /* \"Gamegrid.sol\":4229:4239  return \"0\" */\n      mload(0x40)\n      dup1\n      0x40\n      add\n      0x40\n      mstore\n      dup1\n      0x01\n      dup2\n      mstore\n      0x20\n      add\n      0x3000000000000000000000000000000000000000000000000000000000000000\n      dup2\n      mstore\n      pop\n      swap1\n      pop\n      jump(tag_129)\n        /* \"Gamegrid.sol\":4201:4251  if (_i == 0) {... */\n    tag_130:\n        /* \"Gamegrid.sol\":4261:4273  uint256 temp */\n      0x00\n        /* \"Gamegrid.sol\":4276:4278  _i */\n      dup3\n        /* \"Gamegrid.sol\":4261:4278  uint256 temp = _i */\n      swap1\n      pop\n        /* \"Gamegrid.sol\":4289:4303  uint256 digits */\n      0x00\n        /* \"Gamegrid.sol\":4314:4392  while (temp != 0) {... */\n    tag_131:\n        /* \"Gamegrid.sol\":4329:4330  0 */\n      0x00\n        /* \"Gamegrid.sol\":4321:4325  temp */\n      dup3\n        /* \"Gamegrid.sol\":4321:4330  temp != 0 */\n      eq\n        /* \"Gamegrid.sol\":4314:4392  while (temp != 0) {... */\n      tag_132\n      jumpi\n        /* \"Gamegrid.sol\":4347:4355  digits++ */\n      dup1\n      dup1\n      tag_133\n      swap1\n      tag_134\n      jump\t// in\n    tag_133:\n      swap2\n      pop\n      pop\n        /* \"Gamegrid.sol\":4378:4380  10 */\n      0x0a\n        /* \"Gamegrid.sol\":4370:4380  temp /= 10 */\n      dup3\n      tag_135\n      swap2\n      swap1\n      tag_136\n      jump\t// in\n    tag_135:\n      swap2\n      pop\n        /* \"Gamegrid.sol\":4314:4392  while (temp != 0) {... */\n      jump(tag_131)\n    tag_132:\n        /* \"Gamegrid.sol\":4402:4421  bytes memory buffer */\n      0x00\n        /* \"Gamegrid.sol\":4434:4440  digits */\n      dup2\n        /* \"Gamegrid.sol\":4424:4441  new bytes(digits) */\n      0xffffffffffffffff\n      dup2\n      gt\n      iszero\n      tag_137\n      jumpi\n      tag_138\n      tag_139\n      jump\t// in\n    tag_138:\n    tag_137:\n      mload(0x40)\n      swap1\n      dup1\n      dup3\n      mstore\n      dup1\n      0x1f\n      add\n      not(0x1f)\n      and\n      0x20\n      add\n      dup3\n      add\n      0x40\n      mstore\n      dup1\n      iszero\n      tag_140\n      jumpi\n      dup2\n      0x20\n      add\n      0x01\n      dup3\n      mul\n      dup1\n      calldatasize\n      dup4\n      calldatacopy\n      dup1\n      dup3\n      add\n      swap2\n      pop\n      pop\n      swap1\n      pop\n    tag_140:\n      pop\n        /* \"Gamegrid.sol\":4402:4441  bytes memory buffer = new bytes(digits) */\n      swap1\n      pop\n        /* \"Gamegrid.sol\":4452:4597  while (_i != 0) {... */\n    tag_141:\n        /* \"Gamegrid.sol\":4465:4466  0 */\n      0x00\n        /* \"Gamegrid.sol\":4459:4461  _i */\n      dup6\n        /* \"Gamegrid.sol\":4459:4466  _i != 0 */\n      eq\n        /* \"Gamegrid.sol\":4452:4597  while (_i != 0) {... */\n      tag_142\n      jumpi\n        /* \"Gamegrid.sol\":4493:4494  1 */\n      0x01\n        /* \"Gamegrid.sol\":4483:4494  digits -= 1 */\n      dup3\n      tag_143\n      swap2\n      swap1\n      tag_117\n      jump\t// in\n    tag_143:\n      swap2\n      pop\n        /* \"Gamegrid.sol\":4557:4559  10 */\n      0x0a\n        /* \"Gamegrid.sol\":4552:4554  _i */\n      dup6\n        /* \"Gamegrid.sol\":4552:4559  _i % 10 */\n      tag_144\n      swap2\n      swap1\n      tag_145\n      jump\t// in\n    tag_144:\n        /* \"Gamegrid.sol\":4539:4541  48 */\n      0x30\n        /* \"Gamegrid.sol\":4539:4560  48 + uint256(_i % 10) */\n      tag_146\n      swap2\n      swap1\n      tag_126\n      jump\t// in\n    tag_146:\n        /* \"Gamegrid.sol\":4526:4562  bytes1(uint8(48 + uint256(_i % 10))) */\n      0xf8\n      shl\n        /* \"Gamegrid.sol\":4509:4515  buffer */\n      dup2\n        /* \"Gamegrid.sol\":4516:4522  digits */\n      dup4\n        /* \"Gamegrid.sol\":4509:4523  buffer[digits] */\n      dup2\n      mload\n      dup2\n      lt\n      tag_147\n      jumpi\n      tag_148\n      tag_149\n      jump\t// in\n    tag_148:\n    tag_147:\n      0x20\n      add\n      add\n        /* \"Gamegrid.sol\":4509:4562  buffer[digits] = bytes1(uint8(48 + uint256(_i % 10))) */\n      swap1\n      not(0xffffffffffffffffffffffffffffffffffffffffffffffffffffffffffffff)\n      and\n      swap1\n      dup2\n      0x00\n      byte\n      swap1\n      mstore8\n      pop\n        /* \"Gamegrid.sol\":4583:4585  10 */\n      0x0a\n        /* \"Gamegrid.sol\":4577:4585  _i /= 10 */\n      dup6\n      tag_150\n      swap2\n      swap1\n      tag_136\n      jump\t// in\n    tag_150:\n      swap5\n      pop\n        /* \"Gamegrid.sol\":4452:4597  while (_i != 0) {... */\n      jump(tag_141)\n    tag_142:\n        /* \"Gamegrid.sol\":4621:4627  buffer */\n      dup1\n        /* \"Gamegrid.sol\":4607:4628  return string(buffer) */\n      swap4\n      pop\n      pop\n      pop\n      pop\n        /* \"Gamegrid.sol\":4122:4636  function uint2str(uint256 _i) internal pure returns (string memory) {... */\n    tag_129:\n      swap2\n      swap1\n      pop\n      jump\t// out\n    tag_27:\n      mload(0x40)\n      dup1\n      0x01a0\n      add\n      0x40\n      mstore\n      dup1\n      0x60\n      dup2\n      mstore\n      0x20\n      add\n      0x60\n      dup2\n      mstore\n      0x20\n      add\n      0x60\n      dup2\n      mstore\n      0x20\n      add\n      0x00\n      dup2\n      mstore\n      0x20\n      add\n      0x00\n      dup2\n      mstore\n      0x20\n      add\n      0x00\n      dup2\n      mstore\n      0x20\n      add\n      0x00\n      dup2\n      mstore\n      0x20\n      add\n      0x60\n      dup2\n      mstore\n      0x20\n      add\n      0x60\n      dup2\n      mstore\n      0x20\n      add\n      0x60\n      dup2\n      mstore\n      0x20\n      add\n      0x60\n      dup2\n      mstore\n      0x20\n      add\n      0x60\n      dup2\n      mstore\n      0x20\n      add\n      and(0xffffffffffffffffffffffffffffffffffffffff, 0x00)\n      dup2\n      mstore\n      pop\n      swap1\n      jump\t// out\n        /* \"#utility.yul\":7:106   */\n    tag_151:\n        /* \"#utility.yul\":59:65   */\n      0x00\n        /* \"#utility.yul\":93:98   */\n      dup2\n        /* \"#utility.yul\":87:99   */\n      mload\n        /* \"#utility.yul\":77:99   */\n      swap1\n      pop\n        /* \"#utility.yul\":7:106   */\n      swap2\n      swap1\n      pop\n      jump\t// out\n        /* \"#utility.yul\":112:271   */\n    tag_152:\n        /* \"#utility.yul\":186:197   */\n      0x00\n        /* \"#utility.yul\":220:226   */\n      dup3\n        /* \"#utility.yul\":215:218   */\n      dup3\n        /* \"#utility.yul\":208:227   */\n      mstore\n        /* \"#utility.yul\":260:264   */\n      0x20\n        /* \"#utility.yul\":255:258   */\n      dup3\n        /* \"#utility.yul\":251:265   */\n      add\n        /* \"#utility.yul\":236:265   */\n      swap1\n      pop\n        /* \"#utility.yul\":112:271   */\n      swap3\n      swap2\n      pop\n      pop\n      jump\t// out\n        /* \"#utility.yul\":277:416   */\n    tag_153:\n        /* \"#utility.yul\":366:372   */\n      dup3\n        /* \"#utility.yul\":361:364   */\n      dup2\n        /* \"#utility.yul\":356:359   */\n      dup4\n        /* \"#utility.yul\":350:373   */\n      mcopy\n        /* \"#utility.yul\":407:408   */\n      0x00\n        /* \"#utility.yul\":398:404   */\n      dup4\n        /* \"#utility.yul\":393:396   */\n      dup4\n        /* \"#utility.yul\":389:405   */\n      add\n        /* \"#utility.yul\":382:409   */\n      mstore\n        /* \"#utility.yul\":277:416   */\n      pop\n      pop\n      pop\n      jump\t// out\n        /* \"#utility.yul\":422:524   */\n    tag_154:\n        /* \"#utility.yul\":463:469   */\n      0x00\n        /* \"#utility.yul\":514:516   */\n      0x1f\n        /* \"#utility.yul\":510:517   */\n      not\n        /* \"#utility.yul\":505:507   */\n      0x1f\n        /* \"#utility.yul\":498:503   */\n      dup4\n        /* \"#utility.yul\":494:508   */\n      add\n        /* \"#utility.yul\":490:518   */\n      and\n        /* \"#utility.yul\":480:518   */\n      swap1\n      pop\n        /* \"#utility.yul\":422:524   */\n      swap2\n      swap1\n      pop\n      jump\t// out\n        /* \"#utility.yul\":530:887   */\n    tag_155:\n        /* \"#utility.yul\":608:611   */\n      0x00\n        /* \"#utility.yul\":636:675   */\n      tag_215\n        /* \"#utility.yul\":669:674   */\n      dup3\n        /* \"#utility.yul\":636:675   */\n      tag_151\n      jump\t// in\n    tag_215:\n        /* \"#utility.yul\":691:752   */\n      tag_216\n        /* \"#utility.yul\":745:751   */\n      dup2\n        /* \"#utility.yul\":740:743   */\n      dup6\n        /* \"#utility.yul\":691:752   */\n      tag_152\n      jump\t// in\n    tag_216:\n        /* \"#utility.yul\":684:752   */\n      swap4\n      pop\n        /* \"#utility.yul\":761:826   */\n      tag_217\n        /* \"#utility.yul\":819:825   */\n      dup2\n        /* \"#utility.yul\":814:817   */\n      dup6\n        /* \"#utility.yul\":807:811   */\n      0x20\n        /* \"#utility.yul\":800:805   */\n      dup7\n        /* \"#utility.yul\":796:812   */\n      add\n        /* \"#utility.yul\":761:826   */\n      tag_153\n      jump\t// in\n    tag_217:\n        /* \"#utility.yul\":851:880   */\n      tag_218\n        /* \"#utility.yul\":873:879   */\n      dup2\n        /* \"#utility.yul\":851:880   */\n      tag_154\n      jump\t// in\n    tag_218:\n        /* \"#utility.yul\":846:849   */\n      dup5\n        /* \"#utility.yul\":842:881   */\n      add\n        /* \"#utility.yul\":835:881   */\n      swap2\n      pop\n        /* \"#utility.yul\":612:887   */\n      pop\n        /* \"#utility.yul\":530:887   */\n      swap3\n      swap2\n      pop\n      pop\n      jump\t// out\n        /* \"#utility.yul\":893:970   */\n    tag_156:\n        /* \"#utility.yul\":930:937   */\n      0x00\n        /* \"#utility.yul\":959:964   */\n      dup2\n        /* \"#utility.yul\":948:964   */\n      swap1\n      pop\n        /* \"#utility.yul\":893:970   */\n      swap2\n      swap1\n      pop\n      jump\t// out\n        /* \"#utility.yul\":976:1084   */\n    tag_157:\n        /* \"#utility.yul\":1053:1077   */\n      tag_221\n        /* \"#utility.yul\":1071:1076   */\n      dup2\n        /* \"#utility.yul\":1053:1077   */\n      tag_156\n      jump\t// in\n    tag_221:\n        /* \"#utility.yul\":1048:1051   */\n      dup3\n        /* \"#utility.yul\":1041:1078   */\n      mstore\n        /* \"#utility.yul\":976:1084   */\n      pop\n      pop\n      jump\t// out\n        /* \"#utility.yul\":1090:1216   */\n    tag_158:\n        /* \"#utility.yul\":1127:1134   */\n      0x00\n        /* \"#utility.yul\":1167:1209   */\n      0xffffffffffffffffffffffffffffffffffffffff\n        /* \"#utility.yul\":1160:1165   */\n      dup3\n        /* \"#utility.yul\":1156:1210   */\n      and\n        /* \"#utility.yul\":1145:1210   */\n      swap1\n      pop\n        /* \"#utility.yul\":1090:1216   */\n      swap2\n      swap1\n      pop\n      jump\t// out\n        /* \"#utility.yul\":1222:1318   */\n    tag_159:\n        /* \"#utility.yul\":1259:1266   */\n      0x00\n        /* \"#utility.yul\":1288:1312   */\n      tag_224\n        /* \"#utility.yul\":1306:1311   */\n      dup3\n        /* \"#utility.yul\":1288:1312   */\n      tag_158\n      jump\t// in\n    tag_224:\n        /* \"#utility.yul\":1277:1312   */\n      swap1\n      pop\n        /* \"#utility.yul\":1222:1318   */\n      swap2\n      swap1\n      pop\n      jump\t// out\n        /* \"#utility.yul\":1324:1432   */\n    tag_160:\n        /* \"#utility.yul\":1401:1425   */\n      tag_226\n        /* \"#utility.yul\":1419:1424   */\n      dup2\n        /* \"#utility.yul\":1401:1425   */\n      tag_159\n      jump\t// in\n    tag_226:\n        /* \"#utility.yul\":1396:1399   */\n      dup3\n        /* \"#utility.yul\":1389:1426   */\n      mstore\n        /* \"#utility.yul\":1324:1432   */\n      pop\n      pop\n      jump\t// out\n        /* \"#utility.yul\":1504:4598   */\n    tag_161:\n        /* \"#utility.yul\":1627:1630   */\n      0x00\n        /* \"#utility.yul\":1663:1669   */\n      0x01a0\n        /* \"#utility.yul\":1658:1661   */\n      dup4\n        /* \"#utility.yul\":1654:1670   */\n      add\n        /* \"#utility.yul\":1754:1758   */\n      0x00\n        /* \"#utility.yul\":1747:1752   */\n      dup4\n        /* \"#utility.yul\":1743:1759   */\n      add\n        /* \"#utility.yul\":1737:1760   */\n      mload\n        /* \"#utility.yul\":1807:1810   */\n      dup5\n        /* \"#utility.yul\":1801:1805   */\n      dup3\n        /* \"#utility.yul\":1797:1811   */\n      sub\n        /* \"#utility.yul\":1790:1794   */\n      0x00\n        /* \"#utility.yul\":1785:1788   */\n      dup7\n        /* \"#utility.yul\":1781:1795   */\n      add\n        /* \"#utility.yul\":1774:1812   */\n      mstore\n        /* \"#utility.yul\":1833:1906   */\n      tag_228\n        /* \"#utility.yul\":1901:1905   */\n      dup3\n        /* \"#utility.yul\":1887:1899   */\n      dup3\n        /* \"#utility.yul\":1833:1906   */\n      tag_155\n      jump\t// in\n    tag_228:\n        /* \"#utility.yul\":1825:1906   */\n      swap2\n      pop\n        /* \"#utility.yul\":1680:1917   */\n      pop\n        /* \"#utility.yul\":2003:2007   */\n      0x20\n        /* \"#utility.yul\":1996:2001   */\n      dup4\n        /* \"#utility.yul\":1992:2008   */\n      add\n        /* \"#utility.yul\":1986:2009   */\n      mload\n        /* \"#utility.yul\":2056:2059   */\n      dup5\n        /* \"#utility.yul\":2050:2054   */\n      dup3\n        /* \"#utility.yul\":2046:2060   */\n      sub\n        /* \"#utility.yul\":2039:2043   */\n      0x20\n        /* \"#utility.yul\":2034:2037   */\n      dup7\n        /* \"#utility.yul\":2030:2044   */\n      add\n        /* \"#utility.yul\":2023:2061   */\n      mstore\n        /* \"#utility.yul\":2082:2155   */\n      tag_229\n        /* \"#utility.yul\":2150:2154   */\n      dup3\n        /* \"#utility.yul\":2136:2148   */\n      dup3\n        /* \"#utility.yul\":2082:2155   */\n      tag_155\n      jump\t// in\n    tag_229:\n        /* \"#utility.yul\":2074:2155   */\n      swap2\n      pop\n        /* \"#utility.yul\":1927:2166   */\n      pop\n        /* \"#utility.yul\":2249:2253   */\n      0x40\n        /* \"#utility.yul\":2242:2247   */\n      dup4\n        /* \"#utility.yul\":2238:2254   */\n      add\n        /* \"#utility.yul\":2232:2255   */\n      mload\n        /* \"#utility.yul\":2302:2305   */\n      dup5\n        /* \"#utility.yul\":2296:2300   */\n      dup3\n        /* \"#utility.yul\":2292:2306   */\n      sub\n        /* \"#utility.yul\":2285:2289   */\n      0x40\n        /* \"#utility.yul\":2280:2283   */\n      dup7\n        /* \"#utility.yul\":2276:2290   */\n      add\n        /* \"#utility.yul\":2269:2307   */\n      mstore\n        /* \"#utility.yul\":2328:2401   */\n      tag_230\n        /* \"#utility.yul\":2396:2400   */\n      dup3\n        /* \"#utility.yul\":2382:2394   */\n      dup3\n        /* \"#utility.yul\":2328:2401   */\n      tag_155\n      jump\t// in\n    tag_230:\n        /* \"#utility.yul\":2320:2401   */\n      swap2\n      pop\n        /* \"#utility.yul\":2176:2412   */\n      pop\n        /* \"#utility.yul\":2502:2506   */\n      0x60\n        /* \"#utility.yul\":2495:2500   */\n      dup4\n        /* \"#utility.yul\":2491:2507   */\n      add\n        /* \"#utility.yul\":2485:2508   */\n      mload\n        /* \"#utility.yul\":2521:2584   */\n      tag_231\n        /* \"#utility.yul\":2578:2582   */\n      0x60\n        /* \"#utility.yul\":2573:2576   */\n      dup7\n        /* \"#utility.yul\":2569:2583   */\n      add\n        /* \"#utility.yul\":2555:2567   */\n      dup3\n        /* \"#utility.yul\":2521:2584   */\n      tag_157\n      jump\t// in\n    tag_231:\n        /* \"#utility.yul\":2422:2594   */\n      pop\n        /* \"#utility.yul\":2682:2686   */\n      0x80\n        /* \"#utility.yul\":2675:2680   */\n      dup4\n        /* \"#utility.yul\":2671:2687   */\n      add\n        /* \"#utility.yul\":2665:2688   */\n      mload\n        /* \"#utility.yul\":2701:2764   */\n      tag_232\n        /* \"#utility.yul\":2758:2762   */\n      0x80\n        /* \"#utility.yul\":2753:2756   */\n      dup7\n        /* \"#utility.yul\":2749:2763   */\n      add\n        /* \"#utility.yul\":2735:2747   */\n      dup3\n        /* \"#utility.yul\":2701:2764   */\n      tag_157\n      jump\t// in\n    tag_232:\n        /* \"#utility.yul\":2604:2774   */\n      pop\n        /* \"#utility.yul\":2860:2864   */\n      0xa0\n        /* \"#utility.yul\":2853:2858   */\n      dup4\n        /* \"#utility.yul\":2849:2865   */\n      add\n        /* \"#utility.yul\":2843:2866   */\n      mload\n        /* \"#utility.yul\":2879:2942   */\n      tag_233\n        /* \"#utility.yul\":2936:2940   */\n      0xa0\n        /* \"#utility.yul\":2931:2934   */\n      dup7\n        /* \"#utility.yul\":2927:2941   */\n      add\n        /* \"#utility.yul\":2913:2925   */\n      dup3\n        /* \"#utility.yul\":2879:2942   */\n      tag_157\n      jump\t// in\n    tag_233:\n        /* \"#utility.yul\":2784:2952   */\n      pop\n        /* \"#utility.yul\":3038:3042   */\n      0xc0\n        /* \"#utility.yul\":3031:3036   */\n      dup4\n        /* \"#utility.yul\":3027:3043   */\n      add\n        /* \"#utility.yul\":3021:3044   */\n      mload\n        /* \"#utility.yul\":3057:3120   */\n      tag_234\n        /* \"#utility.yul\":3114:3118   */\n      0xc0\n        /* \"#utility.yul\":3109:3112   */\n      dup7\n        /* \"#utility.yul\":3105:3119   */\n      add\n        /* \"#utility.yul\":3091:3103   */\n      dup3\n        /* \"#utility.yul\":3057:3120   */\n      tag_157\n      jump\t// in\n    tag_234:\n        /* \"#utility.yul\":2962:3130   */\n      pop\n        /* \"#utility.yul\":3213:3217   */\n      0xe0\n        /* \"#utility.yul\":3206:3211   */\n      dup4\n        /* \"#utility.yul\":3202:3218   */\n      add\n        /* \"#utility.yul\":3196:3219   */\n      mload\n        /* \"#utility.yul\":3266:3269   */\n      dup5\n        /* \"#utility.yul\":3260:3264   */\n      dup3\n        /* \"#utility.yul\":3256:3270   */\n      sub\n        /* \"#utility.yul\":3249:3253   */\n      0xe0\n        /* \"#utility.yul\":3244:3247   */\n      dup7\n        /* \"#utility.yul\":3240:3254   */\n      add\n        /* \"#utility.yul\":3233:3271   */\n      mstore\n        /* \"#utility.yul\":3292:3365   */\n      tag_235\n        /* \"#utility.yul\":3360:3364   */\n      dup3\n        /* \"#utility.yul\":3346:3358   */\n      dup3\n        /* \"#utility.yul\":3292:3365   */\n      tag_155\n      jump\t// in\n    tag_235:\n        /* \"#utility.yul\":3284:3365   */\n      swap2\n      pop\n        /* \"#utility.yul\":3140:3376   */\n      pop\n        /* \"#utility.yul\":3458:3464   */\n      0x0100\n        /* \"#utility.yul\":3451:3456   */\n      dup4\n        /* \"#utility.yul\":3447:3465   */\n      add\n        /* \"#utility.yul\":3441:3466   */\n      mload\n        /* \"#utility.yul\":3515:3518   */\n      dup5\n        /* \"#utility.yul\":3509:3513   */\n      dup3\n        /* \"#utility.yul\":3505:3519   */\n      sub\n        /* \"#utility.yul\":3496:3502   */\n      0x0100\n        /* \"#utility.yul\":3491:3494   */\n      dup7\n        /* \"#utility.yul\":3487:3503   */\n      add\n        /* \"#utility.yul\":3480:3520   */\n      mstore\n        /* \"#utility.yul\":3541:3614   */\n      tag_236\n        /* \"#utility.yul\":3609:3613   */\n      dup3\n        /* \"#utility.yul\":3595:3607   */\n      dup3\n        /* \"#utility.yul\":3541:3614   */\n      tag_155\n      jump\t// in\n    tag_236:\n        /* \"#utility.yul\":3533:3614   */\n      swap2\n      pop\n        /* \"#utility.yul\":3386:3625   */\n      pop\n        /* \"#utility.yul\":3709:3715   */\n      0x0120\n        /* \"#utility.yul\":3702:3707   */\n      dup4\n        /* \"#utility.yul\":3698:3716   */\n      add\n        /* \"#utility.yul\":3692:3717   */\n      mload\n        /* \"#utility.yul\":3766:3769   */\n      dup5\n        /* \"#utility.yul\":3760:3764   */\n      dup3\n        /* \"#utility.yul\":3756:3770   */\n      sub\n        /* \"#utility.yul\":3747:3753   */\n      0x0120\n        /* \"#utility.yul\":3742:3745   */\n      dup7\n        /* \"#utility.yul\":3738:3754   */\n      add\n        /* \"#utility.yul\":3731:3771   */\n      mstore\n        /* \"#utility.yul\":3792:3865   */\n      tag_237\n        /* \"#utility.yul\":3860:3864   */\n      dup3\n        /* \"#utility.yul\":3846:3858   */\n      dup3\n        /* \"#utility.yul\":3792:3865   */\n      tag_155\n      jump\t// in\n    tag_237:\n        /* \"#utility.yul\":3784:3865   */\n      swap2\n      pop\n        /* \"#utility.yul\":3635:3876   */\n      pop\n        /* \"#utility.yul\":3964:3970   */\n      0x0140\n        /* \"#utility.yul\":3957:3962   */\n      dup4\n        /* \"#utility.yul\":3953:3971   */\n      add\n        /* \"#utility.yul\":3947:3972   */\n      mload\n        /* \"#utility.yul\":4021:4024   */\n      dup5\n        /* \"#utility.yul\":4015:4019   */\n      dup3\n        /* \"#utility.yul\":4011:4025   */\n      sub\n        /* \"#utility.yul\":4002:4008   */\n      0x0140\n        /* \"#utility.yul\":3997:4000   */\n      dup7\n        /* \"#utility.yul\":3993:4009   */\n      add\n        /* \"#utility.yul\":3986:4026   */\n      mstore\n        /* \"#utility.yul\":4047:4120   */\n      tag_238\n        /* \"#utility.yul\":4115:4119   */\n      dup3\n        /* \"#utility.yul\":4101:4113   */\n      dup3\n        /* \"#utility.yul\":4047:4120   */\n      tag_155\n      jump\t// in\n    tag_238:\n        /* \"#utility.yul\":4039:4120   */\n      swap2\n      pop\n        /* \"#utility.yul\":3886:4131   */\n      pop\n        /* \"#utility.yul\":4217:4223   */\n      0x0160\n        /* \"#utility.yul\":4210:4215   */\n      dup4\n        /* \"#utility.yul\":4206:4224   */\n      add\n        /* \"#utility.yul\":4200:4225   */\n      mload\n        /* \"#utility.yul\":4274:4277   */\n      dup5\n        /* \"#utility.yul\":4268:4272   */\n      dup3\n        /* \"#utility.yul\":4264:4278   */\n      sub\n        /* \"#utility.yul\":4255:4261   */\n      0x0160\n        /* \"#utility.yul\":4250:4253   */\n      dup7\n        /* \"#utility.yul\":4246:4262   */\n      add\n        /* \"#utility.yul\":4239:4279   */\n      mstore\n        /* \"#utility.yul\":4300:4373   */\n      tag_239\n        /* \"#utility.yul\":4368:4372   */\n      dup3\n        /* \"#utility.yul\":4354:4366   */\n      dup3\n        /* \"#utility.yul\":4300:4373   */\n      tag_155\n      jump\t// in\n    tag_239:\n        /* \"#utility.yul\":4292:4373   */\n      swap2\n      pop\n        /* \"#utility.yul\":4141:4384   */\n      pop\n        /* \"#utility.yul\":4475:4481   */\n      0x0180\n        /* \"#utility.yul\":4468:4473   */\n      dup4\n        /* \"#utility.yul\":4464:4482   */\n      add\n        /* \"#utility.yul\":4458:4483   */\n      mload\n        /* \"#utility.yul\":4496:4561   */\n      tag_240\n        /* \"#utility.yul\":4553:4559   */\n      0x0180\n        /* \"#utility.yul\":4548:4551   */\n      dup7\n        /* \"#utility.yul\":4544:4560   */\n      add\n        /* \"#utility.yul\":4530:4542   */\n      dup3\n        /* \"#utility.yul\":4496:4561   */\n      tag_160\n      jump\t// in\n    tag_240:\n        /* \"#utility.yul\":4394:4571   */\n      pop\n        /* \"#utility.yul\":4588:4592   */\n      dup1\n        /* \"#utility.yul\":4581:4592   */\n      swap2\n      pop\n        /* \"#utility.yul\":1632:4598   */\n      pop\n        /* \"#utility.yul\":1504:4598   */\n      swap3\n      swap2\n      pop\n      pop\n      jump\t// out\n        /* \"#utility.yul\":4604:4985   */\n    tag_11:\n        /* \"#utility.yul\":4751:4755   */\n      0x00\n        /* \"#utility.yul\":4789:4791   */\n      0x20\n        /* \"#utility.yul\":4778:4787   */\n      dup3\n        /* \"#utility.yul\":4774:4792   */\n      add\n        /* \"#utility.yul\":4766:4792   */\n      swap1\n      pop\n        /* \"#utility.yul\":4838:4847   */\n      dup2\n        /* \"#utility.yul\":4832:4836   */\n      dup2\n        /* \"#utility.yul\":4828:4848   */\n      sub\n        /* \"#utility.yul\":4824:4825   */\n      0x00\n        /* \"#utility.yul\":4813:4822   */\n      dup4\n        /* \"#utility.yul\":4809:4826   */\n      add\n        /* \"#utility.yul\":4802:4849   */\n      mstore\n        /* \"#utility.yul\":4866:4978   */\n      tag_242\n        /* \"#utility.yul\":4973:4977   */\n      dup2\n        /* \"#utility.yul\":4964:4970   */\n      dup5\n        /* \"#utility.yul\":4866:4978   */\n      tag_161\n      jump\t// in\n    tag_242:\n        /* \"#utility.yul\":4858:4978   */\n      swap1\n      pop\n        /* \"#utility.yul\":4604:4985   */\n      swap3\n      swap2\n      pop\n      pop\n      jump\t// out\n        /* \"#utility.yul\":4991:5066   */\n    tag_162:\n        /* \"#utility.yul\":5024:5030   */\n      0x00\n        /* \"#utility.yul\":5057:5059   */\n      0x40\n        /* \"#utility.yul\":5051:5060   */\n      mload\n        /* \"#utility.yul\":5041:5060   */\n      swap1\n      pop\n        /* \"#utility.yul\":4991:5066   */\n      swap1\n      jump\t// out\n        /* \"#utility.yul\":5072:5189   */\n    tag_163:\n        /* \"#utility.yul\":5181:5182   */\n      0x00\n        /* \"#utility.yul\":5178:5179   */\n      0x00\n        /* \"#utility.yul\":5171:5183   */\n      revert\n        /* \"#utility.yul\":5195:5312   */\n    tag_164:\n        /* \"#utility.yul\":5304:5305   */\n      0x00\n        /* \"#utility.yul\":5301:5302   */\n      0x00\n        /* \"#utility.yul\":5294:5306   */\n      revert\n        /* \"#utility.yul\":5318:5435   */\n    tag_165:\n        /* \"#utility.yul\":5427:5428   */\n      0x00\n        /* \"#utility.yul\":5424:5425   */\n      0x00\n        /* \"#utility.yul\":5417:5429   */\n      revert\n        /* \"#utility.yul\":5441:5558   */\n    tag_166:\n        /* \"#utility.yul\":5550:5551   */\n      0x00\n        /* \"#utility.yul\":5547:5548   */\n      0x00\n        /* \"#utility.yul\":5540:5552   */\n      revert\n        /* \"#utility.yul\":5564:5744   */\n    tag_139:\n        /* \"#utility.yul\":5612:5689   */\n      0x4e487b7100000000000000000000000000000000000000000000000000000000\n        /* \"#utility.yul\":5609:5610   */\n      0x00\n        /* \"#utility.yul\":5602:5690   */\n      mstore\n        /* \"#utility.yul\":5709:5713   */\n      0x41\n        /* \"#utility.yul\":5706:5707   */\n      0x04\n        /* \"#utility.yul\":5699:5714   */\n      mstore\n        /* \"#utility.yul\":5733:5737   */\n      0x24\n        /* \"#utility.yul\":5730:5731   */\n      0x00\n        /* \"#utility.yul\":5723:5738   */\n      revert\n        /* \"#utility.yul\":5750:6031   */\n    tag_167:\n        /* \"#utility.yul\":5833:5860   */\n      tag_250\n        /* \"#utility.yul\":5855:5859   */\n      dup3\n        /* \"#utility.yul\":5833:5860   */\n      tag_154\n      jump\t// in\n    tag_250:\n        /* \"#utility.yul\":5825:5831   */\n      dup2\n        /* \"#utility.yul\":5821:5861   */\n      add\n        /* \"#utility.yul\":5963:5969   */\n      dup2\n        /* \"#utility.yul\":5951:5961   */\n      dup2\n        /* \"#utility.yul\":5948:5970   */\n      lt\n        /* \"#utility.yul\":5927:5945   */\n      0xffffffffffffffff\n        /* \"#utility.yul\":5915:5925   */\n      dup3\n        /* \"#utility.yul\":5912:5946   */\n      gt\n        /* \"#utility.yul\":5909:5971   */\n      or\n        /* \"#utility.yul\":5906:5994   */\n      iszero\n      tag_251\n      jumpi\n        /* \"#utility.yul\":5974:5992   */\n      tag_252\n      tag_139\n      jump\t// in\n    tag_252:\n        /* \"#utility.yul\":5906:5994   */\n    tag_251:\n        /* \"#utility.yul\":6014:6024   */\n      dup1\n        /* \"#utility.yul\":6010:6012   */\n      0x40\n        /* \"#utility.yul\":6003:6025   */\n      mstore\n        /* \"#utility.yul\":5793:6031   */\n      pop\n        /* \"#utility.yul\":5750:6031   */\n      pop\n      pop\n      jump\t// out\n        /* \"#utility.yul\":6037:6166   */\n    tag_168:\n        /* \"#utility.yul\":6071:6077   */\n      0x00\n        /* \"#utility.yul\":6098:6118   */\n      tag_254\n      tag_162\n      jump\t// in\n    tag_254:\n        /* \"#utility.yul\":6088:6118   */\n      swap1\n      pop\n        /* \"#utility.yul\":6127:6160   */\n      tag_255\n        /* \"#utility.yul\":6155:6159   */\n      dup3\n        /* \"#utility.yul\":6147:6153   */\n      dup3\n        /* \"#utility.yul\":6127:6160   */\n      tag_167\n      jump\t// in\n    tag_255:\n        /* \"#utility.yul\":6037:6166   */\n      swap2\n      swap1\n      pop\n      jump\t// out\n        /* \"#utility.yul\":6172:6480   */\n    tag_169:\n        /* \"#utility.yul\":6234:6238   */\n      0x00\n        /* \"#utility.yul\":6324:6342   */\n      0xffffffffffffffff\n        /* \"#utility.yul\":6316:6322   */\n      dup3\n        /* \"#utility.yul\":6313:6343   */\n      gt\n        /* \"#utility.yul\":6310:6366   */\n      iszero\n      tag_257\n      jumpi\n        /* \"#utility.yul\":6346:6364   */\n      tag_258\n      tag_139\n      jump\t// in\n    tag_258:\n        /* \"#utility.yul\":6310:6366   */\n    tag_257:\n        /* \"#utility.yul\":6384:6413   */\n      tag_259\n        /* \"#utility.yul\":6406:6412   */\n      dup3\n        /* \"#utility.yul\":6384:6413   */\n      tag_154\n      jump\t// in\n    tag_259:\n        /* \"#utility.yul\":6376:6413   */\n      swap1\n      pop\n        /* \"#utility.yul\":6468:6472   */\n      0x20\n        /* \"#utility.yul\":6462:6466   */\n      dup2\n        /* \"#utility.yul\":6458:6473   */\n      add\n        /* \"#utility.yul\":6450:6473   */\n      swap1\n      pop\n        /* \"#utility.yul\":6172:6480   */\n      swap2\n      swap1\n      pop\n      jump\t// out\n        /* \"#utility.yul\":6486:6634   */\n    tag_170:\n        /* \"#utility.yul\":6584:6590   */\n      dup3\n        /* \"#utility.yul\":6579:6582   */\n      dup2\n        /* \"#utility.yul\":6574:6577   */\n      dup4\n        /* \"#utility.yul\":6561:6591   */\n      calldatacopy\n        /* \"#utility.yul\":6625:6626   */\n      0x00\n        /* \"#utility.yul\":6616:6622   */\n      dup4\n        /* \"#utility.yul\":6611:6614   */\n      dup4\n        /* \"#utility.yul\":6607:6623   */\n      add\n        /* \"#utility.yul\":6600:6627   */\n      mstore\n        /* \"#utility.yul\":6486:6634   */\n      pop\n      pop\n      pop\n      jump\t// out\n        /* \"#utility.yul\":6640:7065   */\n    tag_171:\n        /* \"#utility.yul\":6718:6723   */\n      0x00\n        /* \"#utility.yul\":6743:6809   */\n      tag_262\n        /* \"#utility.yul\":6759:6808   */\n      tag_263\n        /* \"#utility.yul\":6801:6807   */\n      dup5\n        /* \"#utility.yul\":6759:6808   */\n      tag_169\n      jump\t// in\n    tag_263:\n        /* \"#utility.yul\":6743:6809   */\n      tag_168\n      jump\t// in\n    tag_262:\n        /* \"#utility.yul\":6734:6809   */\n      swap1\n      pop\n        /* \"#utility.yul\":6832:6838   */\n      dup3\n        /* \"#utility.yul\":6825:6830   */\n      dup2\n        /* \"#utility.yul\":6818:6839   */\n      mstore\n        /* \"#utility.yul\":6870:6874   */\n      0x20\n        /* \"#utility.yul\":6863:6868   */\n      dup2\n        /* \"#utility.yul\":6859:6875   */\n      add\n        /* \"#utility.yul\":6908:6911   */\n      dup5\n        /* \"#utility.yul\":6899:6905   */\n      dup5\n        /* \"#utility.yul\":6894:6897   */\n      dup5\n        /* \"#utility.yul\":6890:6906   */\n      add\n        /* \"#utility.yul\":6887:6912   */\n      gt\n        /* \"#utility.yul\":6884:6996   */\n      iszero\n      tag_264\n      jumpi\n        /* \"#utility.yul\":6915:6994   */\n      tag_265\n      tag_166\n      jump\t// in\n    tag_265:\n        /* \"#utility.yul\":6884:6996   */\n    tag_264:\n        /* \"#utility.yul\":7005:7059   */\n      tag_266\n        /* \"#utility.yul\":7052:7058   */\n      dup5\n        /* \"#utility.yul\":7047:7050   */\n      dup3\n        /* \"#utility.yul\":7042:7045   */\n      dup6\n        /* \"#utility.yul\":7005:7059   */\n      tag_170\n      jump\t// in\n    tag_266:\n        /* \"#utility.yul\":6724:7065   */\n      pop\n        /* \"#utility.yul\":6640:7065   */\n      swap4\n      swap3\n      pop\n      pop\n      pop\n      jump\t// out\n        /* \"#utility.yul\":7085:7425   */\n    tag_172:\n        /* \"#utility.yul\":7141:7146   */\n      0x00\n        /* \"#utility.yul\":7190:7193   */\n      dup3\n        /* \"#utility.yul\":7183:7187   */\n      0x1f\n        /* \"#utility.yul\":7175:7181   */\n      dup4\n        /* \"#utility.yul\":7171:7188   */\n      add\n        /* \"#utility.yul\":7167:7194   */\n      slt\n        /* \"#utility.yul\":7157:7279   */\n      tag_268\n      jumpi\n        /* \"#utility.yul\":7198:7277   */\n      tag_269\n      tag_165\n      jump\t// in\n    tag_269:\n        /* \"#utility.yul\":7157:7279   */\n    tag_268:\n        /* \"#utility.yul\":7315:7321   */\n      dup2\n        /* \"#utility.yul\":7302:7322   */\n      calldataload\n        /* \"#utility.yul\":7340:7419   */\n      tag_270\n        /* \"#utility.yul\":7415:7418   */\n      dup5\n        /* \"#utility.yul\":7407:7413   */\n      dup3\n        /* \"#utility.yul\":7400:7404   */\n      0x20\n        /* \"#utility.yul\":7392:7398   */\n      dup7\n        /* \"#utility.yul\":7388:7405   */\n      add\n        /* \"#utility.yul\":7340:7419   */\n      tag_171\n      jump\t// in\n    tag_270:\n        /* \"#utility.yul\":7331:7419   */\n      swap2\n      pop\n        /* \"#utility.yul\":7147:7425   */\n      pop\n        /* \"#utility.yul\":7085:7425   */\n      swap3\n      swap2\n      pop\n      pop\n      jump\t// out\n        /* \"#utility.yul\":7431:9894   */\n    tag_14:\n        /* \"#utility.yul\":7614:7620   */\n      0x00\n        /* \"#utility.yul\":7622:7628   */\n      0x00\n        /* \"#utility.yul\":7630:7636   */\n      0x00\n        /* \"#utility.yul\":7638:7644   */\n      0x00\n        /* \"#utility.yul\":7646:7652   */\n      0x00\n        /* \"#utility.yul\":7654:7660   */\n      0x00\n        /* \"#utility.yul\":7662:7668   */\n      0x00\n        /* \"#utility.yul\":7711:7714   */\n      0xe0\n        /* \"#utility.yul\":7699:7708   */\n      dup9\n        /* \"#utility.yul\":7690:7697   */\n      dup11\n        /* \"#utility.yul\":7686:7709   */\n      sub\n        /* \"#utility.yul\":7682:7715   */\n      slt\n        /* \"#utility.yul\":7679:7799   */\n      iszero\n      tag_272\n      jumpi\n        /* \"#utility.yul\":7718:7797   */\n      tag_273\n      tag_163\n      jump\t// in\n    tag_273:\n        /* \"#utility.yul\":7679:7799   */\n    tag_272:\n        /* \"#utility.yul\":7866:7867   */\n      0x00\n        /* \"#utility.yul\":7855:7864   */\n      dup9\n        /* \"#utility.yul\":7851:7868   */\n      add\n        /* \"#utility.yul\":7838:7869   */\n      calldataload\n        /* \"#utility.yul\":7896:7914   */\n      0xffffffffffffffff\n        /* \"#utility.yul\":7888:7894   */\n      dup2\n        /* \"#utility.yul\":7885:7915   */\n      gt\n        /* \"#utility.yul\":7882:7999   */\n      iszero\n      tag_274\n      jumpi\n        /* \"#utility.yul\":7918:7997   */\n      tag_275\n      tag_164\n      jump\t// in\n    tag_275:\n        /* \"#utility.yul\":7882:7999   */\n    tag_274:\n        /* \"#utility.yul\":8023:8086   */\n      tag_276\n        /* \"#utility.yul\":8078:8085   */\n      dup11\n        /* \"#utility.yul\":8069:8075   */\n      dup3\n        /* \"#utility.yul\":8058:8067   */\n      dup12\n        /* \"#utility.yul\":8054:8076   */\n      add\n        /* \"#utility.yul\":8023:8086   */\n      tag_172\n      jump\t// in\n    tag_276:\n        /* \"#utility.yul\":8013:8086   */\n      swap8\n      pop\n        /* \"#utility.yul\":7809:8096   */\n      pop\n        /* \"#utility.yul\":8163:8165   */\n      0x20\n        /* \"#utility.yul\":8152:8161   */\n      dup9\n        /* \"#utility.yul\":8148:8166   */\n      add\n        /* \"#utility.yul\":8135:8167   */\n      calldataload\n        /* \"#utility.yul\":8194:8212   */\n      0xffffffffffffffff\n        /* \"#utility.yul\":8186:8192   */\n      dup2\n        /* \"#utility.yul\":8183:8213   */\n      gt\n        /* \"#utility.yul\":8180:8297   */\n      iszero\n      tag_277\n      jumpi\n        /* \"#utility.yul\":8216:8295   */\n      tag_278\n      tag_164\n      jump\t// in\n    tag_278:\n        /* \"#utility.yul\":8180:8297   */\n    tag_277:\n        /* \"#utility.yul\":8321:8384   */\n      tag_279\n        /* \"#utility.yul\":8376:8383   */\n      dup11\n        /* \"#utility.yul\":8367:8373   */\n      dup3\n        /* \"#utility.yul\":8356:8365   */\n      dup12\n        /* \"#utility.yul\":8352:8374   */\n      add\n        /* \"#utility.yul\":8321:8384   */\n      tag_172\n      jump\t// in\n    tag_279:\n        /* \"#utility.yul\":8311:8384   */\n      swap7\n      pop\n        /* \"#utility.yul\":8106:8394   */\n      pop\n        /* \"#utility.yul\":8461:8463   */\n      0x40\n        /* \"#utility.yul\":8450:8459   */\n      dup9\n        /* \"#utility.yul\":8446:8464   */\n      add\n        /* \"#utility.yul\":8433:8465   */\n      calldataload\n        /* \"#utility.yul\":8492:8510   */\n      0xffffffffffffffff\n        /* \"#utility.yul\":8484:8490   */\n      dup2\n        /* \"#utility.yul\":8481:8511   */\n      gt\n        /* \"#utility.yul\":8478:8595   */\n      iszero\n      tag_280\n      jumpi\n        /* \"#utility.yul\":8514:8593   */\n      tag_281\n      tag_164\n      jump\t// in\n    tag_281:\n        /* \"#utility.yul\":8478:8595   */\n    tag_280:\n        /* \"#utility.yul\":8619:8682   */\n      tag_282\n        /* \"#utility.yul\":8674:8681   */\n      dup11\n        /* \"#utility.yul\":8665:8671   */\n      dup3\n        /* \"#utility.yul\":8654:8663   */\n      dup12\n        /* \"#utility.yul\":8650:8672   */\n      add\n        /* \"#utility.yul\":8619:8682   */\n      tag_172\n      jump\t// in\n    tag_282:\n        /* \"#utility.yul\":8609:8682   */\n      swap6\n      pop\n        /* \"#utility.yul\":8404:8692   */\n      pop\n        /* \"#utility.yul\":8759:8761   */\n      0x60\n        /* \"#utility.yul\":8748:8757   */\n      dup9\n        /* \"#utility.yul\":8744:8762   */\n      add\n        /* \"#utility.yul\":8731:8763   */\n      calldataload\n        /* \"#utility.yul\":8790:8808   */\n      0xffffffffffffffff\n        /* \"#utility.yul\":8782:8788   */\n      dup2\n        /* \"#utility.yul\":8779:8809   */\n      gt\n        /* \"#utility.yul\":8776:8893   */\n      iszero\n      tag_283\n      jumpi\n        /* \"#utility.yul\":8812:8891   */\n      tag_284\n      tag_164\n      jump\t// in\n    tag_284:\n        /* \"#utility.yul\":8776:8893   */\n    tag_283:\n        /* \"#utility.yul\":8917:8980   */\n      tag_285\n        /* \"#utility.yul\":8972:8979   */\n      dup11\n        /* \"#utility.yul\":8963:8969   */\n      dup3\n        /* \"#utility.yul\":8952:8961   */\n      dup12\n        /* \"#utility.yul\":8948:8970   */\n      add\n        /* \"#utility.yul\":8917:8980   */\n      tag_172\n      jump\t// in\n    tag_285:\n        /* \"#utility.yul\":8907:8980   */\n      swap5\n      pop\n        /* \"#utility.yul\":8702:8990   */\n      pop\n        /* \"#utility.yul\":9057:9060   */\n      0x80\n        /* \"#utility.yul\":9046:9055   */\n      dup9\n        /* \"#utility.yul\":9042:9061   */\n      add\n        /* \"#utility.yul\":9029:9062   */\n      calldataload\n        /* \"#utility.yul\":9089:9107   */\n      0xffffffffffffffff\n        /* \"#utility.yul\":9081:9087   */\n      dup2\n        /* \"#utility.yul\":9078:9108   */\n      gt\n        /* \"#utility.yul\":9075:9192   */\n      iszero\n      tag_286\n      jumpi\n        /* \"#utility.yul\":9111:9190   */\n      tag_287\n      tag_164\n      jump\t// in\n    tag_287:\n        /* \"#utility.yul\":9075:9192   */\n    tag_286:\n        /* \"#utility.yul\":9216:9279   */\n      tag_288\n        /* \"#utility.yul\":9271:9278   */\n      dup11\n        /* \"#utility.yul\":9262:9268   */\n      dup3\n        /* \"#utility.yul\":9251:9260   */\n      dup12\n        /* \"#utility.yul\":9247:9269   */\n      add\n        /* \"#utility.yul\":9216:9279   */\n      tag_172\n      jump\t// in\n    tag_288:\n        /* \"#utility.yul\":9206:9279   */\n      swap4\n      pop\n        /* \"#utility.yul\":9000:9289   */\n      pop\n        /* \"#utility.yul\":9356:9359   */\n      0xa0\n        /* \"#utility.yul\":9345:9354   */\n      dup9\n        /* \"#utility.yul\":9341:9360   */\n      add\n        /* \"#utility.yul\":9328:9361   */\n      calldataload\n        /* \"#utility.yul\":9388:9406   */\n      0xffffffffffffffff\n        /* \"#utility.yul\":9380:9386   */\n      dup2\n        /* \"#utility.yul\":9377:9407   */\n      gt\n        /* \"#utility.yul\":9374:9491   */\n      iszero\n      tag_289\n      jumpi\n        /* \"#utility.yul\":9410:9489   */\n      tag_290\n      tag_164\n      jump\t// in\n    tag_290:\n        /* \"#utility.yul\":9374:9491   */\n    tag_289:\n        /* \"#utility.yul\":9515:9578   */\n      tag_291\n        /* \"#utility.yul\":9570:9577   */\n      dup11\n        /* \"#utility.yul\":9561:9567   */\n      dup3\n        /* \"#utility.yul\":9550:9559   */\n      dup12\n        /* \"#utility.yul\":9546:9568   */\n      add\n        /* \"#utility.yul\":9515:9578   */\n      tag_172\n      jump\t// in\n    tag_291:\n        /* \"#utility.yul\":9505:9578   */\n      swap3\n      pop\n        /* \"#utility.yul\":9299:9588   */\n      pop\n        /* \"#utility.yul\":9655:9658   */\n      0xc0\n        /* \"#utility.yul\":9644:9653   */\n      dup9\n        /* \"#utility.yul\":9640:9659   */\n      add\n        /* \"#utility.yul\":9627:9660   */\n      calldataload\n        /* \"#utility.yul\":9687:9705   */\n      0xffffffffffffffff\n        /* \"#utility.yul\":9679:9685   */\n      dup2\n        /* \"#utility.yul\":9676:9706   */\n      gt\n        /* \"#utility.yul\":9673:9790   */\n      iszero\n      tag_292\n      jumpi\n        /* \"#utility.yul\":9709:9788   */\n      tag_293\n      tag_164\n      jump\t// in\n    tag_293:\n        /* \"#utility.yul\":9673:9790   */\n    tag_292:\n        /* \"#utility.yul\":9814:9877   */\n      tag_294\n        /* \"#utility.yul\":9869:9876   */\n      dup11\n        /* \"#utility.yul\":9860:9866   */\n      dup3\n        /* \"#utility.yul\":9849:9858   */\n      dup12\n        /* \"#utility.yul\":9845:9867   */\n      add\n        /* \"#utility.yul\":9814:9877   */\n      tag_172\n      jump\t// in\n    tag_294:\n        /* \"#utility.yul\":9804:9877   */\n      swap2\n      pop\n        /* \"#utility.yul\":9598:9887   */\n      pop\n        /* \"#utility.yul\":7431:9894   */\n      swap3\n      swap6\n      swap9\n      swap2\n      swap5\n      swap8\n      pop\n      swap3\n      swap6\n      pop\n      jump\t// out\n        /* \"#utility.yul\":9900:10022   */\n    tag_173:\n        /* \"#utility.yul\":9973:9997   */\n      tag_296\n        /* \"#utility.yul\":9991:9996   */\n      dup2\n        /* \"#utility.yul\":9973:9997   */\n      tag_156\n      jump\t// in\n    tag_296:\n        /* \"#utility.yul\":9966:9971   */\n      dup2\n        /* \"#utility.yul\":9963:9998   */\n      eq\n        /* \"#utility.yul\":9953:10016   */\n      tag_297\n      jumpi\n        /* \"#utility.yul\":10012:10013   */\n      0x00\n        /* \"#utility.yul\":10009:10010   */\n      0x00\n        /* \"#utility.yul\":10002:10014   */\n      revert\n        /* \"#utility.yul\":9953:10016   */\n    tag_297:\n        /* \"#utility.yul\":9900:10022   */\n      pop\n      jump\t// out\n        /* \"#utility.yul\":10028:10167   */\n    tag_174:\n        /* \"#utility.yul\":10074:10079   */\n      0x00\n        /* \"#utility.yul\":10112:10118   */\n      dup2\n        /* \"#utility.yul\":10099:10119   */\n      calldataload\n        /* \"#utility.yul\":10090:10119   */\n      swap1\n      pop\n        /* \"#utility.yul\":10128:10161   */\n      tag_299\n        /* \"#utility.yul\":10155:10160   */\n      dup2\n        /* \"#utility.yul\":10128:10161   */\n      tag_173\n      jump\t// in\n    tag_299:\n        /* \"#utility.yul\":10028:10167   */\n      swap3\n      swap2\n      pop\n      pop\n      jump\t// out\n        /* \"#utility.yul\":10173:10647   */\n    tag_21:\n        /* \"#utility.yul\":10241:10247   */\n      0x00\n        /* \"#utility.yul\":10249:10255   */\n      0x00\n        /* \"#utility.yul\":10298:10300   */\n      0x40\n        /* \"#utility.yul\":10286:10295   */\n      dup4\n        /* \"#utility.yul\":10277:10284   */\n      dup6\n        /* \"#utility.yul\":10273:10296   */\n      sub\n        /* \"#utility.yul\":10269:10301   */\n      slt\n        /* \"#utility.yul\":10266:10385   */\n      iszero\n      tag_301\n      jumpi\n        /* \"#utility.yul\":10304:10383   */\n      tag_302\n      tag_163\n      jump\t// in\n    tag_302:\n        /* \"#utility.yul\":10266:10385   */\n    tag_301:\n        /* \"#utility.yul\":10424:10425   */\n      0x00\n        /* \"#utility.yul\":10449:10502   */\n      tag_303\n        /* \"#utility.yul\":10494:10501   */\n      dup6\n        /* \"#utility.yul\":10485:10491   */\n      dup3\n        /* \"#utility.yul\":10474:10483   */\n      dup7\n        /* \"#utility.yul\":10470:10492   */\n      add\n        /* \"#utility.yul\":10449:10502   */\n      tag_174\n      jump\t// in\n    tag_303:\n        /* \"#utility.yul\":10439:10502   */\n      swap3\n      pop\n        /* \"#utility.yul\":10395:10512   */\n      pop\n        /* \"#utility.yul\":10551:10553   */\n      0x20\n        /* \"#utility.yul\":10577:10630   */\n      tag_304\n        /* \"#utility.yul\":10622:10629   */\n      dup6\n        /* \"#utility.yul\":10613:10619   */\n      dup3\n        /* \"#utility.yul\":10602:10611   */\n      dup7\n        /* \"#utility.yul\":10598:10620   */\n      add\n        /* \"#utility.yul\":10577:10630   */\n      tag_174\n      jump\t// in\n    tag_304:\n        /* \"#utility.yul\":10567:10630   */\n      swap2\n      pop\n        /* \"#utility.yul\":10522:10640   */\n      pop\n        /* \"#utility.yul\":10173:10647   */\n      swap3\n      pop\n      swap3\n      swap1\n      pop\n      jump\t// out\n        /* \"#utility.yul\":10653:10822   */\n    tag_175:\n        /* \"#utility.yul\":10737:10748   */\n      0x00\n        /* \"#utility.yul\":10771:10777   */\n      dup3\n        /* \"#utility.yul\":10766:10769   */\n      dup3\n        /* \"#utility.yul\":10759:10778   */\n      mstore\n        /* \"#utility.yul\":10811:10815   */\n      0x20\n        /* \"#utility.yul\":10806:10809   */\n      dup3\n        /* \"#utility.yul\":10802:10816   */\n      add\n        /* \"#utility.yul\":10787:10816   */\n      swap1\n      pop\n        /* \"#utility.yul\":10653:10822   */\n      swap3\n      swap2\n      pop\n      pop\n      jump\t// out\n        /* \"#utility.yul\":10828:10998   */\n    tag_176:\n        /* \"#utility.yul\":10968:10990   */\n      0x55736572206e6f7420726567697374657265642e000000000000000000000000\n        /* \"#utility.yul\":10964:10965   */\n      0x00\n        /* \"#utility.yul\":10956:10962   */\n      dup3\n        /* \"#utility.yul\":10952:10966   */\n      add\n        /* \"#utility.yul\":10945:10991   */\n      mstore\n        /* \"#utility.yul\":10828:10998   */\n      pop\n      jump\t// out\n        /* \"#utility.yul\":11004:11370   */\n    tag_177:\n        /* \"#utility.yul\":11146:11149   */\n      0x00\n        /* \"#utility.yul\":11167:11234   */\n      tag_308\n        /* \"#utility.yul\":11231:11233   */\n      0x14\n        /* \"#utility.yul\":11226:11229   */\n      dup4\n        /* \"#utility.yul\":11167:11234   */\n      tag_175\n      jump\t// in\n    tag_308:\n        /* \"#utility.yul\":11160:11234   */\n      swap2\n      pop\n        /* \"#utility.yul\":11243:11336   */\n      tag_309\n        /* \"#utility.yul\":11332:11335   */\n      dup3\n        /* \"#utility.yul\":11243:11336   */\n      tag_176\n      jump\t// in\n    tag_309:\n        /* \"#utility.yul\":11361:11363   */\n      0x20\n        /* \"#utility.yul\":11356:11359   */\n      dup3\n        /* \"#utility.yul\":11352:11364   */\n      add\n        /* \"#utility.yul\":11345:11364   */\n      swap1\n      pop\n        /* \"#utility.yul\":11004:11370   */\n      swap2\n      swap1\n      pop\n      jump\t// out\n        /* \"#utility.yul\":11376:11795   */\n    tag_31:\n        /* \"#utility.yul\":11542:11546   */\n      0x00\n        /* \"#utility.yul\":11580:11582   */\n      0x20\n        /* \"#utility.yul\":11569:11578   */\n      dup3\n        /* \"#utility.yul\":11565:11583   */\n      add\n        /* \"#utility.yul\":11557:11583   */\n      swap1\n      pop\n        /* \"#utility.yul\":11629:11638   */\n      dup2\n        /* \"#utility.yul\":11623:11627   */\n      dup2\n        /* \"#utility.yul\":11619:11639   */\n      sub\n        /* \"#utility.yul\":11615:11616   */\n      0x00\n        /* \"#utility.yul\":11604:11613   */\n      dup4\n        /* \"#utility.yul\":11600:11617   */\n      add\n        /* \"#utility.yul\":11593:11640   */\n      mstore\n        /* \"#utility.yul\":11657:11788   */\n      tag_311\n        /* \"#utility.yul\":11783:11787   */\n      dup2\n        /* \"#utility.yul\":11657:11788   */\n      tag_177\n      jump\t// in\n    tag_311:\n        /* \"#utility.yul\":11649:11788   */\n      swap1\n      pop\n        /* \"#utility.yul\":11376:11795   */\n      swap2\n      swap1\n      pop\n      jump\t// out\n        /* \"#utility.yul\":11801:11981   */\n    tag_178:\n        /* \"#utility.yul\":11849:11926   */\n      0x4e487b7100000000000000000000000000000000000000000000000000000000\n        /* \"#utility.yul\":11846:11847   */\n      0x00\n        /* \"#utility.yul\":11839:11927   */\n      mstore\n        /* \"#utility.yul\":11946:11950   */\n      0x22\n        /* \"#utility.yul\":11943:11944   */\n      0x04\n        /* \"#utility.yul\":11936:11951   */\n      mstore\n        /* \"#utility.yul\":11970:11974   */\n      0x24\n        /* \"#utility.yul\":11967:11968   */\n      0x00\n        /* \"#utility.yul\":11960:11975   */\n      revert\n        /* \"#utility.yul\":11987:12307   */\n    tag_34:\n        /* \"#utility.yul\":12031:12037   */\n      0x00\n        /* \"#utility.yul\":12068:12069   */\n      0x02\n        /* \"#utility.yul\":12062:12066   */\n      dup3\n        /* \"#utility.yul\":12058:12070   */\n      div\n        /* \"#utility.yul\":12048:12070   */\n      swap1\n      pop\n        /* \"#utility.yul\":12115:12116   */\n      0x01\n        /* \"#utility.yul\":12109:12113   */\n      dup3\n        /* \"#utility.yul\":12105:12117   */\n      and\n        /* \"#utility.yul\":12136:12154   */\n      dup1\n        /* \"#utility.yul\":12126:12207   */\n      tag_314\n      jumpi\n        /* \"#utility.yul\":12192:12196   */\n      0x7f\n        /* \"#utility.yul\":12184:12190   */\n      dup3\n        /* \"#utility.yul\":12180:12197   */\n      and\n        /* \"#utility.yul\":12170:12197   */\n      swap2\n      pop\n        /* \"#utility.yul\":12126:12207   */\n    tag_314:\n        /* \"#utility.yul\":12254:12256   */\n      0x20\n        /* \"#utility.yul\":12246:12252   */\n      dup3\n        /* \"#utility.yul\":12243:12257   */\n      lt\n        /* \"#utility.yul\":12223:12241   */\n      dup2\n        /* \"#utility.yul\":12220:12258   */\n      sub\n        /* \"#utility.yul\":12217:12301   */\n      tag_315\n      jumpi\n        /* \"#utility.yul\":12273:12291   */\n      tag_316\n      tag_178\n      jump\t// in\n    tag_316:\n        /* \"#utility.yul\":12217:12301   */\n    tag_315:\n        /* \"#utility.yul\":12038:12307   */\n      pop\n        /* \"#utility.yul\":11987:12307   */\n      swap2\n      swap1\n      pop\n      jump\t// out\n        /* \"#utility.yul\":12313:12487   */\n    tag_179:\n        /* \"#utility.yul\":12453:12479   */\n      0x5573657220616c726561647920726567697374657265642e0000000000000000\n        /* \"#utility.yul\":12449:12450   */\n      0x00\n        /* \"#utility.yul\":12441:12447   */\n      dup3\n        /* \"#utility.yul\":12437:12451   */\n      add\n        /* \"#utility.yul\":12430:12480   */\n      mstore\n        /* \"#utility.yul\":12313:12487   */\n      pop\n      jump\t// out\n        /* \"#utility.yul\":12493:12859   */\n    tag_180:\n        /* \"#utility.yul\":12635:12638   */\n      0x00\n        /* \"#utility.yul\":12656:12723   */\n      tag_319\n        /* \"#utility.yul\":12720:12722   */\n      0x18\n        /* \"#utility.yul\":12715:12718   */\n      dup4\n        /* \"#utility.yul\":12656:12723   */\n      tag_175\n      jump\t// in\n    tag_319:\n        /* \"#utility.yul\":12649:12723   */\n      swap2\n      pop\n        /* \"#utility.yul\":12732:12825   */\n      tag_320\n        /* \"#utility.yul\":12821:12824   */\n      dup3\n        /* \"#utility.yul\":12732:12825   */\n      tag_179\n      jump\t// in\n    tag_320:\n        /* \"#utility.yul\":12850:12852   */\n      0x20\n        /* \"#utility.yul\":12845:12848   */\n      dup3\n        /* \"#utility.yul\":12841:12853   */\n      add\n        /* \"#utility.yul\":12834:12853   */\n      swap1\n      pop\n        /* \"#utility.yul\":12493:12859   */\n      swap2\n      swap1\n      pop\n      jump\t// out\n        /* \"#utility.yul\":12865:13284   */\n    tag_77:\n        /* \"#utility.yul\":13031:13035   */\n      0x00\n        /* \"#utility.yul\":13069:13071   */\n      0x20\n        /* \"#utility.yul\":13058:13067   */\n      dup3\n        /* \"#utility.yul\":13054:13072   */\n      add\n        /* \"#utility.yul\":13046:13072   */\n      swap1\n      pop\n        /* \"#utility.yul\":13118:13127   */\n      dup2\n        /* \"#utility.yul\":13112:13116   */\n      dup2\n        /* \"#utility.yul\":13108:13128   */\n      sub\n        /* \"#utility.yul\":13104:13105   */\n      0x00\n        /* \"#utility.yul\":13093:13102   */\n      dup4\n        /* \"#utility.yul\":13089:13106   */\n      add\n        /* \"#utility.yul\":13082:13129   */\n      mstore\n        /* \"#utility.yul\":13146:13277   */\n      tag_322\n        /* \"#utility.yul\":13272:13276   */\n      dup2\n        /* \"#utility.yul\":13146:13277   */\n      tag_180\n      jump\t// in\n    tag_322:\n        /* \"#utility.yul\":13138:13277   */\n      swap1\n      pop\n        /* \"#utility.yul\":12865:13284   */\n      swap2\n      swap1\n      pop\n      jump\t// out\n        /* \"#utility.yul\":13290:13438   */\n    tag_181:\n        /* \"#utility.yul\":13392:13403   */\n      0x00\n        /* \"#utility.yul\":13429:13432   */\n      dup2\n        /* \"#utility.yul\":13414:13432   */\n      swap1\n      pop\n        /* \"#utility.yul\":13290:13438   */\n      swap3\n      swap2\n      pop\n      pop\n      jump\t// out\n        /* \"#utility.yul\":13444:13834   */\n    tag_182:\n        /* \"#utility.yul\":13550:13553   */\n      0x00\n        /* \"#utility.yul\":13578:13617   */\n      tag_325\n        /* \"#utility.yul\":13611:13616   */\n      dup3\n        /* \"#utility.yul\":13578:13617   */\n      tag_151\n      jump\t// in\n    tag_325:\n        /* \"#utility.yul\":13633:13722   */\n      tag_326\n        /* \"#utility.yul\":13715:13721   */\n      dup2\n        /* \"#utility.yul\":13710:13713   */\n      dup6\n        /* \"#utility.yul\":13633:13722   */\n      tag_181\n      jump\t// in\n    tag_326:\n        /* \"#utility.yul\":13626:13722   */\n      swap4\n      pop\n        /* \"#utility.yul\":13731:13796   */\n      tag_327\n        /* \"#utility.yul\":13789:13795   */\n      dup2\n        /* \"#utility.yul\":13784:13787   */\n      dup6\n        /* \"#utility.yul\":13777:13781   */\n      0x20\n        /* \"#utility.yul\":13770:13775   */\n      dup7\n        /* \"#utility.yul\":13766:13782   */\n      add\n        /* \"#utility.yul\":13731:13796   */\n      tag_153\n      jump\t// in\n    tag_327:\n        /* \"#utility.yul\":13821:13827   */\n      dup1\n        /* \"#utility.yul\":13816:13819   */\n      dup5\n        /* \"#utility.yul\":13812:13828   */\n      add\n        /* \"#utility.yul\":13805:13828   */\n      swap2\n      pop\n        /* \"#utility.yul\":13554:13834   */\n      pop\n        /* \"#utility.yul\":13444:13834   */\n      swap3\n      swap2\n      pop\n      pop\n      jump\t// out\n        /* \"#utility.yul\":13840:13991   */\n    tag_183:\n        /* \"#utility.yul\":13980:13983   */\n      0x5f00000000000000000000000000000000000000000000000000000000000000\n        /* \"#utility.yul\":13976:13977   */\n      0x00\n        /* \"#utility.yul\":13968:13974   */\n      dup3\n        /* \"#utility.yul\":13964:13978   */\n      add\n        /* \"#utility.yul\":13957:13984   */\n      mstore\n        /* \"#utility.yul\":13840:13991   */\n      pop\n      jump\t// out\n        /* \"#utility.yul\":13997:14397   */\n    tag_184:\n        /* \"#utility.yul\":14157:14160   */\n      0x00\n        /* \"#utility.yul\":14178:14262   */\n      tag_330\n        /* \"#utility.yul\":14260:14261   */\n      0x01\n        /* \"#utility.yul\":14255:14258   */\n      dup4\n        /* \"#utility.yul\":14178:14262   */\n      tag_181\n      jump\t// in\n    tag_330:\n        /* \"#utility.yul\":14171:14262   */\n      swap2\n      pop\n        /* \"#utility.yul\":14271:14364   */\n      tag_331\n        /* \"#utility.yul\":14360:14363   */\n      dup3\n        /* \"#utility.yul\":14271:14364   */\n      tag_183\n      jump\t// in\n    tag_331:\n        /* \"#utility.yul\":14389:14390   */\n      0x01\n        /* \"#utility.yul\":14384:14387   */\n      dup3\n        /* \"#utility.yul\":14380:14391   */\n      add\n        /* \"#utility.yul\":14373:14391   */\n      swap1\n      pop\n        /* \"#utility.yul\":13997:14397   */\n      swap2\n      swap1\n      pop\n      jump\t// out\n        /* \"#utility.yul\":14403:15104   */\n    tag_81:\n        /* \"#utility.yul\":14684:14687   */\n      0x00\n        /* \"#utility.yul\":14706:14801   */\n      tag_333\n        /* \"#utility.yul\":14797:14800   */\n      dup3\n        /* \"#utility.yul\":14788:14794   */\n      dup6\n        /* \"#utility.yul\":14706:14801   */\n      tag_182\n      jump\t// in\n    tag_333:\n        /* \"#utility.yul\":14699:14801   */\n      swap2\n      pop\n        /* \"#utility.yul\":14818:14966   */\n      tag_334\n        /* \"#utility.yul\":14962:14965   */\n      dup3\n        /* \"#utility.yul\":14818:14966   */\n      tag_184\n      jump\t// in\n    tag_334:\n        /* \"#utility.yul\":14811:14966   */\n      swap2\n      pop\n        /* \"#utility.yul\":14983:15078   */\n      tag_335\n        /* \"#utility.yul\":15074:15077   */\n      dup3\n        /* \"#utility.yul\":15065:15071   */\n      dup5\n        /* \"#utility.yul\":14983:15078   */\n      tag_182\n      jump\t// in\n    tag_335:\n        /* \"#utility.yul\":14976:15078   */\n      swap2\n      pop\n        /* \"#utility.yul\":15095:15098   */\n      dup2\n        /* \"#utility.yul\":15088:15098   */\n      swap1\n      pop\n        /* \"#utility.yul\":14403:15104   */\n      swap4\n      swap3\n      pop\n      pop\n      pop\n      jump\t// out\n        /* \"#utility.yul\":15110:15251   */\n    tag_185:\n        /* \"#utility.yul\":15159:15163   */\n      0x00\n        /* \"#utility.yul\":15182:15185   */\n      dup2\n        /* \"#utility.yul\":15174:15185   */\n      swap1\n      pop\n        /* \"#utility.yul\":15205:15208   */\n      dup2\n        /* \"#utility.yul\":15202:15203   */\n      0x00\n        /* \"#utility.yul\":15195:15209   */\n      mstore\n        /* \"#utility.yul\":15239:15243   */\n      0x20\n        /* \"#utility.yul\":15236:15237   */\n      0x00\n        /* \"#utility.yul\":15226:15244   */\n      keccak256\n        /* \"#utility.yul\":15218:15244   */\n      swap1\n      pop\n        /* \"#utility.yul\":15110:15251   */\n      swap2\n      swap1\n      pop\n      jump\t// out\n        /* \"#utility.yul\":15257:15350   */\n    tag_186:\n        /* \"#utility.yul\":15294:15300   */\n      0x00\n        /* \"#utility.yul\":15341:15343   */\n      0x20\n        /* \"#utility.yul\":15336:15338   */\n      0x1f\n        /* \"#utility.yul\":15329:15334   */\n      dup4\n        /* \"#utility.yul\":15325:15339   */\n      add\n        /* \"#utility.yul\":15321:15344   */\n      div\n        /* \"#utility.yul\":15311:15344   */\n      swap1\n      pop\n        /* \"#utility.yul\":15257:15350   */\n      swap2\n      swap1\n      pop\n      jump\t// out\n        /* \"#utility.yul\":15356:15463   */\n    tag_187:\n        /* \"#utility.yul\":15400:15408   */\n      0x00\n        /* \"#utility.yul\":15450:15455   */\n      dup3\n        /* \"#utility.yul\":15444:15448   */\n      dup3\n        /* \"#utility.yul\":15440:15456   */\n      shl\n        /* \"#utility.yul\":15419:15456   */\n      swap1\n      pop\n        /* \"#utility.yul\":15356:15463   */\n      swap3\n      swap2\n      pop\n      pop\n      jump\t// out\n        /* \"#utility.yul\":15469:15862   */\n    tag_188:\n        /* \"#utility.yul\":15538:15544   */\n      0x00\n        /* \"#utility.yul\":15588:15589   */\n      0x08\n        /* \"#utility.yul\":15576:15586   */\n      dup4\n        /* \"#utility.yul\":15572:15590   */\n      mul\n        /* \"#utility.yul\":15611:15708   */\n      tag_340\n        /* \"#utility.yul\":15641:15707   */\n      0xffffffffffffffffffffffffffffffffffffffffffffffffffffffffffffffff\n        /* \"#utility.yul\":15630:15639   */\n      dup3\n        /* \"#utility.yul\":15611:15708   */\n      tag_187\n      jump\t// in\n    tag_340:\n        /* \"#utility.yul\":15729:15768   */\n      tag_341\n        /* \"#utility.yul\":15759:15767   */\n      dup7\n        /* \"#utility.yul\":15748:15757   */\n      dup4\n        /* \"#utility.yul\":15729:15768   */\n      tag_187\n      jump\t// in\n    tag_341:\n        /* \"#utility.yul\":15717:15768   */\n      swap6\n      pop\n        /* \"#utility.yul\":15801:15805   */\n      dup1\n        /* \"#utility.yul\":15797:15806   */\n      not\n        /* \"#utility.yul\":15790:15795   */\n      dup5\n        /* \"#utility.yul\":15786:15807   */\n      and\n        /* \"#utility.yul\":15777:15807   */\n      swap4\n      pop\n        /* \"#utility.yul\":15850:15854   */\n      dup1\n        /* \"#utility.yul\":15840:15848   */\n      dup7\n        /* \"#utility.yul\":15836:15855   */\n      and\n        /* \"#utility.yul\":15829:15834   */\n      dup5\n        /* \"#utility.yul\":15826:15856   */\n      or\n        /* \"#utility.yul\":15816:15856   */\n      swap3\n      pop\n        /* \"#utility.yul\":15545:15862   */\n      pop\n      pop\n        /* \"#utility.yul\":15469:15862   */\n      swap4\n      swap3\n      pop\n      pop\n      pop\n      jump\t// out\n        /* \"#utility.yul\":15868:15928   */\n    tag_189:\n        /* \"#utility.yul\":15896:15899   */\n      0x00\n        /* \"#utility.yul\":15917:15922   */\n      dup2\n        /* \"#utility.yul\":15910:15922   */\n      swap1\n      pop\n        /* \"#utility.yul\":15868:15928   */\n      swap2\n      swap1\n      pop\n      jump\t// out\n        /* \"#utility.yul\":15934:16076   */\n    tag_190:\n        /* \"#utility.yul\":15984:15993   */\n      0x00\n        /* \"#utility.yul\":16017:16070   */\n      tag_344\n        /* \"#utility.yul\":16035:16069   */\n      tag_345\n        /* \"#utility.yul\":16044:16068   */\n      tag_346\n        /* \"#utility.yul\":16062:16067   */\n      dup5\n        /* \"#utility.yul\":16044:16068   */\n      tag_156\n      jump\t// in\n    tag_346:\n        /* \"#utility.yul\":16035:16069   */\n      tag_189\n      jump\t// in\n    tag_345:\n        /* \"#utility.yul\":16017:16070   */\n      tag_156\n      jump\t// in\n    tag_344:\n        /* \"#utility.yul\":16004:16070   */\n      swap1\n      pop\n        /* \"#utility.yul\":15934:16076   */\n      swap2\n      swap1\n      pop\n      jump\t// out\n        /* \"#utility.yul\":16082:16157   */\n    tag_191:\n        /* \"#utility.yul\":16125:16128   */\n      0x00\n        /* \"#utility.yul\":16146:16151   */\n      dup2\n        /* \"#utility.yul\":16139:16151   */\n      swap1\n      pop\n        /* \"#utility.yul\":16082:16157   */\n      swap2\n      swap1\n      pop\n      jump\t// out\n        /* \"#utility.yul\":16163:16432   */\n    tag_192:\n        /* \"#utility.yul\":16273:16312   */\n      tag_349\n        /* \"#utility.yul\":16304:16311   */\n      dup4\n        /* \"#utility.yul\":16273:16312   */\n      tag_190\n      jump\t// in\n    tag_349:\n        /* \"#utility.yul\":16334:16425   */\n      tag_350\n        /* \"#utility.yul\":16383:16424   */\n      tag_351\n        /* \"#utility.yul\":16407:16423   */\n      dup3\n        /* \"#utility.yul\":16383:16424   */\n      tag_191\n      jump\t// in\n    tag_351:\n        /* \"#utility.yul\":16375:16381   */\n      dup5\n        /* \"#utility.yul\":16368:16372   */\n      dup5\n        /* \"#utility.yul\":16362:16373   */\n      sload\n        /* \"#utility.yul\":16334:16425   */\n      tag_188\n      jump\t// in\n    tag_350:\n        /* \"#utility.yul\":16328:16332   */\n      dup3\n        /* \"#utility.yul\":16321:16426   */\n      sstore\n        /* \"#utility.yul\":16239:16432   */\n      pop\n        /* \"#utility.yul\":16163:16432   */\n      pop\n      pop\n      pop\n      jump\t// out\n        /* \"#utility.yul\":16438:16511   */\n    tag_193:\n        /* \"#utility.yul\":16483:16486   */\n      0x00\n        /* \"#utility.yul\":16504:16505   */\n      0x00\n        /* \"#utility.yul\":16497:16505   */\n      swap1\n      pop\n        /* \"#utility.yul\":16438:16511   */\n      swap1\n      jump\t// out\n        /* \"#utility.yul\":16517:16706   */\n    tag_194:\n        /* \"#utility.yul\":16594:16626   */\n      tag_354\n      tag_193\n      jump\t// in\n    tag_354:\n        /* \"#utility.yul\":16635:16700   */\n      tag_355\n        /* \"#utility.yul\":16693:16699   */\n      dup2\n        /* \"#utility.yul\":16685:16691   */\n      dup5\n        /* \"#utility.yul\":16679:16683   */\n      dup5\n        /* \"#utility.yul\":16635:16700   */\n      tag_192\n      jump\t// in\n    tag_355:\n        /* \"#utility.yul\":16570:16706   */\n      pop\n        /* \"#utility.yul\":16517:16706   */\n      pop\n      pop\n      jump\t// out\n        /* \"#utility.yul\":16712:16898   */\n    tag_195:\n        /* \"#utility.yul\":16772:16892   */\n    tag_357:\n        /* \"#utility.yul\":16789:16792   */\n      dup2\n        /* \"#utility.yul\":16782:16787   */\n      dup2\n        /* \"#utility.yul\":16779:16793   */\n      lt\n        /* \"#utility.yul\":16772:16892   */\n      iszero\n      tag_359\n      jumpi\n        /* \"#utility.yul\":16843:16882   */\n      tag_360\n        /* \"#utility.yul\":16880:16881   */\n      0x00\n        /* \"#utility.yul\":16873:16878   */\n      dup3\n        /* \"#utility.yul\":16843:16882   */\n      tag_194\n      jump\t// in\n    tag_360:\n        /* \"#utility.yul\":16816:16817   */\n      0x01\n        /* \"#utility.yul\":16809:16814   */\n      dup2\n        /* \"#utility.yul\":16805:16818   */\n      add\n        /* \"#utility.yul\":16796:16818   */\n      swap1\n      pop\n        /* \"#utility.yul\":16772:16892   */\n      jump(tag_357)\n    tag_359:\n        /* \"#utility.yul\":16712:16898   */\n      pop\n      pop\n      jump\t// out\n        /* \"#utility.yul\":16904:17447   */\n    tag_196:\n        /* \"#utility.yul\":17005:17007   */\n      0x1f\n        /* \"#utility.yul\":17000:17003   */\n      dup3\n        /* \"#utility.yul\":16997:17008   */\n      gt\n        /* \"#utility.yul\":16994:17440   */\n      iszero\n      tag_362\n      jumpi\n        /* \"#utility.yul\":17039:17077   */\n      tag_363\n        /* \"#utility.yul\":17071:17076   */\n      dup2\n        /* \"#utility.yul\":17039:17077   */\n      tag_185\n      jump\t// in\n    tag_363:\n        /* \"#utility.yul\":17123:17152   */\n      tag_364\n        /* \"#utility.yul\":17141:17151   */\n      dup5\n        /* \"#utility.yul\":17123:17152   */\n      tag_186\n      jump\t// in\n    tag_364:\n        /* \"#utility.yul\":17113:17121   */\n      dup2\n        /* \"#utility.yul\":17109:17153   */\n      add\n        /* \"#utility.yul\":17306:17308   */\n      0x20\n        /* \"#utility.yul\":17294:17304   */\n      dup6\n        /* \"#utility.yul\":17291:17309   */\n      lt\n        /* \"#utility.yul\":17288:17337   */\n      iszero\n      tag_365\n      jumpi\n        /* \"#utility.yul\":17327:17335   */\n      dup2\n        /* \"#utility.yul\":17312:17335   */\n      swap1\n      pop\n        /* \"#utility.yul\":17288:17337   */\n    tag_365:\n        /* \"#utility.yul\":17350:17430   */\n      tag_366\n        /* \"#utility.yul\":17406:17428   */\n      tag_367\n        /* \"#utility.yul\":17424:17427   */\n      dup6\n        /* \"#utility.yul\":17406:17428   */\n      tag_186\n      jump\t// in\n    tag_367:\n        /* \"#utility.yul\":17396:17404   */\n      dup4\n        /* \"#utility.yul\":17392:17429   */\n      add\n        /* \"#utility.yul\":17379:17390   */\n      dup3\n        /* \"#utility.yul\":17350:17430   */\n      tag_195\n      jump\t// in\n    tag_366:\n        /* \"#utility.yul\":17009:17440   */\n      pop\n      pop\n        /* \"#utility.yul\":16994:17440   */\n    tag_362:\n        /* \"#utility.yul\":16904:17447   */\n      pop\n      pop\n      pop\n      jump\t// out\n        /* \"#utility.yul\":17453:17570   */\n    tag_197:\n        /* \"#utility.yul\":17507:17515   */\n      0x00\n        /* \"#utility.yul\":17557:17562   */\n      dup3\n        /* \"#utility.yul\":17551:17555   */\n      dup3\n        /* \"#utility.yul\":17547:17563   */\n      shr\n        /* \"#utility.yul\":17526:17563   */\n      swap1\n      pop\n        /* \"#utility.yul\":17453:17570   */\n      swap3\n      swap2\n      pop\n      pop\n      jump\t// out\n        /* \"#utility.yul\":17576:17745   */\n    tag_198:\n        /* \"#utility.yul\":17620:17626   */\n      0x00\n        /* \"#utility.yul\":17653:17704   */\n      tag_370\n        /* \"#utility.yul\":17701:17702   */\n      0x00\n        /* \"#utility.yul\":17697:17703   */\n      not\n        /* \"#utility.yul\":17689:17694   */\n      dup5\n        /* \"#utility.yul\":17686:17687   */\n      0x08\n        /* \"#utility.yul\":17682:17695   */\n      mul\n        /* \"#utility.yul\":17653:17704   */\n      tag_197\n      jump\t// in\n    tag_370:\n        /* \"#utility.yul\":17649:17705   */\n      not\n        /* \"#utility.yul\":17734:17738   */\n      dup1\n        /* \"#utility.yul\":17728:17732   */\n      dup4\n        /* \"#utility.yul\":17724:17739   */\n      and\n        /* \"#utility.yul\":17714:17739   */\n      swap2\n      pop\n        /* \"#utility.yul\":17627:17745   */\n      pop\n        /* \"#utility.yul\":17576:17745   */\n      swap3\n      swap2\n      pop\n      pop\n      jump\t// out\n        /* \"#utility.yul\":17750:18045   */\n    tag_199:\n        /* \"#utility.yul\":17826:17830   */\n      0x00\n        /* \"#utility.yul\":17972:18001   */\n      tag_372\n        /* \"#utility.yul\":17997:18000   */\n      dup4\n        /* \"#utility.yul\":17991:17995   */\n      dup4\n        /* \"#utility.yul\":17972:18001   */\n      tag_198\n      jump\t// in\n    tag_372:\n        /* \"#utility.yul\":17964:18001   */\n      swap2\n      pop\n        /* \"#utility.yul\":18034:18037   */\n      dup3\n        /* \"#utility.yul\":18031:18032   */\n      0x02\n        /* \"#utility.yul\":18027:18038   */\n      mul\n        /* \"#utility.yul\":18021:18025   */\n      dup3\n        /* \"#utility.yul\":18018:18039   */\n      or\n        /* \"#utility.yul\":18010:18039   */\n      swap1\n      pop\n        /* \"#utility.yul\":17750:18045   */\n      swap3\n      swap2\n      pop\n      pop\n      jump\t// out\n        /* \"#utility.yul\":18050:19445   */\n    tag_83:\n        /* \"#utility.yul\":18167:18204   */\n      tag_374\n        /* \"#utility.yul\":18200:18203   */\n      dup3\n        /* \"#utility.yul\":18167:18204   */\n      tag_151\n      jump\t// in\n    tag_374:\n        /* \"#utility.yul\":18269:18287   */\n      0xffffffffffffffff\n        /* \"#utility.yul\":18261:18267   */\n      dup2\n        /* \"#utility.yul\":18258:18288   */\n      gt\n        /* \"#utility.yul\":18255:18311   */\n      iszero\n      tag_375\n      jumpi\n        /* \"#utility.yul\":18291:18309   */\n      tag_376\n      tag_139\n      jump\t// in\n    tag_376:\n        /* \"#utility.yul\":18255:18311   */\n    tag_375:\n        /* \"#utility.yul\":18335:18373   */\n      tag_377\n        /* \"#utility.yul\":18367:18371   */\n      dup3\n        /* \"#utility.yul\":18361:18372   */\n      sload\n        /* \"#utility.yul\":18335:18373   */\n      tag_34\n      jump\t// in\n    tag_377:\n        /* \"#utility.yul\":18420:18487   */\n      tag_378\n        /* \"#utility.yul\":18480:18486   */\n      dup3\n        /* \"#utility.yul\":18472:18478   */\n      dup3\n        /* \"#utility.yul\":18466:18470   */\n      dup6\n        /* \"#utility.yul\":18420:18487   */\n      tag_196\n      jump\t// in\n    tag_378:\n        /* \"#utility.yul\":18514:18515   */\n      0x00\n        /* \"#utility.yul\":18538:18542   */\n      0x20\n        /* \"#utility.yul\":18525:18542   */\n      swap1\n      pop\n        /* \"#utility.yul\":18570:18572   */\n      0x1f\n        /* \"#utility.yul\":18562:18568   */\n      dup4\n        /* \"#utility.yul\":18559:18573   */\n      gt\n        /* \"#utility.yul\":18587:18588   */\n      0x01\n        /* \"#utility.yul\":18582:19200   */\n      dup2\n      eq\n      tag_380\n      jumpi\n        /* \"#utility.yul\":19244:19245   */\n      0x00\n        /* \"#utility.yul\":19261:19267   */\n      dup5\n        /* \"#utility.yul\":19258:19335   */\n      iszero\n      tag_381\n      jumpi\n        /* \"#utility.yul\":19310:19319   */\n      dup3\n        /* \"#utility.yul\":19305:19308   */\n      dup8\n        /* \"#utility.yul\":19301:19320   */\n      add\n        /* \"#utility.yul\":19295:19321   */\n      mload\n        /* \"#utility.yul\":19286:19321   */\n      swap1\n      pop\n        /* \"#utility.yul\":19258:19335   */\n    tag_381:\n        /* \"#utility.yul\":19361:19428   */\n      tag_382\n        /* \"#utility.yul\":19421:19427   */\n      dup6\n        /* \"#utility.yul\":19414:19419   */\n      dup3\n        /* \"#utility.yul\":19361:19428   */\n      tag_199\n      jump\t// in\n    tag_382:\n        /* \"#utility.yul\":19355:19359   */\n      dup7\n        /* \"#utility.yul\":19348:19429   */\n      sstore\n        /* \"#utility.yul\":19217:19439   */\n      pop\n        /* \"#utility.yul\":18552:19439   */\n      jump(tag_379)\n        /* \"#utility.yul\":18582:19200   */\n    tag_380:\n        /* \"#utility.yul\":18634:18638   */\n      0x1f\n        /* \"#utility.yul\":18630:18639   */\n      not\n        /* \"#utility.yul\":18622:18628   */\n      dup5\n        /* \"#utility.yul\":18618:18640   */\n      and\n        /* \"#utility.yul\":18668:18705   */\n      tag_383\n        /* \"#utility.yul\":18700:18704   */\n      dup7\n        /* \"#utility.yul\":18668:18705   */\n      tag_185\n      jump\t// in\n    tag_383:\n        /* \"#utility.yul\":18727:18728   */\n      0x00\n        /* \"#utility.yul\":18741:18949   */\n    tag_384:\n        /* \"#utility.yul\":18755:18762   */\n      dup3\n        /* \"#utility.yul\":18752:18753   */\n      dup2\n        /* \"#utility.yul\":18749:18763   */\n      lt\n        /* \"#utility.yul\":18741:18949   */\n      iszero\n      tag_386\n      jumpi\n        /* \"#utility.yul\":18834:18843   */\n      dup5\n        /* \"#utility.yul\":18829:18832   */\n      dup10\n        /* \"#utility.yul\":18825:18844   */\n      add\n        /* \"#utility.yul\":18819:18845   */\n      mload\n        /* \"#utility.yul\":18811:18817   */\n      dup3\n        /* \"#utility.yul\":18804:18846   */\n      sstore\n        /* \"#utility.yul\":18885:18886   */\n      0x01\n        /* \"#utility.yul\":18877:18883   */\n      dup3\n        /* \"#utility.yul\":18873:18887   */\n      add\n        /* \"#utility.yul\":18863:18887   */\n      swap2\n      pop\n        /* \"#utility.yul\":18932:18934   */\n      0x20\n        /* \"#utility.yul\":18921:18930   */\n      dup6\n        /* \"#utility.yul\":18917:18935   */\n      add\n        /* \"#utility.yul\":18904:18935   */\n      swap5\n      pop\n        /* \"#utility.yul\":18778:18782   */\n      0x20\n        /* \"#utility.yul\":18775:18776   */\n      dup2\n        /* \"#utility.yul\":18771:18783   */\n      add\n        /* \"#utility.yul\":18766:18783   */\n      swap1\n      pop\n        /* \"#utility.yul\":18741:18949   */\n      jump(tag_384)\n    tag_386:\n        /* \"#utility.yul\":18977:18983   */\n      dup7\n        /* \"#utility.yul\":18968:18975   */\n      dup4\n        /* \"#utility.yul\":18965:18984   */\n      lt\n        /* \"#utility.yul\":18962:19141   */\n      iszero\n      tag_387\n      jumpi\n        /* \"#utility.yul\":19035:19044   */\n      dup5\n        /* \"#utility.yul\":19030:19033   */\n      dup10\n        /* \"#utility.yul\":19026:19045   */\n      add\n        /* \"#utility.yul\":19020:19046   */\n      mload\n        /* \"#utility.yul\":19078:19126   */\n      tag_388\n        /* \"#utility.yul\":19120:19124   */\n      0x1f\n        /* \"#utility.yul\":19112:19118   */\n      dup10\n        /* \"#utility.yul\":19108:19125   */\n      and\n        /* \"#utility.yul\":19097:19106   */\n      dup3\n        /* \"#utility.yul\":19078:19126   */\n      tag_198\n      jump\t// in\n    tag_388:\n        /* \"#utility.yul\":19070:19076   */\n      dup4\n        /* \"#utility.yul\":19063:19127   */\n      sstore\n        /* \"#utility.yul\":18985:19141   */\n      pop\n        /* \"#utility.yul\":18962:19141   */\n    tag_387:\n        /* \"#utility.yul\":19187:19188   */\n      0x01\n        /* \"#utility.yul\":19183:19184   */\n      0x02\n        /* \"#utility.yul\":19175:19181   */\n      dup9\n        /* \"#utility.yul\":19171:19185   */\n      mul\n        /* \"#utility.yul\":19167:19189   */\n      add\n        /* \"#utility.yul\":19161:19165   */\n      dup9\n        /* \"#utility.yul\":19154:19190   */\n      sstore\n        /* \"#utility.yul\":18589:19200   */\n      pop\n      pop\n      pop\n        /* \"#utility.yul\":18552:19439   */\n    tag_379:\n      pop\n        /* \"#utility.yul\":18142:19445   */\n      pop\n      pop\n      pop\n        /* \"#utility.yul\":18050:19445   */\n      pop\n      pop\n      jump\t// out\n        /* \"#utility.yul\":19451:19828   */\n    tag_200:\n        /* \"#utility.yul\":19539:19542   */\n      0x00\n        /* \"#utility.yul\":19567:19606   */\n      tag_390\n        /* \"#utility.yul\":19600:19605   */\n      dup3\n        /* \"#utility.yul\":19567:19606   */\n      tag_151\n      jump\t// in\n    tag_390:\n        /* \"#utility.yul\":19622:19693   */\n      tag_391\n        /* \"#utility.yul\":19686:19692   */\n      dup2\n        /* \"#utility.yul\":19681:19684   */\n      dup6\n        /* \"#utility.yul\":19622:19693   */\n      tag_175\n      jump\t// in\n    tag_391:\n        /* \"#utility.yul\":19615:19693   */\n      swap4\n      pop\n        /* \"#utility.yul\":19702:19767   */\n      tag_392\n        /* \"#utility.yul\":19760:19766   */\n      dup2\n        /* \"#utility.yul\":19755:19758   */\n      dup6\n        /* \"#utility.yul\":19748:19752   */\n      0x20\n        /* \"#utility.yul\":19741:19746   */\n      dup7\n        /* \"#utility.yul\":19737:19753   */\n      add\n        /* \"#utility.yul\":19702:19767   */\n      tag_153\n      jump\t// in\n    tag_392:\n        /* \"#utility.yul\":19792:19821   */\n      tag_393\n        /* \"#utility.yul\":19814:19820   */\n      dup2\n        /* \"#utility.yul\":19792:19821   */\n      tag_154\n      jump\t// in\n    tag_393:\n        /* \"#utility.yul\":19787:19790   */\n      dup5\n        /* \"#utility.yul\":19783:19822   */\n      add\n        /* \"#utility.yul\":19776:19822   */\n      swap2\n      pop\n        /* \"#utility.yul\":19543:19828   */\n      pop\n        /* \"#utility.yul\":19451:19828   */\n      swap3\n      swap2\n      pop\n      pop\n      jump\t// out\n        /* \"#utility.yul\":19834:20147   */\n    tag_92:\n        /* \"#utility.yul\":19947:19951   */\n      0x00\n        /* \"#utility.yul\":19985:19987   */\n      0x20\n        /* \"#utility.yul\":19974:19983   */\n      dup3\n        /* \"#utility.yul\":19970:19988   */\n      add\n        /* \"#utility.yul\":19962:19988   */\n      swap1\n      pop\n        /* \"#utility.yul\":20034:20043   */\n      dup2\n        /* \"#utility.yul\":20028:20032   */\n      dup2\n        /* \"#utility.yul\":20024:20044   */\n      sub\n        /* \"#utility.yul\":20020:20021   */\n      0x00\n        /* \"#utility.yul\":20009:20018   */\n      dup4\n        /* \"#utility.yul\":20005:20022   */\n      add\n        /* \"#utility.yul\":19998:20045   */\n      mstore\n        /* \"#utility.yul\":20062:20140   */\n      tag_395\n        /* \"#utility.yul\":20135:20139   */\n      dup2\n        /* \"#utility.yul\":20126:20132   */\n      dup5\n        /* \"#utility.yul\":20062:20140   */\n      tag_200\n      jump\t// in\n    tag_395:\n        /* \"#utility.yul\":20054:20140   */\n      swap1\n      pop\n        /* \"#utility.yul\":19834:20147   */\n      swap3\n      swap2\n      pop\n      pop\n      jump\t// out\n        /* \"#utility.yul\":20177:21008   */\n    tag_201:\n        /* \"#utility.yul\":20262:20265   */\n      0x00\n        /* \"#utility.yul\":20299:20304   */\n      dup2\n        /* \"#utility.yul\":20293:20305   */\n      sload\n        /* \"#utility.yul\":20328:20364   */\n      tag_397\n        /* \"#utility.yul\":20354:20363   */\n      dup2\n        /* \"#utility.yul\":20328:20364   */\n      tag_34\n      jump\t// in\n    tag_397:\n        /* \"#utility.yul\":20380:20451   */\n      tag_398\n        /* \"#utility.yul\":20444:20450   */\n      dup2\n        /* \"#utility.yul\":20439:20442   */\n      dup7\n        /* \"#utility.yul\":20380:20451   */\n      tag_175\n      jump\t// in\n    tag_398:\n        /* \"#utility.yul\":20373:20451   */\n      swap5\n      pop\n        /* \"#utility.yul\":20482:20483   */\n      0x01\n        /* \"#utility.yul\":20471:20480   */\n      dup3\n        /* \"#utility.yul\":20467:20484   */\n      and\n        /* \"#utility.yul\":20498:20499   */\n      0x00\n        /* \"#utility.yul\":20493:20657   */\n      dup2\n      eq\n      tag_400\n      jumpi\n        /* \"#utility.yul\":20671:20672   */\n      0x01\n        /* \"#utility.yul\":20666:21002   */\n      dup2\n      eq\n      tag_401\n      jumpi\n        /* \"#utility.yul\":20460:21002   */\n      jump(tag_399)\n        /* \"#utility.yul\":20493:20657   */\n    tag_400:\n        /* \"#utility.yul\":20577:20581   */\n      0xff\n        /* \"#utility.yul\":20573:20582   */\n      not\n        /* \"#utility.yul\":20562:20571   */\n      dup4\n        /* \"#utility.yul\":20558:20583   */\n      and\n        /* \"#utility.yul\":20553:20556   */\n      dup7\n        /* \"#utility.yul\":20546:20584   */\n      mstore\n        /* \"#utility.yul\":20637:20643   */\n      dup2\n        /* \"#utility.yul\":20630:20644   */\n      iszero\n        /* \"#utility.yul\":20623:20645   */\n      iszero\n        /* \"#utility.yul\":20617:20621   */\n      0x20\n        /* \"#utility.yul\":20613:20646   */\n      mul\n        /* \"#utility.yul\":20608:20611   */\n      dup7\n        /* \"#utility.yul\":20604:20647   */\n      add\n        /* \"#utility.yul\":20597:20647   */\n      swap4\n      pop\n        /* \"#utility.yul\":20493:20657   */\n      jump(tag_399)\n        /* \"#utility.yul\":20666:21002   */\n    tag_401:\n        /* \"#utility.yul\":20733:20771   */\n      tag_402\n        /* \"#utility.yul\":20765:20770   */\n      dup6\n        /* \"#utility.yul\":20733:20771   */\n      tag_185\n      jump\t// in\n    tag_402:\n        /* \"#utility.yul\":20793:20794   */\n      0x00\n        /* \"#utility.yul\":20807:20961   */\n    tag_403:\n        /* \"#utility.yul\":20821:20827   */\n      dup4\n        /* \"#utility.yul\":20818:20819   */\n      dup2\n        /* \"#utility.yul\":20815:20828   */\n      lt\n        /* \"#utility.yul\":20807:20961   */\n      iszero\n      tag_405\n      jumpi\n        /* \"#utility.yul\":20895:20902   */\n      dup2\n        /* \"#utility.yul\":20889:20903   */\n      sload\n        /* \"#utility.yul\":20885:20886   */\n      dup2\n        /* \"#utility.yul\":20880:20883   */\n      dup10\n        /* \"#utility.yul\":20876:20887   */\n      add\n        /* \"#utility.yul\":20869:20904   */\n      mstore\n        /* \"#utility.yul\":20945:20946   */\n      0x01\n        /* \"#utility.yul\":20936:20943   */\n      dup3\n        /* \"#utility.yul\":20932:20947   */\n      add\n        /* \"#utility.yul\":20921:20947   */\n      swap2\n      pop\n        /* \"#utility.yul\":20843:20847   */\n      0x20\n        /* \"#utility.yul\":20840:20841   */\n      dup2\n        /* \"#utility.yul\":20836:20848   */\n      add\n        /* \"#utility.yul\":20831:20848   */\n      swap1\n      pop\n        /* \"#utility.yul\":20807:20961   */\n      jump(tag_403)\n    tag_405:\n        /* \"#utility.yul\":20990:20991   */\n      dup1\n        /* \"#utility.yul\":20985:20988   */\n      dup9\n        /* \"#utility.yul\":20981:20992   */\n      add\n        /* \"#utility.yul\":20974:20992   */\n      swap6\n      pop\n        /* \"#utility.yul\":20673:21002   */\n      pop\n      pop\n        /* \"#utility.yul\":20460:21002   */\n    tag_399:\n      pop\n        /* \"#utility.yul\":20266:21008   */\n      pop\n      pop\n        /* \"#utility.yul\":20177:21008   */\n      swap3\n      swap2\n      pop\n      pop\n      jump\t// out\n        /* \"#utility.yul\":21014:21321   */\n    tag_105:\n        /* \"#utility.yul\":21124:21128   */\n      0x00\n        /* \"#utility.yul\":21162:21164   */\n      0x20\n        /* \"#utility.yul\":21151:21160   */\n      dup3\n        /* \"#utility.yul\":21147:21165   */\n      add\n        /* \"#utility.yul\":21139:21165   */\n      swap1\n      pop\n        /* \"#utility.yul\":21211:21220   */\n      dup2\n        /* \"#utility.yul\":21205:21209   */\n      dup2\n        /* \"#utility.yul\":21201:21221   */\n      sub\n        /* \"#utility.yul\":21197:21198   */\n      0x00\n        /* \"#utility.yul\":21186:21195   */\n      dup4\n        /* \"#utility.yul\":21182:21199   */\n      add\n        /* \"#utility.yul\":21175:21222   */\n      mstore\n        /* \"#utility.yul\":21239:21314   */\n      tag_407\n        /* \"#utility.yul\":21309:21313   */\n      dup2\n        /* \"#utility.yul\":21300:21306   */\n      dup5\n        /* \"#utility.yul\":21239:21314   */\n      tag_201\n      jump\t// in\n    tag_407:\n        /* \"#utility.yul\":21231:21314   */\n      swap1\n      pop\n        /* \"#utility.yul\":21014:21321   */\n      swap3\n      swap2\n      pop\n      pop\n      jump\t// out\n        /* \"#utility.yul\":21327:21500   */\n    tag_202:\n        /* \"#utility.yul\":21467:21492   */\n      0x496e73756666696369656e74204c5620706f696e74732e000000000000000000\n        /* \"#utility.yul\":21463:21464   */\n      0x00\n        /* \"#utility.yul\":21455:21461   */\n      dup3\n        /* \"#utility.yul\":21451:21465   */\n      add\n        /* \"#utility.yul\":21444:21493   */\n      mstore\n        /* \"#utility.yul\":21327:21500   */\n      pop\n      jump\t// out\n        /* \"#utility.yul\":21506:21872   */\n    tag_203:\n        /* \"#utility.yul\":21648:21651   */\n      0x00\n        /* \"#utility.yul\":21669:21736   */\n      tag_410\n        /* \"#utility.yul\":21733:21735   */\n      0x17\n        /* \"#utility.yul\":21728:21731   */\n      dup4\n        /* \"#utility.yul\":21669:21736   */\n      tag_175\n      jump\t// in\n    tag_410:\n        /* \"#utility.yul\":21662:21736   */\n      swap2\n      pop\n        /* \"#utility.yul\":21745:21838   */\n      tag_411\n        /* \"#utility.yul\":21834:21837   */\n      dup3\n        /* \"#utility.yul\":21745:21838   */\n      tag_202\n      jump\t// in\n    tag_411:\n        /* \"#utility.yul\":21863:21865   */\n      0x20\n        /* \"#utility.yul\":21858:21861   */\n      dup3\n        /* \"#utility.yul\":21854:21866   */\n      add\n        /* \"#utility.yul\":21847:21866   */\n      swap1\n      pop\n        /* \"#utility.yul\":21506:21872   */\n      swap2\n      swap1\n      pop\n      jump\t// out\n        /* \"#utility.yul\":21878:22297   */\n    tag_112:\n        /* \"#utility.yul\":22044:22048   */\n      0x00\n        /* \"#utility.yul\":22082:22084   */\n      0x20\n        /* \"#utility.yul\":22071:22080   */\n      dup3\n        /* \"#utility.yul\":22067:22085   */\n      add\n        /* \"#utility.yul\":22059:22085   */\n      swap1\n      pop\n        /* \"#utility.yul\":22131:22140   */\n      dup2\n        /* \"#utility.yul\":22125:22129   */\n      dup2\n        /* \"#utility.yul\":22121:22141   */\n      sub\n        /* \"#utility.yul\":22117:22118   */\n      0x00\n        /* \"#utility.yul\":22106:22115   */\n      dup4\n        /* \"#utility.yul\":22102:22119   */\n      add\n        /* \"#utility.yul\":22095:22142   */\n      mstore\n        /* \"#utility.yul\":22159:22290   */\n      tag_413\n        /* \"#utility.yul\":22285:22289   */\n      dup2\n        /* \"#utility.yul\":22159:22290   */\n      tag_203\n      jump\t// in\n    tag_413:\n        /* \"#utility.yul\":22151:22290   */\n      swap1\n      pop\n        /* \"#utility.yul\":21878:22297   */\n      swap2\n      swap1\n      pop\n      jump\t// out\n        /* \"#utility.yul\":22303:22476   */\n    tag_204:\n        /* \"#utility.yul\":22443:22468   */\n      0x496e73756666696369656e7420474720706f696e74732e000000000000000000\n        /* \"#utility.yul\":22439:22440   */\n      0x00\n        /* \"#utility.yul\":22431:22437   */\n      dup3\n        /* \"#utility.yul\":22427:22441   */\n      add\n        /* \"#utility.yul\":22420:22469   */\n      mstore\n        /* \"#utility.yul\":22303:22476   */\n      pop\n      jump\t// out\n        /* \"#utility.yul\":22482:22848   */\n    tag_205:\n        /* \"#utility.yul\":22624:22627   */\n      0x00\n        /* \"#utility.yul\":22645:22712   */\n      tag_416\n        /* \"#utility.yul\":22709:22711   */\n      0x17\n        /* \"#utility.yul\":22704:22707   */\n      dup4\n        /* \"#utility.yul\":22645:22712   */\n      tag_175\n      jump\t// in\n    tag_416:\n        /* \"#utility.yul\":22638:22712   */\n      swap2\n      pop\n        /* \"#utility.yul\":22721:22814   */\n      tag_417\n        /* \"#utility.yul\":22810:22813   */\n      dup3\n        /* \"#utility.yul\":22721:22814   */\n      tag_204\n      jump\t// in\n    tag_417:\n        /* \"#utility.yul\":22839:22841   */\n      0x20\n        /* \"#utility.yul\":22834:22837   */\n      dup3\n        /* \"#utility.yul\":22830:22842   */\n      add\n        /* \"#utility.yul\":22823:22842   */\n      swap1\n      pop\n        /* \"#utility.yul\":22482:22848   */\n      swap2\n      swap1\n      pop\n      jump\t// out\n        /* \"#utility.yul\":22854:23273   */\n    tag_115:\n        /* \"#utility.yul\":23020:23024   */\n      0x00\n        /* \"#utility.yul\":23058:23060   */\n      0x20\n        /* \"#utility.yul\":23047:23056   */\n      dup3\n        /* \"#utility.yul\":23043:23061   */\n      add\n        /* \"#utility.yul\":23035:23061   */\n      swap1\n      pop\n        /* \"#utility.yul\":23107:23116   */\n      dup2\n        /* \"#utility.yul\":23101:23105   */\n      dup2\n        /* \"#utility.yul\":23097:23117   */\n      sub\n        /* \"#utility.yul\":23093:23094   */\n      0x00\n        /* \"#utility.yul\":23082:23091   */\n      dup4\n        /* \"#utility.yul\":23078:23095   */\n      add\n        /* \"#utility.yul\":23071:23118   */\n      mstore\n        /* \"#utility.yul\":23135:23266   */\n      tag_419\n        /* \"#utility.yul\":23261:23265   */\n      dup2\n        /* \"#utility.yul\":23135:23266   */\n      tag_205\n      jump\t// in\n    tag_419:\n        /* \"#utility.yul\":23127:23266   */\n      swap1\n      pop\n        /* \"#utility.yul\":22854:23273   */\n      swap2\n      swap1\n      pop\n      jump\t// out\n        /* \"#utility.yul\":23279:23459   */\n    tag_206:\n        /* \"#utility.yul\":23327:23404   */\n      0x4e487b7100000000000000000000000000000000000000000000000000000000\n        /* \"#utility.yul\":23324:23325   */\n      0x00\n        /* \"#utility.yul\":23317:23405   */\n      mstore\n        /* \"#utility.yul\":23424:23428   */\n      0x11\n        /* \"#utility.yul\":23421:23422   */\n      0x04\n        /* \"#utility.yul\":23414:23429   */\n      mstore\n        /* \"#utility.yul\":23448:23452   */\n      0x24\n        /* \"#utility.yul\":23445:23446   */\n      0x00\n        /* \"#utility.yul\":23438:23453   */\n      revert\n        /* \"#utility.yul\":23465:23659   */\n    tag_117:\n        /* \"#utility.yul\":23505:23509   */\n      0x00\n        /* \"#utility.yul\":23525:23545   */\n      tag_422\n        /* \"#utility.yul\":23543:23544   */\n      dup3\n        /* \"#utility.yul\":23525:23545   */\n      tag_156\n      jump\t// in\n    tag_422:\n        /* \"#utility.yul\":23520:23545   */\n      swap2\n      pop\n        /* \"#utility.yul\":23559:23579   */\n      tag_423\n        /* \"#utility.yul\":23577:23578   */\n      dup4\n        /* \"#utility.yul\":23559:23579   */\n      tag_156\n      jump\t// in\n    tag_423:\n        /* \"#utility.yul\":23554:23579   */\n      swap3\n      pop\n        /* \"#utility.yul\":23603:23604   */\n      dup3\n        /* \"#utility.yul\":23600:23601   */\n      dup3\n        /* \"#utility.yul\":23596:23605   */\n      sub\n        /* \"#utility.yul\":23588:23605   */\n      swap1\n      pop\n        /* \"#utility.yul\":23627:23628   */\n      dup2\n        /* \"#utility.yul\":23621:23625   */\n      dup2\n        /* \"#utility.yul\":23618:23629   */\n      gt\n        /* \"#utility.yul\":23615:23652   */\n      iszero\n      tag_424\n      jumpi\n        /* \"#utility.yul\":23632:23650   */\n      tag_425\n      tag_206\n      jump\t// in\n    tag_425:\n        /* \"#utility.yul\":23615:23652   */\n    tag_424:\n        /* \"#utility.yul\":23465:23659   */\n      swap3\n      swap2\n      pop\n      pop\n      jump\t// out\n        /* \"#utility.yul\":23665:23783   */\n    tag_207:\n        /* \"#utility.yul\":23752:23776   */\n      tag_427\n        /* \"#utility.yul\":23770:23775   */\n      dup2\n        /* \"#utility.yul\":23752:23776   */\n      tag_156\n      jump\t// in\n    tag_427:\n        /* \"#utility.yul\":23747:23750   */\n      dup3\n        /* \"#utility.yul\":23740:23777   */\n      mstore\n        /* \"#utility.yul\":23665:23783   */\n      pop\n      pop\n      jump\t// out\n        /* \"#utility.yul\":23789:24121   */\n    tag_120:\n        /* \"#utility.yul\":23910:23914   */\n      0x00\n        /* \"#utility.yul\":23948:23950   */\n      0x40\n        /* \"#utility.yul\":23937:23946   */\n      dup3\n        /* \"#utility.yul\":23933:23951   */\n      add\n        /* \"#utility.yul\":23925:23951   */\n      swap1\n      pop\n        /* \"#utility.yul\":23961:24032   */\n      tag_429\n        /* \"#utility.yul\":24029:24030   */\n      0x00\n        /* \"#utility.yul\":24018:24027   */\n      dup4\n        /* \"#utility.yul\":24014:24031   */\n      add\n        /* \"#utility.yul\":24005:24011   */\n      dup6\n        /* \"#utility.yul\":23961:24032   */\n      tag_207\n      jump\t// in\n    tag_429:\n        /* \"#utility.yul\":24042:24114   */\n      tag_430\n        /* \"#utility.yul\":24110:24112   */\n      0x20\n        /* \"#utility.yul\":24099:24108   */\n      dup4\n        /* \"#utility.yul\":24095:24113   */\n      add\n        /* \"#utility.yul\":24086:24092   */\n      dup5\n        /* \"#utility.yul\":24042:24114   */\n      tag_207\n      jump\t// in\n    tag_430:\n        /* \"#utility.yul\":23789:24121   */\n      swap4\n      swap3\n      pop\n      pop\n      pop\n      jump\t// out\n        /* \"#utility.yul\":24127:24318   */\n    tag_126:\n        /* \"#utility.yul\":24167:24170   */\n      0x00\n        /* \"#utility.yul\":24186:24206   */\n      tag_432\n        /* \"#utility.yul\":24204:24205   */\n      dup3\n        /* \"#utility.yul\":24186:24206   */\n      tag_156\n      jump\t// in\n    tag_432:\n        /* \"#utility.yul\":24181:24206   */\n      swap2\n      pop\n        /* \"#utility.yul\":24220:24240   */\n      tag_433\n        /* \"#utility.yul\":24238:24239   */\n      dup4\n        /* \"#utility.yul\":24220:24240   */\n      tag_156\n      jump\t// in\n    tag_433:\n        /* \"#utility.yul\":24215:24240   */\n      swap3\n      pop\n        /* \"#utility.yul\":24263:24264   */\n      dup3\n        /* \"#utility.yul\":24260:24261   */\n      dup3\n        /* \"#utility.yul\":24256:24265   */\n      add\n        /* \"#utility.yul\":24249:24265   */\n      swap1\n      pop\n        /* \"#utility.yul\":24284:24287   */\n      dup1\n        /* \"#utility.yul\":24281:24282   */\n      dup3\n        /* \"#utility.yul\":24278:24288   */\n      gt\n        /* \"#utility.yul\":24275:24311   */\n      iszero\n      tag_434\n      jumpi\n        /* \"#utility.yul\":24291:24309   */\n      tag_435\n      tag_206\n      jump\t// in\n    tag_435:\n        /* \"#utility.yul\":24275:24311   */\n    tag_434:\n        /* \"#utility.yul\":24127:24318   */\n      swap3\n      swap2\n      pop\n      pop\n      jump\t// out\n        /* \"#utility.yul\":24324:24557   */\n    tag_134:\n        /* \"#utility.yul\":24363:24366   */\n      0x00\n        /* \"#utility.yul\":24386:24410   */\n      tag_437\n        /* \"#utility.yul\":24404:24409   */\n      dup3\n        /* \"#utility.yul\":24386:24410   */\n      tag_156\n      jump\t// in\n    tag_437:\n        /* \"#utility.yul\":24377:24410   */\n      swap2\n      pop\n        /* \"#utility.yul\":24432:24498   */\n      0xffffffffffffffffffffffffffffffffffffffffffffffffffffffffffffffff\n        /* \"#utility.yul\":24425:24430   */\n      dup3\n        /* \"#utility.yul\":24422:24499   */\n      sub\n        /* \"#utility.yul\":24419:24522   */\n      tag_438\n      jumpi\n        /* \"#utility.yul\":24502:24520   */\n      tag_439\n      tag_206\n      jump\t// in\n    tag_439:\n        /* \"#utility.yul\":24419:24522   */\n    tag_438:\n        /* \"#utility.yul\":24549:24550   */\n      0x01\n        /* \"#utility.yul\":24542:24547   */\n      dup3\n        /* \"#utility.yul\":24538:24551   */\n      add\n        /* \"#utility.yul\":24531:24551   */\n      swap1\n      pop\n        /* \"#utility.yul\":24324:24557   */\n      swap2\n      swap1\n      pop\n      jump\t// out\n        /* \"#utility.yul\":24563:24743   */\n    tag_208:\n        /* \"#utility.yul\":24611:24688   */\n      0x4e487b7100000000000000000000000000000000000000000000000000000000\n        /* \"#utility.yul\":24608:24609   */\n      0x00\n        /* \"#utility.yul\":24601:24689   */\n      mstore\n        /* \"#utility.yul\":24708:24712   */\n      0x12\n        /* \"#utility.yul\":24705:24706   */\n      0x04\n        /* \"#utility.yul\":24698:24713   */\n      mstore\n        /* \"#utility.yul\":24732:24736   */\n      0x24\n        /* \"#utility.yul\":24729:24730   */\n      0x00\n        /* \"#utility.yul\":24722:24737   */\n      revert\n        /* \"#utility.yul\":24749:24934   */\n    tag_136:\n        /* \"#utility.yul\":24789:24790   */\n      0x00\n        /* \"#utility.yul\":24806:24826   */\n      tag_442\n        /* \"#utility.yul\":24824:24825   */\n      dup3\n        /* \"#utility.yul\":24806:24826   */\n      tag_156\n      jump\t// in\n    tag_442:\n        /* \"#utility.yul\":24801:24826   */\n      swap2\n      pop\n        /* \"#utility.yul\":24840:24860   */\n      tag_443\n        /* \"#utility.yul\":24858:24859   */\n      dup4\n        /* \"#utility.yul\":24840:24860   */\n      tag_156\n      jump\t// in\n    tag_443:\n        /* \"#utility.yul\":24835:24860   */\n      swap3\n      pop\n        /* \"#utility.yul\":24879:24880   */\n      dup3\n        /* \"#utility.yul\":24869:24904   */\n      tag_444\n      jumpi\n        /* \"#utility.yul\":24884:24902   */\n      tag_445\n      tag_208\n      jump\t// in\n    tag_445:\n        /* \"#utility.yul\":24869:24904   */\n    tag_444:\n        /* \"#utility.yul\":24926:24927   */\n      dup3\n        /* \"#utility.yul\":24923:24924   */\n      dup3\n        /* \"#utility.yul\":24919:24928   */\n      div\n        /* \"#utility.yul\":24914:24928   */\n      swap1\n      pop\n        /* \"#utility.yul\":24749:24934   */\n      swap3\n      swap2\n      pop\n      pop\n      jump\t// out\n        /* \"#utility.yul\":24940:25116   */\n    tag_145:\n        /* \"#utility.yul\":24972:24973   */\n      0x00\n        /* \"#utility.yul\":24989:25009   */\n      tag_447\n        /* \"#utility.yul\":25007:25008   */\n      dup3\n        /* \"#utility.yul\":24989:25009   */\n      tag_156\n      jump\t// in\n    tag_447:\n        /* \"#utility.yul\":24984:25009   */\n      swap2\n      pop\n        /* \"#utility.yul\":25023:25043   */\n      tag_448\n        /* \"#utility.yul\":25041:25042   */\n      dup4\n        /* \"#utility.yul\":25023:25043   */\n      tag_156\n      jump\t// in\n    tag_448:\n        /* \"#utility.yul\":25018:25043   */\n      swap3\n      pop\n        /* \"#utility.yul\":25062:25063   */\n      dup3\n        /* \"#utility.yul\":25052:25087   */\n      tag_449\n      jumpi\n        /* \"#utility.yul\":25067:25085   */\n      tag_450\n      tag_208\n      jump\t// in\n    tag_450:\n        /* \"#utility.yul\":25052:25087   */\n    tag_449:\n        /* \"#utility.yul\":25108:25109   */\n      dup3\n        /* \"#utility.yul\":25105:25106   */\n      dup3\n        /* \"#utility.yul\":25101:25110   */\n      mod\n        /* \"#utility.yul\":25096:25110   */\n      swap1\n      pop\n        /* \"#utility.yul\":24940:25116   */\n      swap3\n      swap2\n      pop\n      pop\n      jump\t// out\n        /* \"#utility.yul\":25122:25302   */\n    tag_149:\n        /* \"#utility.yul\":25170:25247   */\n      0x4e487b7100000000000000000000000000000000000000000000000000000000\n        /* \"#utility.yul\":25167:25168   */\n      0x00\n        /* \"#utility.yul\":25160:25248   */\n      mstore\n        /* \"#utility.yul\":25267:25271   */\n      0x32\n        /* \"#utility.yul\":25264:25265   */\n      0x04\n        /* \"#utility.yul\":25257:25272   */\n      mstore\n        /* \"#utility.yul\":25291:25295   */\n      0x24\n        /* \"#utility.yul\":25288:25289   */\n      0x00\n        /* \"#utility.yul\":25281:25296   */\n      revert\n\n    auxdata: 0xa2646970667358221220c4cd3cb602d7609371e8aa5e9522762a6ad5909c209d38c912383e3c7fb3c6ea64736f6c634300081c0033\n}\n",
				"bytecode": {
					"linkReferences": {},
					"object": "6080604052348015600e575f5ffd5b50611def8061001c5f395ff3fe608060405234801561000f575f5ffd5b5060043610610055575f3560e01c80636f61c7441461005957806370e997e214610077578063de09556014610093578063e0794800146100af578063fe4651a0146100cb575b5f5ffd5b6100616100e7565b60405161006e91906112a2565b60405180910390f35b610091600480360381019061008c91906113ff565b6106c1565b005b6100ad60048036038101906100a891906113ff565b6109f2565b005b6100c960048036038101906100c4919061158a565b610b92565b005b6100e560048036038101906100e0919061158a565b610d71565b005b6100ef61101b565b60015f3373ffffffffffffffffffffffffffffffffffffffff1673ffffffffffffffffffffffffffffffffffffffff1681526020019081526020015f205f9054906101000a900460ff16610178576040517f08c379a000000000000000000000000000000000000000000000000000000000815260040161016f90611622565b60405180910390fd5b5f5f3373ffffffffffffffffffffffffffffffffffffffff1673ffffffffffffffffffffffffffffffffffffffff1681526020019081526020015f20604051806101a00160405290815f820180546101cf9061166d565b80601f01602080910402602001604051908101604052809291908181526020018280546101fb9061166d565b80156102465780601f1061021d57610100808354040283529160200191610246565b820191905f5260205f20905b81548152906001019060200180831161022957829003601f168201915b5050505050815260200160018201805461025f9061166d565b80601f016020809104026020016040519081016040528092919081815260200182805461028b9061166d565b80156102d65780601f106102ad576101008083540402835291602001916102d6565b820191905f5260205f20905b8154815290600101906020018083116102b957829003601f168201915b505050505081526020016002820180546102ef9061166d565b80601f016020809104026020016040519081016040528092919081815260200182805461031b9061166d565b80156103665780601f1061033d57610100808354040283529160200191610366565b820191905f5260205f20905b81548152906001019060200180831161034957829003601f168201915b50505050508152602001600382015481526020016004820154815260200160058201548152602001600682015481526020016007820180546103a79061166d565b80601f01602080910402602001604051908101604052809291908181526020018280546103d39061166d565b801561041e5780601f106103f55761010080835404028352916020019161041e565b820191905f5260205f20905b81548152906001019060200180831161040157829003601f168201915b505050505081526020016008820180546104379061166d565b80601f01602080910402602001604051908101604052809291908181526020018280546104639061166d565b80156104ae5780601f10610485576101008083540402835291602001916104ae565b820191905f5260205f20905b81548152906001019060200180831161049157829003601f168201915b505050505081526020016009820180546104c79061166d565b80601f01602080910402602001604051908101604052809291908181526020018280546104f39061166d565b801561053e5780601f106105155761010080835404028352916020019161053e565b820191905f5260205f20905b81548152906001019060200180831161052157829003601f168201915b50505050508152602001600a820180546105579061166d565b80601f01602080910402602001604051908101604052809291908181526020018280546105839061166d565b80156105ce5780601f106105a5576101008083540402835291602001916105ce565b820191905f5260205f20905b8154815290600101906020018083116105b157829003601f168201915b50505050508152602001600b820180546105e79061166d565b80601f01602080910402602001604051908101604052809291908181526020018280546106139061166d565b801561065e5780601f106106355761010080835404028352916020019161065e565b820191905f5260205f20905b81548152906001019060200180831161064157829003601f168201915b50505050508152602001600c82015f9054906101000a900473ffffffffffffffffffffffffffffffffffffffff1673ffffffffffffffffffffffffffffffffffffffff1673ffffffffffffffffffffffffffffffffffffffff1681525050905090565b60015f3373ffffffffffffffffffffffffffffffffffffffff1673ffffffffffffffffffffffffffffffffffffffff1681526020019081526020015f205f9054906101000a900460ff161561074b576040517f08c379a0000000000000000000000000000000000000000000000000000000008152600401610742906116e7565b60405180910390fd5b5f8761075642610ec2565b604051602001610767929190611789565b6040516020818303038152906040529050604051806101a001604052808281526020018981526020018881526020014281526020014281526020015f81526020015f81526020018781526020018681526020018581526020018481526020018381526020013373ffffffffffffffffffffffffffffffffffffffff168152505f5f3373ffffffffffffffffffffffffffffffffffffffff1673ffffffffffffffffffffffffffffffffffffffff1681526020019081526020015f205f820151815f0190816108359190611957565b50602082015181600101908161084b9190611957565b5060408201518160020190816108619190611957565b50606082015181600301556080820151816004015560a0820151816005015560c0820151816006015560e082015181600701908161089f9190611957565b506101008201518160080190816108b69190611957565b506101208201518160090190816108cd9190611957565b5061014082015181600a0190816108e49190611957565b5061016082015181600b0190816108fb9190611957565b5061018082015181600c015f6101000a81548173ffffffffffffffffffffffffffffffffffffffff021916908373ffffffffffffffffffffffffffffffffffffffff1602179055509050506001805f3373ffffffffffffffffffffffffffffffffffffffff1673ffffffffffffffffffffffffffffffffffffffff1681526020019081526020015f205f6101000a81548160ff0219169083151502179055503373ffffffffffffffffffffffffffffffffffffffff167f1538f861908189043f30d0d55e8666c6a013900115b741f6d75a7a1a85293fdb826040516109e09190611a5e565b60405180910390a25050505050505050565b60015f3373ffffffffffffffffffffffffffffffffffffffff1673ffffffffffffffffffffffffffffffffffffffff1681526020019081526020015f205f9054906101000a900460ff16610a7b576040517f08c379a0000000000000000000000000000000000000000000000000000000008152600401610a7290611622565b60405180910390fd5b5f5f5f3373ffffffffffffffffffffffffffffffffffffffff1673ffffffffffffffffffffffffffffffffffffffff1681526020019081526020015f20905087816001019081610acb9190611957565b5086816002019081610add9190611957565b5085816007019081610aef9190611957565b5084816008019081610b019190611957565b5083816009019081610b139190611957565b508281600a019081610b259190611957565b508181600b019081610b379190611957565b503373ffffffffffffffffffffffffffffffffffffffff167f9ab5b01c08788936fb2b48da858665afe9fa06d32e17dc49e0510c24ba05c983825f01604051610b809190611aff565b60405180910390a25050505050505050565b60015f3373ffffffffffffffffffffffffffffffffffffffff1673ffffffffffffffffffffffffffffffffffffffff1681526020019081526020015f205f9054906101000a900460ff16610c1b576040517f08c379a0000000000000000000000000000000000000000000000000000000008152600401610c1290611622565b60405180910390fd5b5f5f5f3373ffffffffffffffffffffffffffffffffffffffff1673ffffffffffffffffffffffffffffffffffffffff1681526020019081526020015f2090508281600501541015610ca1576040517f08c379a0000000000000000000000000000000000000000000000000000000008152600401610c9890611b69565b60405180910390fd5b8181600601541015610ce8576040517f08c379a0000000000000000000000000000000000000000000000000000000008152600401610cdf90611bd1565b60405180910390fd5b82816005015f828254610cfb9190611c1c565b9250508190555081816006015f828254610d159190611c1c565b925050819055503373ffffffffffffffffffffffffffffffffffffffff167f2b58a342147e52cafbfa184a8d6a3583ffe7664f958cdf1c00af5cf9c02ccb468484604051610d64929190611c5e565b60405180910390a2505050565b60015f3373ffffffffffffffffffffffffffffffffffffffff1673ffffffffffffffffffffffffffffffffffffffff1681526020019081526020015f205f9054906101000a900460ff16610dfa576040517f08c379a0000000000000000000000000000000000000000000000000000000008152600401610df190611622565b60405180910390fd5b5f5f5f3373ffffffffffffffffffffffffffffffffffffffff1673ffffffffffffffffffffffffffffffffffffffff1681526020019081526020015f20905082816005015f828254610e4c9190611c85565b9250508190555081816006015f828254610e669190611c85565b925050819055503373ffffffffffffffffffffffffffffffffffffffff167f27909057bad6ce6fc50ecea73759a0da1ec7790bbb0144577bf31372a78b3e648484604051610eb5929190611c5e565b60405180910390a2505050565b60605f8203610f08576040518060400160405280600181526020017f30000000000000000000000000000000000000000000000000000000000000008152509050611016565b5f8290505f5b5f8214610f37578080610f2090611cb8565b915050600a82610f309190611d2c565b9150610f0e565b5f8167ffffffffffffffff811115610f5257610f516112db565b5b6040519080825280601f01601f191660200182016040528015610f845781602001600182028036833780820191505090505b5090505b5f851461100f57600182610f9c9190611c1c565b9150600a85610fab9190611d5c565b6030610fb79190611c85565b60f81b818381518110610fcd57610fcc611d8c565b5b60200101907effffffffffffffffffffffffffffffffffffffffffffffffffffffffffffff191690815f1a905350600a856110089190611d2c565b9450610f88565b8093505050505b919050565b604051806101a001604052806060815260200160608152602001606081526020015f81526020015f81526020015f81526020015f815260200160608152602001606081526020016060815260200160608152602001606081526020015f73ffffffffffffffffffffffffffffffffffffffff1681525090565b5f81519050919050565b5f82825260208201905092915050565b8281835e5f83830152505050565b5f601f19601f8301169050919050565b5f6110d682611094565b6110e0818561109e565b93506110f08185602086016110ae565b6110f9816110bc565b840191505092915050565b5f819050919050565b61111681611104565b82525050565b5f73ffffffffffffffffffffffffffffffffffffffff82169050919050565b5f6111458261111c565b9050919050565b6111558161113b565b82525050565b5f6101a083015f8301518482035f86015261117682826110cc565b9150506020830151848203602086015261119082826110cc565b915050604083015184820360408601526111aa82826110cc565b91505060608301516111bf606086018261110d565b5060808301516111d2608086018261110d565b5060a08301516111e560a086018261110d565b5060c08301516111f860c086018261110d565b5060e083015184820360e086015261121082826110cc565b91505061010083015184820361010086015261122c82826110cc565b91505061012083015184820361012086015261124882826110cc565b91505061014083015184820361014086015261126482826110cc565b91505061016083015184820361016086015261128082826110cc565b91505061018083015161129761018086018261114c565b508091505092915050565b5f6020820190508181035f8301526112ba818461115b565b905092915050565b5f604051905090565b5f5ffd5b5f5ffd5b5f5ffd5b5f5ffd5b7f4e487b71000000000000000000000000000000000000000000000000000000005f52604160045260245ffd5b611311826110bc565b810181811067ffffffffffffffff821117156113305761132f6112db565b5b80604052505050565b5f6113426112c2565b905061134e8282611308565b919050565b5f67ffffffffffffffff82111561136d5761136c6112db565b5b611376826110bc565b9050602081019050919050565b828183375f83830152505050565b5f6113a361139e84611353565b611339565b9050828152602081018484840111156113bf576113be6112d7565b5b6113ca848285611383565b509392505050565b5f82601f8301126113e6576113e56112d3565b5b81356113f6848260208601611391565b91505092915050565b5f5f5f5f5f5f5f60e0888a03121561141a576114196112cb565b5b5f88013567ffffffffffffffff811115611437576114366112cf565b5b6114438a828b016113d2565b975050602088013567ffffffffffffffff811115611464576114636112cf565b5b6114708a828b016113d2565b965050604088013567ffffffffffffffff811115611491576114906112cf565b5b61149d8a828b016113d2565b955050606088013567ffffffffffffffff8111156114be576114bd6112cf565b5b6114ca8a828b016113d2565b945050608088013567ffffffffffffffff8111156114eb576114ea6112cf565b5b6114f78a828b016113d2565b93505060a088013567ffffffffffffffff811115611518576115176112cf565b5b6115248a828b016113d2565b92505060c088013567ffffffffffffffff811115611545576115446112cf565b5b6115518a828b016113d2565b91505092959891949750929550565b61156981611104565b8114611573575f5ffd5b50565b5f8135905061158481611560565b92915050565b5f5f604083850312156115a05761159f6112cb565b5b5f6115ad85828601611576565b92505060206115be85828601611576565b9150509250929050565b5f82825260208201905092915050565b7f55736572206e6f7420726567697374657265642e0000000000000000000000005f82015250565b5f61160c6014836115c8565b9150611617826115d8565b602082019050919050565b5f6020820190508181035f83015261163981611600565b9050919050565b7f4e487b71000000000000000000000000000000000000000000000000000000005f52602260045260245ffd5b5f600282049050600182168061168457607f821691505b60208210810361169757611696611640565b5b50919050565b7f5573657220616c726561647920726567697374657265642e00000000000000005f82015250565b5f6116d16018836115c8565b91506116dc8261169d565b602082019050919050565b5f6020820190508181035f8301526116fe816116c5565b9050919050565b5f81905092915050565b5f61171982611094565b6117238185611705565b93506117338185602086016110ae565b80840191505092915050565b7f5f000000000000000000000000000000000000000000000000000000000000005f82015250565b5f611773600183611705565b915061177e8261173f565b600182019050919050565b5f611794828561170f565b915061179f82611767565b91506117ab828461170f565b91508190509392505050565b5f819050815f5260205f209050919050565b5f6020601f8301049050919050565b5f82821b905092915050565b5f600883026118137fffffffffffffffffffffffffffffffffffffffffffffffffffffffffffffffff826117d8565b61181d86836117d8565b95508019841693508086168417925050509392505050565b5f819050919050565b5f61185861185361184e84611104565b611835565b611104565b9050919050565b5f819050919050565b6118718361183e565b61188561187d8261185f565b8484546117e4565b825550505050565b5f5f905090565b61189c61188d565b6118a7818484611868565b505050565b5b818110156118ca576118bf5f82611894565b6001810190506118ad565b5050565b601f82111561190f576118e0816117b7565b6118e9846117c9565b810160208510156118f8578190505b61190c611904856117c9565b8301826118ac565b50505b505050565b5f82821c905092915050565b5f61192f5f1984600802611914565b1980831691505092915050565b5f6119478383611920565b9150826002028217905092915050565b61196082611094565b67ffffffffffffffff811115611979576119786112db565b5b611983825461166d565b61198e8282856118ce565b5f60209050601f8311600181146119bf575f84156119ad578287015190505b6119b7858261193c565b865550611a1e565b601f1984166119cd866117b7565b5f5b828110156119f4578489015182556001820191506020850194506020810190506119cf565b86831015611a115784890151611a0d601f891682611920565b8355505b6001600288020188555050505b505050505050565b5f611a3082611094565b611a3a81856115c8565b9350611a4a8185602086016110ae565b611a53816110bc565b840191505092915050565b5f6020820190508181035f830152611a768184611a26565b905092915050565b5f8154611a8a8161166d565b611a9481866115c8565b9450600182165f8114611aae5760018114611ac457611af6565b60ff198316865281151560200286019350611af6565b611acd856117b7565b5f5b83811015611aee57815481890152600182019150602081019050611acf565b808801955050505b50505092915050565b5f6020820190508181035f830152611b178184611a7e565b905092915050565b7f496e73756666696369656e74204c5620706f696e74732e0000000000000000005f82015250565b5f611b536017836115c8565b9150611b5e82611b1f565b602082019050919050565b5f6020820190508181035f830152611b8081611b47565b9050919050565b7f496e73756666696369656e7420474720706f696e74732e0000000000000000005f82015250565b5f611bbb6017836115c8565b9150611bc682611b87565b602082019050919050565b5f6020820190508181035f830152611be881611baf565b9050919050565b7f4e487b71000000000000000000000000000000000000000000000000000000005f52601160045260245ffd5b5f611c2682611104565b9150611c3183611104565b9250828203905081811115611c4957611c48611bef565b5b92915050565b611c5881611104565b82525050565b5f604082019050611c715f830185611c4f565b611c7e6020830184611c4f565b9392505050565b5f611c8f82611104565b9150611c9a83611104565b9250828201905080821115611cb257611cb1611bef565b5b92915050565b5f611cc282611104565b91507fffffffffffffffffffffffffffffffffffffffffffffffffffffffffffffffff8203611cf457611cf3611bef565b5b600182019050919050565b7f4e487b71000000000000000000000000000000000000000000000000000000005f52601260045260245ffd5b5f611d3682611104565b9150611d4183611104565b925082611d5157611d50611cff565b5b828204905092915050565b5f611d6682611104565b9150611d7183611104565b925082611d8157611d80611cff565b5b828206905092915050565b7f4e487b71000000000000000000000000000000000000000000000000000000005f52603260045260245ffdfea2646970667358221220c4cd3cb602d7609371e8aa5e9522762a6ad5909c209d38c912383e3c7fb3c6ea64736f6c634300081c0033",
					"opcodes": "PUSH1 0x80 PUSH1 0x40 MSTORE CALLVALUE DUP1 ISZERO PUSH1 0xE JUMPI PUSH0 PUSH0 REVERT JUMPDEST POP PUSH2 0x1DEF DUP1 PUSH2 0x1C PUSH0 CODECOPY PUSH0 RETURN INVALID PUSH1 0x80 PUSH1 0x40 MSTORE CALLVALUE DUP1 ISZERO PUSH2 0xF JUMPI PUSH0 PUSH0 REVERT JUMPDEST POP PUSH1 0x4 CALLDATASIZE LT PUSH2 0x55 JUMPI PUSH0 CALLDATALOAD PUSH1 0xE0 SHR DUP1 PUSH4 0x6F61C744 EQ PUSH2 0x59 JUMPI DUP1 PUSH4 0x70E997E2 EQ PUSH2 0x77 JUMPI DUP1 PUSH4 0xDE095560 EQ PUSH2 0x93 JUMPI DUP1 PUSH4 0xE0794800 EQ PUSH2 0xAF JUMPI DUP1 PUSH4 0xFE4651A0 EQ PUSH2 0xCB JUMPI JUMPDEST PUSH0 PUSH0 REVERT JUMPDEST PUSH2 0x61 PUSH2 0xE7 JUMP JUMPDEST PUSH1 0x40 MLOAD PUSH2 0x6E SWAP2 SWAP1 PUSH2 0x12A2 JUMP JUMPDEST PUSH1 0x40 MLOAD DUP1 SWAP2 SUB SWAP1 RETURN JUMPDEST PUSH2 0x91 PUSH1 0x4 DUP1 CALLDATASIZE SUB DUP2 ADD SWAP1 PUSH2 0x8C SWAP2 SWAP1 PUSH2 0x13FF JUMP JUMPDEST PUSH2 0x6C1 JUMP JUMPDEST STOP JUMPDEST PUSH2 0xAD PUSH1 0x4 DUP1 CALLDATASIZE SUB DUP2 ADD SWAP1 PUSH2 0xA8 SWAP2 SWAP1 PUSH2 0x13FF JUMP JUMPDEST PUSH2 0x9F2 JUMP JUMPDEST STOP JUMPDEST PUSH2 0xC9 PUSH1 0x4 DUP1 CALLDATASIZE SUB DUP2 ADD SWAP1 PUSH2 0xC4 SWAP2 SWAP1 PUSH2 0x158A JUMP JUMPDEST PUSH2 0xB92 JUMP JUMPDEST STOP JUMPDEST PUSH2 0xE5 PUSH1 0x4 DUP1 CALLDATASIZE SUB DUP2 ADD SWAP1 PUSH2 0xE0 SWAP2 SWAP1 PUSH2 0x158A JUMP JUMPDEST PUSH2 0xD71 JUMP JUMPDEST STOP JUMPDEST PUSH2 0xEF PUSH2 0x101B JUMP JUMPDEST PUSH1 0x1 PUSH0 CALLER PUSH20 0xFFFFFFFFFFFFFFFFFFFFFFFFFFFFFFFFFFFFFFFF AND PUSH20 0xFFFFFFFFFFFFFFFFFFFFFFFFFFFFFFFFFFFFFFFF AND DUP2 MSTORE PUSH1 0x20 ADD SWAP1 DUP2 MSTORE PUSH1 0x20 ADD PUSH0 KECCAK256 PUSH0 SWAP1 SLOAD SWAP1 PUSH2 0x100 EXP SWAP1 DIV PUSH1 0xFF AND PUSH2 0x178 JUMPI PUSH1 0x40 MLOAD PUSH32 0x8C379A000000000000000000000000000000000000000000000000000000000 DUP2 MSTORE PUSH1 0x4 ADD PUSH2 0x16F SWAP1 PUSH2 0x1622 JUMP JUMPDEST PUSH1 0x40 MLOAD DUP1 SWAP2 SUB SWAP1 REVERT JUMPDEST PUSH0 PUSH0 CALLER PUSH20 0xFFFFFFFFFFFFFFFFFFFFFFFFFFFFFFFFFFFFFFFF AND PUSH20 0xFFFFFFFFFFFFFFFFFFFFFFFFFFFFFFFFFFFFFFFF AND DUP2 MSTORE PUSH1 0x20 ADD SWAP1 DUP2 MSTORE PUSH1 0x20 ADD PUSH0 KECCAK256 PUSH1 0x40 MLOAD DUP1 PUSH2 0x1A0 ADD PUSH1 0x40 MSTORE SWAP1 DUP2 PUSH0 DUP3 ADD DUP1 SLOAD PUSH2 0x1CF SWAP1 PUSH2 0x166D JUMP JUMPDEST DUP1 PUSH1 0x1F ADD PUSH1 0x20 DUP1 SWAP2 DIV MUL PUSH1 0x20 ADD PUSH1 0x40 MLOAD SWAP1 DUP2 ADD PUSH1 0x40 MSTORE DUP1 SWAP3 SWAP2 SWAP1 DUP2 DUP2 MSTORE PUSH1 0x20 ADD DUP3 DUP1 SLOAD PUSH2 0x1FB SWAP1 PUSH2 0x166D JUMP JUMPDEST DUP1 ISZERO PUSH2 0x246 JUMPI DUP1 PUSH1 0x1F LT PUSH2 0x21D JUMPI PUSH2 0x100 DUP1 DUP4 SLOAD DIV MUL DUP4 MSTORE SWAP2 PUSH1 0x20 ADD SWAP2 PUSH2 0x246 JUMP JUMPDEST DUP3 ADD SWAP2 SWAP1 PUSH0 MSTORE PUSH1 0x20 PUSH0 KECCAK256 SWAP1 JUMPDEST DUP2 SLOAD DUP2 MSTORE SWAP1 PUSH1 0x1 ADD SWAP1 PUSH1 0x20 ADD DUP1 DUP4 GT PUSH2 0x229 JUMPI DUP3 SWAP1 SUB PUSH1 0x1F AND DUP3 ADD SWAP2 JUMPDEST POP POP POP POP POP DUP2 MSTORE PUSH1 0x20 ADD PUSH1 0x1 DUP3 ADD DUP1 SLOAD PUSH2 0x25F SWAP1 PUSH2 0x166D JUMP JUMPDEST DUP1 PUSH1 0x1F ADD PUSH1 0x20 DUP1 SWAP2 DIV MUL PUSH1 0x20 ADD PUSH1 0x40 MLOAD SWAP1 DUP2 ADD PUSH1 0x40 MSTORE DUP1 SWAP3 SWAP2 SWAP1 DUP2 DUP2 MSTORE PUSH1 0x20 ADD DUP3 DUP1 SLOAD PUSH2 0x28B SWAP1 PUSH2 0x166D JUMP JUMPDEST DUP1 ISZERO PUSH2 0x2D6 JUMPI DUP1 PUSH1 0x1F LT PUSH2 0x2AD JUMPI PUSH2 0x100 DUP1 DUP4 SLOAD DIV MUL DUP4 MSTORE SWAP2 PUSH1 0x20 ADD SWAP2 PUSH2 0x2D6 JUMP JUMPDEST DUP3 ADD SWAP2 SWAP1 PUSH0 MSTORE PUSH1 0x20 PUSH0 KECCAK256 SWAP1 JUMPDEST DUP2 SLOAD DUP2 MSTORE SWAP1 PUSH1 0x1 ADD SWAP1 PUSH1 0x20 ADD DUP1 DUP4 GT PUSH2 0x2B9 JUMPI DUP3 SWAP1 SUB PUSH1 0x1F AND DUP3 ADD SWAP2 JUMPDEST POP POP POP POP POP DUP2 MSTORE PUSH1 0x20 ADD PUSH1 0x2 DUP3 ADD DUP1 SLOAD PUSH2 0x2EF SWAP1 PUSH2 0x166D JUMP JUMPDEST DUP1 PUSH1 0x1F ADD PUSH1 0x20 DUP1 SWAP2 DIV MUL PUSH1 0x20 ADD PUSH1 0x40 MLOAD SWAP1 DUP2 ADD PUSH1 0x40 MSTORE DUP1 SWAP3 SWAP2 SWAP1 DUP2 DUP2 MSTORE PUSH1 0x20 ADD DUP3 DUP1 SLOAD PUSH2 0x31B SWAP1 PUSH2 0x166D JUMP JUMPDEST DUP1 ISZERO PUSH2 0x366 JUMPI DUP1 PUSH1 0x1F LT PUSH2 0x33D JUMPI PUSH2 0x100 DUP1 DUP4 SLOAD DIV MUL DUP4 MSTORE SWAP2 PUSH1 0x20 ADD SWAP2 PUSH2 0x366 JUMP JUMPDEST DUP3 ADD SWAP2 SWAP1 PUSH0 MSTORE PUSH1 0x20 PUSH0 KECCAK256 SWAP1 JUMPDEST DUP2 SLOAD DUP2 MSTORE SWAP1 PUSH1 0x1 ADD SWAP1 PUSH1 0x20 ADD DUP1 DUP4 GT PUSH2 0x349 JUMPI DUP3 SWAP1 SUB PUSH1 0x1F AND DUP3 ADD SWAP2 JUMPDEST POP POP POP POP POP DUP2 MSTORE PUSH1 0x20 ADD PUSH1 0x3 DUP3 ADD SLOAD DUP2 MSTORE PUSH1 0x20 ADD PUSH1 0x4 DUP3 ADD SLOAD DUP2 MSTORE PUSH1 0x20 ADD PUSH1 0x5 DUP3 ADD SLOAD DUP2 MSTORE PUSH1 0x20 ADD PUSH1 0x6 DUP3 ADD SLOAD DUP2 MSTORE PUSH1 0x20 ADD PUSH1 0x7 DUP3 ADD DUP1 SLOAD PUSH2 0x3A7 SWAP1 PUSH2 0x166D JUMP JUMPDEST DUP1 PUSH1 0x1F ADD PUSH1 0x20 DUP1 SWAP2 DIV MUL PUSH1 0x20 ADD PUSH1 0x40 MLOAD SWAP1 DUP2 ADD PUSH1 0x40 MSTORE DUP1 SWAP3 SWAP2 SWAP1 DUP2 DUP2 MSTORE PUSH1 0x20 ADD DUP3 DUP1 SLOAD PUSH2 0x3D3 SWAP1 PUSH2 0x166D JUMP JUMPDEST DUP1 ISZERO PUSH2 0x41E JUMPI DUP1 PUSH1 0x1F LT PUSH2 0x3F5 JUMPI PUSH2 0x100 DUP1 DUP4 SLOAD DIV MUL DUP4 MSTORE SWAP2 PUSH1 0x20 ADD SWAP2 PUSH2 0x41E JUMP JUMPDEST DUP3 ADD SWAP2 SWAP1 PUSH0 MSTORE PUSH1 0x20 PUSH0 KECCAK256 SWAP1 JUMPDEST DUP2 SLOAD DUP2 MSTORE SWAP1 PUSH1 0x1 ADD SWAP1 PUSH1 0x20 ADD DUP1 DUP4 GT PUSH2 0x401 JUMPI DUP3 SWAP1 SUB PUSH1 0x1F AND DUP3 ADD SWAP2 JUMPDEST POP POP POP POP POP DUP2 MSTORE PUSH1 0x20 ADD PUSH1 0x8 DUP3 ADD DUP1 SLOAD PUSH2 0x437 SWAP1 PUSH2 0x166D JUMP JUMPDEST DUP1 PUSH1 0x1F ADD PUSH1 0x20 DUP1 SWAP2 DIV MUL PUSH1 0x20 ADD PUSH1 0x40 MLOAD SWAP1 DUP2 ADD PUSH1 0x40 MSTORE DUP1 SWAP3 SWAP2 SWAP1 DUP2 DUP2 MSTORE PUSH1 0x20 ADD DUP3 DUP1 SLOAD PUSH2 0x463 SWAP1 PUSH2 0x166D JUMP JUMPDEST DUP1 ISZERO PUSH2 0x4AE JUMPI DUP1 PUSH1 0x1F LT PUSH2 0x485 JUMPI PUSH2 0x100 DUP1 DUP4 SLOAD DIV MUL DUP4 MSTORE SWAP2 PUSH1 0x20 ADD SWAP2 PUSH2 0x4AE JUMP JUMPDEST DUP3 ADD SWAP2 SWAP1 PUSH0 MSTORE PUSH1 0x20 PUSH0 KECCAK256 SWAP1 JUMPDEST DUP2 SLOAD DUP2 MSTORE SWAP1 PUSH1 0x1 ADD SWAP1 PUSH1 0x20 ADD DUP1 DUP4 GT PUSH2 0x491 JUMPI DUP3 SWAP1 SUB PUSH1 0x1F AND DUP3 ADD SWAP2 JUMPDEST POP POP POP POP POP DUP2 MSTORE PUSH1 0x20 ADD PUSH1 0x9 DUP3 ADD DUP1 SLOAD PUSH2 0x4C7 SWAP1 PUSH2 0x166D JUMP JUMPDEST DUP1 PUSH1 0x1F ADD PUSH1 0x20 DUP1 SWAP2 DIV MUL PUSH1 0x20 ADD PUSH1 0x40 MLOAD SWAP1 DUP2 ADD PUSH1 0x40 MSTORE DUP1 SWAP3 SWAP2 SWAP1 DUP2 DUP2 MSTORE PUSH1 0x20 ADD DUP3 DUP1 SLOAD PUSH2 0x4F3 SWAP1 PUSH2 0x166D JUMP JUMPDEST DUP1 ISZERO PUSH2 0x53E JUMPI DUP1 PUSH1 0x1F LT PUSH2 0x515 JUMPI PUSH2 0x100 DUP1 DUP4 SLOAD DIV MUL DUP4 MSTORE SWAP2 PUSH1 0x20 ADD SWAP2 PUSH2 0x53E JUMP JUMPDEST DUP3 ADD SWAP2 SWAP1 PUSH0 MSTORE PUSH1 0x20 PUSH0 KECCAK256 SWAP1 JUMPDEST DUP2 SLOAD DUP2 MSTORE SWAP1 PUSH1 0x1 ADD SWAP1 PUSH1 0x20 ADD DUP1 DUP4 GT PUSH2 0x521 JUMPI DUP3 SWAP1 SUB PUSH1 0x1F AND DUP3 ADD SWAP2 JUMPDEST POP POP POP POP POP DUP2 MSTORE PUSH1 0x20 ADD PUSH1 0xA DUP3 ADD DUP1 SLOAD PUSH2 0x557 SWAP1 PUSH2 0x166D JUMP JUMPDEST DUP1 PUSH1 0x1F ADD PUSH1 0x20 DUP1 SWAP2 DIV MUL PUSH1 0x20 ADD PUSH1 0x40 MLOAD SWAP1 DUP2 ADD PUSH1 0x40 MSTORE DUP1 SWAP3 SWAP2 SWAP1 DUP2 DUP2 MSTORE PUSH1 0x20 ADD DUP3 DUP1 SLOAD PUSH2 0x583 SWAP1 PUSH2 0x166D JUMP JUMPDEST DUP1 ISZERO PUSH2 0x5CE JUMPI DUP1 PUSH1 0x1F LT PUSH2 0x5A5 JUMPI PUSH2 0x100 DUP1 DUP4 SLOAD DIV MUL DUP4 MSTORE SWAP2 PUSH1 0x20 ADD SWAP2 PUSH2 0x5CE JUMP JUMPDEST DUP3 ADD SWAP2 SWAP1 PUSH0 MSTORE PUSH1 0x20 PUSH0 KECCAK256 SWAP1 JUMPDEST DUP2 SLOAD DUP2 MSTORE SWAP1 PUSH1 0x1 ADD SWAP1 PUSH1 0x20 ADD DUP1 DUP4 GT PUSH2 0x5B1 JUMPI DUP3 SWAP1 SUB PUSH1 0x1F AND DUP3 ADD SWAP2 JUMPDEST POP POP POP POP POP DUP2 MSTORE PUSH1 0x20 ADD PUSH1 0xB DUP3 ADD DUP1 SLOAD PUSH2 0x5E7 SWAP1 PUSH2 0x166D JUMP JUMPDEST DUP1 PUSH1 0x1F ADD PUSH1 0x20 DUP1 SWAP2 DIV MUL PUSH1 0x20 ADD PUSH1 0x40 MLOAD SWAP1 DUP2 ADD PUSH1 0x40 MSTORE DUP1 SWAP3 SWAP2 SWAP1 DUP2 DUP2 MSTORE PUSH1 0x20 ADD DUP3 DUP1 SLOAD PUSH2 0x613 SWAP1 PUSH2 0x166D JUMP JUMPDEST DUP1 ISZERO PUSH2 0x65E JUMPI DUP1 PUSH1 0x1F LT PUSH2 0x635 JUMPI PUSH2 0x100 DUP1 DUP4 SLOAD DIV MUL DUP4 MSTORE SWAP2 PUSH1 0x20 ADD SWAP2 PUSH2 0x65E JUMP JUMPDEST DUP3 ADD SWAP2 SWAP1 PUSH0 MSTORE PUSH1 0x20 PUSH0 KECCAK256 SWAP1 JUMPDEST DUP2 SLOAD DUP2 MSTORE SWAP1 PUSH1 0x1 ADD SWAP1 PUSH1 0x20 ADD DUP1 DUP4 GT PUSH2 0x641 JUMPI DUP3 SWAP1 SUB PUSH1 0x1F AND DUP3 ADD SWAP2 JUMPDEST POP POP POP POP POP DUP2 MSTORE PUSH1 0x20 ADD PUSH1 0xC DUP3 ADD PUSH0 SWAP1 SLOAD SWAP1 PUSH2 0x100 EXP SWAP1 DIV PUSH20 0xFFFFFFFFFFFFFFFFFFFFFFFFFFFFFFFFFFFFFFFF AND PUSH20 0xFFFFFFFFFFFFFFFFFFFFFFFFFFFFFFFFFFFFFFFF AND PUSH20 0xFFFFFFFFFFFFFFFFFFFFFFFFFFFFFFFFFFFFFFFF AND DUP2 MSTORE POP POP SWAP1 POP SWAP1 JUMP JUMPDEST PUSH1 0x1 PUSH0 CALLER PUSH20 0xFFFFFFFFFFFFFFFFFFFFFFFFFFFFFFFFFFFFFFFF AND PUSH20 0xFFFFFFFFFFFFFFFFFFFFFFFFFFFFFFFFFFFFFFFF AND DUP2 MSTORE PUSH1 0x20 ADD SWAP1 DUP2 MSTORE PUSH1 0x20 ADD PUSH0 KECCAK256 PUSH0 SWAP1 SLOAD SWAP1 PUSH2 0x100 EXP SWAP1 DIV PUSH1 0xFF AND ISZERO PUSH2 0x74B JUMPI PUSH1 0x40 MLOAD PUSH32 0x8C379A000000000000000000000000000000000000000000000000000000000 DUP2 MSTORE PUSH1 0x4 ADD PUSH2 0x742 SWAP1 PUSH2 0x16E7 JUMP JUMPDEST PUSH1 0x40 MLOAD DUP1 SWAP2 SUB SWAP1 REVERT JUMPDEST PUSH0 DUP8 PUSH2 0x756 TIMESTAMP PUSH2 0xEC2 JUMP JUMPDEST PUSH1 0x40 MLOAD PUSH1 0x20 ADD PUSH2 0x767 SWAP3 SWAP2 SWAP1 PUSH2 0x1789 JUMP JUMPDEST PUSH1 0x40 MLOAD PUSH1 0x20 DUP2 DUP4 SUB SUB DUP2 MSTORE SWAP1 PUSH1 0x40 MSTORE SWAP1 POP PUSH1 0x40 MLOAD DUP1 PUSH2 0x1A0 ADD PUSH1 0x40 MSTORE DUP1 DUP3 DUP2 MSTORE PUSH1 0x20 ADD DUP10 DUP2 MSTORE PUSH1 0x20 ADD DUP9 DUP2 MSTORE PUSH1 0x20 ADD TIMESTAMP DUP2 MSTORE PUSH1 0x20 ADD TIMESTAMP DUP2 MSTORE PUSH1 0x20 ADD PUSH0 DUP2 MSTORE PUSH1 0x20 ADD PUSH0 DUP2 MSTORE PUSH1 0x20 ADD DUP8 DUP2 MSTORE PUSH1 0x20 ADD DUP7 DUP2 MSTORE PUSH1 0x20 ADD DUP6 DUP2 MSTORE PUSH1 0x20 ADD DUP5 DUP2 MSTORE PUSH1 0x20 ADD DUP4 DUP2 MSTORE PUSH1 0x20 ADD CALLER PUSH20 0xFFFFFFFFFFFFFFFFFFFFFFFFFFFFFFFFFFFFFFFF AND DUP2 MSTORE POP PUSH0 PUSH0 CALLER PUSH20 0xFFFFFFFFFFFFFFFFFFFFFFFFFFFFFFFFFFFFFFFF AND PUSH20 0xFFFFFFFFFFFFFFFFFFFFFFFFFFFFFFFFFFFFFFFF AND DUP2 MSTORE PUSH1 0x20 ADD SWAP1 DUP2 MSTORE PUSH1 0x20 ADD PUSH0 KECCAK256 PUSH0 DUP3 ADD MLOAD DUP2 PUSH0 ADD SWAP1 DUP2 PUSH2 0x835 SWAP2 SWAP1 PUSH2 0x1957 JUMP JUMPDEST POP PUSH1 0x20 DUP3 ADD MLOAD DUP2 PUSH1 0x1 ADD SWAP1 DUP2 PUSH2 0x84B SWAP2 SWAP1 PUSH2 0x1957 JUMP JUMPDEST POP PUSH1 0x40 DUP3 ADD MLOAD DUP2 PUSH1 0x2 ADD SWAP1 DUP2 PUSH2 0x861 SWAP2 SWAP1 PUSH2 0x1957 JUMP JUMPDEST POP PUSH1 0x60 DUP3 ADD MLOAD DUP2 PUSH1 0x3 ADD SSTORE PUSH1 0x80 DUP3 ADD MLOAD DUP2 PUSH1 0x4 ADD SSTORE PUSH1 0xA0 DUP3 ADD MLOAD DUP2 PUSH1 0x5 ADD SSTORE PUSH1 0xC0 DUP3 ADD MLOAD DUP2 PUSH1 0x6 ADD SSTORE PUSH1 0xE0 DUP3 ADD MLOAD DUP2 PUSH1 0x7 ADD SWAP1 DUP2 PUSH2 0x89F SWAP2 SWAP1 PUSH2 0x1957 JUMP JUMPDEST POP PUSH2 0x100 DUP3 ADD MLOAD DUP2 PUSH1 0x8 ADD SWAP1 DUP2 PUSH2 0x8B6 SWAP2 SWAP1 PUSH2 0x1957 JUMP JUMPDEST POP PUSH2 0x120 DUP3 ADD MLOAD DUP2 PUSH1 0x9 ADD SWAP1 DUP2 PUSH2 0x8CD SWAP2 SWAP1 PUSH2 0x1957 JUMP JUMPDEST POP PUSH2 0x140 DUP3 ADD MLOAD DUP2 PUSH1 0xA ADD SWAP1 DUP2 PUSH2 0x8E4 SWAP2 SWAP1 PUSH2 0x1957 JUMP JUMPDEST POP PUSH2 0x160 DUP3 ADD MLOAD DUP2 PUSH1 0xB ADD SWAP1 DUP2 PUSH2 0x8FB SWAP2 SWAP1 PUSH2 0x1957 JUMP JUMPDEST POP PUSH2 0x180 DUP3 ADD MLOAD DUP2 PUSH1 0xC ADD PUSH0 PUSH2 0x100 EXP DUP2 SLOAD DUP2 PUSH20 0xFFFFFFFFFFFFFFFFFFFFFFFFFFFFFFFFFFFFFFFF MUL NOT AND SWAP1 DUP4 PUSH20 0xFFFFFFFFFFFFFFFFFFFFFFFFFFFFFFFFFFFFFFFF AND MUL OR SWAP1 SSTORE POP SWAP1 POP POP PUSH1 0x1 DUP1 PUSH0 CALLER PUSH20 0xFFFFFFFFFFFFFFFFFFFFFFFFFFFFFFFFFFFFFFFF AND PUSH20 0xFFFFFFFFFFFFFFFFFFFFFFFFFFFFFFFFFFFFFFFF AND DUP2 MSTORE PUSH1 0x20 ADD SWAP1 DUP2 MSTORE PUSH1 0x20 ADD PUSH0 KECCAK256 PUSH0 PUSH2 0x100 EXP DUP2 SLOAD DUP2 PUSH1 0xFF MUL NOT AND SWAP1 DUP4 ISZERO ISZERO MUL OR SWAP1 SSTORE POP CALLER PUSH20 0xFFFFFFFFFFFFFFFFFFFFFFFFFFFFFFFFFFFFFFFF AND PUSH32 0x1538F861908189043F30D0D55E8666C6A013900115B741F6D75A7A1A85293FDB DUP3 PUSH1 0x40 MLOAD PUSH2 0x9E0 SWAP2 SWAP1 PUSH2 0x1A5E JUMP JUMPDEST PUSH1 0x40 MLOAD DUP1 SWAP2 SUB SWAP1 LOG2 POP POP POP POP POP POP POP POP JUMP JUMPDEST PUSH1 0x1 PUSH0 CALLER PUSH20 0xFFFFFFFFFFFFFFFFFFFFFFFFFFFFFFFFFFFFFFFF AND PUSH20 0xFFFFFFFFFFFFFFFFFFFFFFFFFFFFFFFFFFFFFFFF AND DUP2 MSTORE PUSH1 0x20 ADD SWAP1 DUP2 MSTORE PUSH1 0x20 ADD PUSH0 KECCAK256 PUSH0 SWAP1 SLOAD SWAP1 PUSH2 0x100 EXP SWAP1 DIV PUSH1 0xFF AND PUSH2 0xA7B JUMPI PUSH1 0x40 MLOAD PUSH32 0x8C379A000000000000000000000000000000000000000000000000000000000 DUP2 MSTORE PUSH1 0x4 ADD PUSH2 0xA72 SWAP1 PUSH2 0x1622 JUMP JUMPDEST PUSH1 0x40 MLOAD DUP1 SWAP2 SUB SWAP1 REVERT JUMPDEST PUSH0 PUSH0 PUSH0 CALLER PUSH20 0xFFFFFFFFFFFFFFFFFFFFFFFFFFFFFFFFFFFFFFFF AND PUSH20 0xFFFFFFFFFFFFFFFFFFFFFFFFFFFFFFFFFFFFFFFF AND DUP2 MSTORE PUSH1 0x20 ADD SWAP1 DUP2 MSTORE PUSH1 0x20 ADD PUSH0 KECCAK256 SWAP1 POP DUP8 DUP2 PUSH1 0x1 ADD SWAP1 DUP2 PUSH2 0xACB SWAP2 SWAP1 PUSH2 0x1957 JUMP JUMPDEST POP DUP7 DUP2 PUSH1 0x2 ADD SWAP1 DUP2 PUSH2 0xADD SWAP2 SWAP1 PUSH2 0x1957 JUMP JUMPDEST POP DUP6 DUP2 PUSH1 0x7 ADD SWAP1 DUP2 PUSH2 0xAEF SWAP2 SWAP1 PUSH2 0x1957 JUMP JUMPDEST POP DUP5 DUP2 PUSH1 0x8 ADD SWAP1 DUP2 PUSH2 0xB01 SWAP2 SWAP1 PUSH2 0x1957 JUMP JUMPDEST POP DUP4 DUP2 PUSH1 0x9 ADD SWAP1 DUP2 PUSH2 0xB13 SWAP2 SWAP1 PUSH2 0x1957 JUMP JUMPDEST POP DUP3 DUP2 PUSH1 0xA ADD SWAP1 DUP2 PUSH2 0xB25 SWAP2 SWAP1 PUSH2 0x1957 JUMP JUMPDEST POP DUP2 DUP2 PUSH1 0xB ADD SWAP1 DUP2 PUSH2 0xB37 SWAP2 SWAP1 PUSH2 0x1957 JUMP JUMPDEST POP CALLER PUSH20 0xFFFFFFFFFFFFFFFFFFFFFFFFFFFFFFFFFFFFFFFF AND PUSH32 0x9AB5B01C08788936FB2B48DA858665AFE9FA06D32E17DC49E0510C24BA05C983 DUP3 PUSH0 ADD PUSH1 0x40 MLOAD PUSH2 0xB80 SWAP2 SWAP1 PUSH2 0x1AFF JUMP JUMPDEST PUSH1 0x40 MLOAD DUP1 SWAP2 SUB SWAP1 LOG2 POP POP POP POP POP POP POP POP JUMP JUMPDEST PUSH1 0x1 PUSH0 CALLER PUSH20 0xFFFFFFFFFFFFFFFFFFFFFFFFFFFFFFFFFFFFFFFF AND PUSH20 0xFFFFFFFFFFFFFFFFFFFFFFFFFFFFFFFFFFFFFFFF AND DUP2 MSTORE PUSH1 0x20 ADD SWAP1 DUP2 MSTORE PUSH1 0x20 ADD PUSH0 KECCAK256 PUSH0 SWAP1 SLOAD SWAP1 PUSH2 0x100 EXP SWAP1 DIV PUSH1 0xFF AND PUSH2 0xC1B JUMPI PUSH1 0x40 MLOAD PUSH32 0x8C379A000000000000000000000000000000000000000000000000000000000 DUP2 MSTORE PUSH1 0x4 ADD PUSH2 0xC12 SWAP1 PUSH2 0x1622 JUMP JUMPDEST PUSH1 0x40 MLOAD DUP1 SWAP2 SUB SWAP1 REVERT JUMPDEST PUSH0 PUSH0 PUSH0 CALLER PUSH20 0xFFFFFFFFFFFFFFFFFFFFFFFFFFFFFFFFFFFFFFFF AND PUSH20 0xFFFFFFFFFFFFFFFFFFFFFFFFFFFFFFFFFFFFFFFF AND DUP2 MSTORE PUSH1 0x20 ADD SWAP1 DUP2 MSTORE PUSH1 0x20 ADD PUSH0 KECCAK256 SWAP1 POP DUP3 DUP2 PUSH1 0x5 ADD SLOAD LT ISZERO PUSH2 0xCA1 JUMPI PUSH1 0x40 MLOAD PUSH32 0x8C379A000000000000000000000000000000000000000000000000000000000 DUP2 MSTORE PUSH1 0x4 ADD PUSH2 0xC98 SWAP1 PUSH2 0x1B69 JUMP JUMPDEST PUSH1 0x40 MLOAD DUP1 SWAP2 SUB SWAP1 REVERT JUMPDEST DUP2 DUP2 PUSH1 0x6 ADD SLOAD LT ISZERO PUSH2 0xCE8 JUMPI PUSH1 0x40 MLOAD PUSH32 0x8C379A000000000000000000000000000000000000000000000000000000000 DUP2 MSTORE PUSH1 0x4 ADD PUSH2 0xCDF SWAP1 PUSH2 0x1BD1 JUMP JUMPDEST PUSH1 0x40 MLOAD DUP1 SWAP2 SUB SWAP1 REVERT JUMPDEST DUP3 DUP2 PUSH1 0x5 ADD PUSH0 DUP3 DUP3 SLOAD PUSH2 0xCFB SWAP2 SWAP1 PUSH2 0x1C1C JUMP JUMPDEST SWAP3 POP POP DUP2 SWAP1 SSTORE POP DUP2 DUP2 PUSH1 0x6 ADD PUSH0 DUP3 DUP3 SLOAD PUSH2 0xD15 SWAP2 SWAP1 PUSH2 0x1C1C JUMP JUMPDEST SWAP3 POP POP DUP2 SWAP1 SSTORE POP CALLER PUSH20 0xFFFFFFFFFFFFFFFFFFFFFFFFFFFFFFFFFFFFFFFF AND PUSH32 0x2B58A342147E52CAFBFA184A8D6A3583FFE7664F958CDF1C00AF5CF9C02CCB46 DUP5 DUP5 PUSH1 0x40 MLOAD PUSH2 0xD64 SWAP3 SWAP2 SWAP1 PUSH2 0x1C5E JUMP JUMPDEST PUSH1 0x40 MLOAD DUP1 SWAP2 SUB SWAP1 LOG2 POP POP POP JUMP JUMPDEST PUSH1 0x1 PUSH0 CALLER PUSH20 0xFFFFFFFFFFFFFFFFFFFFFFFFFFFFFFFFFFFFFFFF AND PUSH20 0xFFFFFFFFFFFFFFFFFFFFFFFFFFFFFFFFFFFFFFFF AND DUP2 MSTORE PUSH1 0x20 ADD SWAP1 DUP2 MSTORE PUSH1 0x20 ADD PUSH0 KECCAK256 PUSH0 SWAP1 SLOAD SWAP1 PUSH2 0x100 EXP SWAP1 DIV PUSH1 0xFF AND PUSH2 0xDFA JUMPI PUSH1 0x40 MLOAD PUSH32 0x8C379A000000000000000000000000000000000000000000000000000000000 DUP2 MSTORE PUSH1 0x4 ADD PUSH2 0xDF1 SWAP1 PUSH2 0x1622 JUMP JUMPDEST PUSH1 0x40 MLOAD DUP1 SWAP2 SUB SWAP1 REVERT JUMPDEST PUSH0 PUSH0 PUSH0 CALLER PUSH20 0xFFFFFFFFFFFFFFFFFFFFFFFFFFFFFFFFFFFFFFFF AND PUSH20 0xFFFFFFFFFFFFFFFFFFFFFFFFFFFFFFFFFFFFFFFF AND DUP2 MSTORE PUSH1 0x20 ADD SWAP1 DUP2 MSTORE PUSH1 0x20 ADD PUSH0 KECCAK256 SWAP1 POP DUP3 DUP2 PUSH1 0x5 ADD PUSH0 DUP3 DUP3 SLOAD PUSH2 0xE4C SWAP2 SWAP1 PUSH2 0x1C85 JUMP JUMPDEST SWAP3 POP POP DUP2 SWAP1 SSTORE POP DUP2 DUP2 PUSH1 0x6 ADD PUSH0 DUP3 DUP3 SLOAD PUSH2 0xE66 SWAP2 SWAP1 PUSH2 0x1C85 JUMP JUMPDEST SWAP3 POP POP DUP2 SWAP1 SSTORE POP CALLER PUSH20 0xFFFFFFFFFFFFFFFFFFFFFFFFFFFFFFFFFFFFFFFF AND PUSH32 0x27909057BAD6CE6FC50ECEA73759A0DA1EC7790BBB0144577BF31372A78B3E64 DUP5 DUP5 PUSH1 0x40 MLOAD PUSH2 0xEB5 SWAP3 SWAP2 SWAP1 PUSH2 0x1C5E JUMP JUMPDEST PUSH1 0x40 MLOAD DUP1 SWAP2 SUB SWAP1 LOG2 POP POP POP JUMP JUMPDEST PUSH1 0x60 PUSH0 DUP3 SUB PUSH2 0xF08 JUMPI PUSH1 0x40 MLOAD DUP1 PUSH1 0x40 ADD PUSH1 0x40 MSTORE DUP1 PUSH1 0x1 DUP2 MSTORE PUSH1 0x20 ADD PUSH32 0x3000000000000000000000000000000000000000000000000000000000000000 DUP2 MSTORE POP SWAP1 POP PUSH2 0x1016 JUMP JUMPDEST PUSH0 DUP3 SWAP1 POP PUSH0 JUMPDEST PUSH0 DUP3 EQ PUSH2 0xF37 JUMPI DUP1 DUP1 PUSH2 0xF20 SWAP1 PUSH2 0x1CB8 JUMP JUMPDEST SWAP2 POP POP PUSH1 0xA DUP3 PUSH2 0xF30 SWAP2 SWAP1 PUSH2 0x1D2C JUMP JUMPDEST SWAP2 POP PUSH2 0xF0E JUMP JUMPDEST PUSH0 DUP2 PUSH8 0xFFFFFFFFFFFFFFFF DUP2 GT ISZERO PUSH2 0xF52 JUMPI PUSH2 0xF51 PUSH2 0x12DB JUMP JUMPDEST JUMPDEST PUSH1 0x40 MLOAD SWAP1 DUP1 DUP3 MSTORE DUP1 PUSH1 0x1F ADD PUSH1 0x1F NOT AND PUSH1 0x20 ADD DUP3 ADD PUSH1 0x40 MSTORE DUP1 ISZERO PUSH2 0xF84 JUMPI DUP2 PUSH1 0x20 ADD PUSH1 0x1 DUP3 MUL DUP1 CALLDATASIZE DUP4 CALLDATACOPY DUP1 DUP3 ADD SWAP2 POP POP SWAP1 POP JUMPDEST POP SWAP1 POP JUMPDEST PUSH0 DUP6 EQ PUSH2 0x100F JUMPI PUSH1 0x1 DUP3 PUSH2 0xF9C SWAP2 SWAP1 PUSH2 0x1C1C JUMP JUMPDEST SWAP2 POP PUSH1 0xA DUP6 PUSH2 0xFAB SWAP2 SWAP1 PUSH2 0x1D5C JUMP JUMPDEST PUSH1 0x30 PUSH2 0xFB7 SWAP2 SWAP1 PUSH2 0x1C85 JUMP JUMPDEST PUSH1 0xF8 SHL DUP2 DUP4 DUP2 MLOAD DUP2 LT PUSH2 0xFCD JUMPI PUSH2 0xFCC PUSH2 0x1D8C JUMP JUMPDEST JUMPDEST PUSH1 0x20 ADD ADD SWAP1 PUSH31 0xFFFFFFFFFFFFFFFFFFFFFFFFFFFFFFFFFFFFFFFFFFFFFFFFFFFFFFFFFFFFFF NOT AND SWAP1 DUP2 PUSH0 BYTE SWAP1 MSTORE8 POP PUSH1 0xA DUP6 PUSH2 0x1008 SWAP2 SWAP1 PUSH2 0x1D2C JUMP JUMPDEST SWAP5 POP PUSH2 0xF88 JUMP JUMPDEST DUP1 SWAP4 POP POP POP POP JUMPDEST SWAP2 SWAP1 POP JUMP JUMPDEST PUSH1 0x40 MLOAD DUP1 PUSH2 0x1A0 ADD PUSH1 0x40 MSTORE DUP1 PUSH1 0x60 DUP2 MSTORE PUSH1 0x20 ADD PUSH1 0x60 DUP2 MSTORE PUSH1 0x20 ADD PUSH1 0x60 DUP2 MSTORE PUSH1 0x20 ADD PUSH0 DUP2 MSTORE PUSH1 0x20 ADD PUSH0 DUP2 MSTORE PUSH1 0x20 ADD PUSH0 DUP2 MSTORE PUSH1 0x20 ADD PUSH0 DUP2 MSTORE PUSH1 0x20 ADD PUSH1 0x60 DUP2 MSTORE PUSH1 0x20 ADD PUSH1 0x60 DUP2 MSTORE PUSH1 0x20 ADD PUSH1 0x60 DUP2 MSTORE PUSH1 0x20 ADD PUSH1 0x60 DUP2 MSTORE PUSH1 0x20 ADD PUSH1 0x60 DUP2 MSTORE PUSH1 0x20 ADD PUSH0 PUSH20 0xFFFFFFFFFFFFFFFFFFFFFFFFFFFFFFFFFFFFFFFF AND DUP2 MSTORE POP SWAP1 JUMP JUMPDEST PUSH0 DUP2 MLOAD SWAP1 POP SWAP2 SWAP1 POP JUMP JUMPDEST PUSH0 DUP3 DUP3 MSTORE PUSH1 0x20 DUP3 ADD SWAP1 POP SWAP3 SWAP2 POP POP JUMP JUMPDEST DUP3 DUP2 DUP4 MCOPY PUSH0 DUP4 DUP4 ADD MSTORE POP POP POP JUMP JUMPDEST PUSH0 PUSH1 0x1F NOT PUSH1 0x1F DUP4 ADD AND SWAP1 POP SWAP2 SWAP1 POP JUMP JUMPDEST PUSH0 PUSH2 0x10D6 DUP3 PUSH2 0x1094 JUMP JUMPDEST PUSH2 0x10E0 DUP2 DUP6 PUSH2 0x109E JUMP JUMPDEST SWAP4 POP PUSH2 0x10F0 DUP2 DUP6 PUSH1 0x20 DUP7 ADD PUSH2 0x10AE JUMP JUMPDEST PUSH2 0x10F9 DUP2 PUSH2 0x10BC JUMP JUMPDEST DUP5 ADD SWAP2 POP POP SWAP3 SWAP2 POP POP JUMP JUMPDEST PUSH0 DUP2 SWAP1 POP SWAP2 SWAP1 POP JUMP JUMPDEST PUSH2 0x1116 DUP2 PUSH2 0x1104 JUMP JUMPDEST DUP3 MSTORE POP POP JUMP JUMPDEST PUSH0 PUSH20 0xFFFFFFFFFFFFFFFFFFFFFFFFFFFFFFFFFFFFFFFF DUP3 AND SWAP1 POP SWAP2 SWAP1 POP JUMP JUMPDEST PUSH0 PUSH2 0x1145 DUP3 PUSH2 0x111C JUMP JUMPDEST SWAP1 POP SWAP2 SWAP1 POP JUMP JUMPDEST PUSH2 0x1155 DUP2 PUSH2 0x113B JUMP JUMPDEST DUP3 MSTORE POP POP JUMP JUMPDEST PUSH0 PUSH2 0x1A0 DUP4 ADD PUSH0 DUP4 ADD MLOAD DUP5 DUP3 SUB PUSH0 DUP7 ADD MSTORE PUSH2 0x1176 DUP3 DUP3 PUSH2 0x10CC JUMP JUMPDEST SWAP2 POP POP PUSH1 0x20 DUP4 ADD MLOAD DUP5 DUP3 SUB PUSH1 0x20 DUP7 ADD MSTORE PUSH2 0x1190 DUP3 DUP3 PUSH2 0x10CC JUMP JUMPDEST SWAP2 POP POP PUSH1 0x40 DUP4 ADD MLOAD DUP5 DUP3 SUB PUSH1 0x40 DUP7 ADD MSTORE PUSH2 0x11AA DUP3 DUP3 PUSH2 0x10CC JUMP JUMPDEST SWAP2 POP POP PUSH1 0x60 DUP4 ADD MLOAD PUSH2 0x11BF PUSH1 0x60 DUP7 ADD DUP3 PUSH2 0x110D JUMP JUMPDEST POP PUSH1 0x80 DUP4 ADD MLOAD PUSH2 0x11D2 PUSH1 0x80 DUP7 ADD DUP3 PUSH2 0x110D JUMP JUMPDEST POP PUSH1 0xA0 DUP4 ADD MLOAD PUSH2 0x11E5 PUSH1 0xA0 DUP7 ADD DUP3 PUSH2 0x110D JUMP JUMPDEST POP PUSH1 0xC0 DUP4 ADD MLOAD PUSH2 0x11F8 PUSH1 0xC0 DUP7 ADD DUP3 PUSH2 0x110D JUMP JUMPDEST POP PUSH1 0xE0 DUP4 ADD MLOAD DUP5 DUP3 SUB PUSH1 0xE0 DUP7 ADD MSTORE PUSH2 0x1210 DUP3 DUP3 PUSH2 0x10CC JUMP JUMPDEST SWAP2 POP POP PUSH2 0x100 DUP4 ADD MLOAD DUP5 DUP3 SUB PUSH2 0x100 DUP7 ADD MSTORE PUSH2 0x122C DUP3 DUP3 PUSH2 0x10CC JUMP JUMPDEST SWAP2 POP POP PUSH2 0x120 DUP4 ADD MLOAD DUP5 DUP3 SUB PUSH2 0x120 DUP7 ADD MSTORE PUSH2 0x1248 DUP3 DUP3 PUSH2 0x10CC JUMP JUMPDEST SWAP2 POP POP PUSH2 0x140 DUP4 ADD MLOAD DUP5 DUP3 SUB PUSH2 0x140 DUP7 ADD MSTORE PUSH2 0x1264 DUP3 DUP3 PUSH2 0x10CC JUMP JUMPDEST SWAP2 POP POP PUSH2 0x160 DUP4 ADD MLOAD DUP5 DUP3 SUB PUSH2 0x160 DUP7 ADD MSTORE PUSH2 0x1280 DUP3 DUP3 PUSH2 0x10CC JUMP JUMPDEST SWAP2 POP POP PUSH2 0x180 DUP4 ADD MLOAD PUSH2 0x1297 PUSH2 0x180 DUP7 ADD DUP3 PUSH2 0x114C JUMP JUMPDEST POP DUP1 SWAP2 POP POP SWAP3 SWAP2 POP POP JUMP JUMPDEST PUSH0 PUSH1 0x20 DUP3 ADD SWAP1 POP DUP2 DUP2 SUB PUSH0 DUP4 ADD MSTORE PUSH2 0x12BA DUP2 DUP5 PUSH2 0x115B JUMP JUMPDEST SWAP1 POP SWAP3 SWAP2 POP POP JUMP JUMPDEST PUSH0 PUSH1 0x40 MLOAD SWAP1 POP SWAP1 JUMP JUMPDEST PUSH0 PUSH0 REVERT JUMPDEST PUSH0 PUSH0 REVERT JUMPDEST PUSH0 PUSH0 REVERT JUMPDEST PUSH0 PUSH0 REVERT JUMPDEST PUSH32 0x4E487B7100000000000000000000000000000000000000000000000000000000 PUSH0 MSTORE PUSH1 0x41 PUSH1 0x4 MSTORE PUSH1 0x24 PUSH0 REVERT JUMPDEST PUSH2 0x1311 DUP3 PUSH2 0x10BC JUMP JUMPDEST DUP2 ADD DUP2 DUP2 LT PUSH8 0xFFFFFFFFFFFFFFFF DUP3 GT OR ISZERO PUSH2 0x1330 JUMPI PUSH2 0x132F PUSH2 0x12DB JUMP JUMPDEST JUMPDEST DUP1 PUSH1 0x40 MSTORE POP POP POP JUMP JUMPDEST PUSH0 PUSH2 0x1342 PUSH2 0x12C2 JUMP JUMPDEST SWAP1 POP PUSH2 0x134E DUP3 DUP3 PUSH2 0x1308 JUMP JUMPDEST SWAP2 SWAP1 POP JUMP JUMPDEST PUSH0 PUSH8 0xFFFFFFFFFFFFFFFF DUP3 GT ISZERO PUSH2 0x136D JUMPI PUSH2 0x136C PUSH2 0x12DB JUMP JUMPDEST JUMPDEST PUSH2 0x1376 DUP3 PUSH2 0x10BC JUMP JUMPDEST SWAP1 POP PUSH1 0x20 DUP2 ADD SWAP1 POP SWAP2 SWAP1 POP JUMP JUMPDEST DUP3 DUP2 DUP4 CALLDATACOPY PUSH0 DUP4 DUP4 ADD MSTORE POP POP POP JUMP JUMPDEST PUSH0 PUSH2 0x13A3 PUSH2 0x139E DUP5 PUSH2 0x1353 JUMP JUMPDEST PUSH2 0x1339 JUMP JUMPDEST SWAP1 POP DUP3 DUP2 MSTORE PUSH1 0x20 DUP2 ADD DUP5 DUP5 DUP5 ADD GT ISZERO PUSH2 0x13BF JUMPI PUSH2 0x13BE PUSH2 0x12D7 JUMP JUMPDEST JUMPDEST PUSH2 0x13CA DUP5 DUP3 DUP6 PUSH2 0x1383 JUMP JUMPDEST POP SWAP4 SWAP3 POP POP POP JUMP JUMPDEST PUSH0 DUP3 PUSH1 0x1F DUP4 ADD SLT PUSH2 0x13E6 JUMPI PUSH2 0x13E5 PUSH2 0x12D3 JUMP JUMPDEST JUMPDEST DUP2 CALLDATALOAD PUSH2 0x13F6 DUP5 DUP3 PUSH1 0x20 DUP7 ADD PUSH2 0x1391 JUMP JUMPDEST SWAP2 POP POP SWAP3 SWAP2 POP POP JUMP JUMPDEST PUSH0 PUSH0 PUSH0 PUSH0 PUSH0 PUSH0 PUSH0 PUSH1 0xE0 DUP9 DUP11 SUB SLT ISZERO PUSH2 0x141A JUMPI PUSH2 0x1419 PUSH2 0x12CB JUMP JUMPDEST JUMPDEST PUSH0 DUP9 ADD CALLDATALOAD PUSH8 0xFFFFFFFFFFFFFFFF DUP2 GT ISZERO PUSH2 0x1437 JUMPI PUSH2 0x1436 PUSH2 0x12CF JUMP JUMPDEST JUMPDEST PUSH2 0x1443 DUP11 DUP3 DUP12 ADD PUSH2 0x13D2 JUMP JUMPDEST SWAP8 POP POP PUSH1 0x20 DUP9 ADD CALLDATALOAD PUSH8 0xFFFFFFFFFFFFFFFF DUP2 GT ISZERO PUSH2 0x1464 JUMPI PUSH2 0x1463 PUSH2 0x12CF JUMP JUMPDEST JUMPDEST PUSH2 0x1470 DUP11 DUP3 DUP12 ADD PUSH2 0x13D2 JUMP JUMPDEST SWAP7 POP POP PUSH1 0x40 DUP9 ADD CALLDATALOAD PUSH8 0xFFFFFFFFFFFFFFFF DUP2 GT ISZERO PUSH2 0x1491 JUMPI PUSH2 0x1490 PUSH2 0x12CF JUMP JUMPDEST JUMPDEST PUSH2 0x149D DUP11 DUP3 DUP12 ADD PUSH2 0x13D2 JUMP JUMPDEST SWAP6 POP POP PUSH1 0x60 DUP9 ADD CALLDATALOAD PUSH8 0xFFFFFFFFFFFFFFFF DUP2 GT ISZERO PUSH2 0x14BE JUMPI PUSH2 0x14BD PUSH2 0x12CF JUMP JUMPDEST JUMPDEST PUSH2 0x14CA DUP11 DUP3 DUP12 ADD PUSH2 0x13D2 JUMP JUMPDEST SWAP5 POP POP PUSH1 0x80 DUP9 ADD CALLDATALOAD PUSH8 0xFFFFFFFFFFFFFFFF DUP2 GT ISZERO PUSH2 0x14EB JUMPI PUSH2 0x14EA PUSH2 0x12CF JUMP JUMPDEST JUMPDEST PUSH2 0x14F7 DUP11 DUP3 DUP12 ADD PUSH2 0x13D2 JUMP JUMPDEST SWAP4 POP POP PUSH1 0xA0 DUP9 ADD CALLDATALOAD PUSH8 0xFFFFFFFFFFFFFFFF DUP2 GT ISZERO PUSH2 0x1518 JUMPI PUSH2 0x1517 PUSH2 0x12CF JUMP JUMPDEST JUMPDEST PUSH2 0x1524 DUP11 DUP3 DUP12 ADD PUSH2 0x13D2 JUMP JUMPDEST SWAP3 POP POP PUSH1 0xC0 DUP9 ADD CALLDATALOAD PUSH8 0xFFFFFFFFFFFFFFFF DUP2 GT ISZERO PUSH2 0x1545 JUMPI PUSH2 0x1544 PUSH2 0x12CF JUMP JUMPDEST JUMPDEST PUSH2 0x1551 DUP11 DUP3 DUP12 ADD PUSH2 0x13D2 JUMP JUMPDEST SWAP2 POP POP SWAP3 SWAP6 SWAP9 SWAP2 SWAP5 SWAP8 POP SWAP3 SWAP6 POP JUMP JUMPDEST PUSH2 0x1569 DUP2 PUSH2 0x1104 JUMP JUMPDEST DUP2 EQ PUSH2 0x1573 JUMPI PUSH0 PUSH0 REVERT JUMPDEST POP JUMP JUMPDEST PUSH0 DUP2 CALLDATALOAD SWAP1 POP PUSH2 0x1584 DUP2 PUSH2 0x1560 JUMP JUMPDEST SWAP3 SWAP2 POP POP JUMP JUMPDEST PUSH0 PUSH0 PUSH1 0x40 DUP4 DUP6 SUB SLT ISZERO PUSH2 0x15A0 JUMPI PUSH2 0x159F PUSH2 0x12CB JUMP JUMPDEST JUMPDEST PUSH0 PUSH2 0x15AD DUP6 DUP3 DUP7 ADD PUSH2 0x1576 JUMP JUMPDEST SWAP3 POP POP PUSH1 0x20 PUSH2 0x15BE DUP6 DUP3 DUP7 ADD PUSH2 0x1576 JUMP JUMPDEST SWAP2 POP POP SWAP3 POP SWAP3 SWAP1 POP JUMP JUMPDEST PUSH0 DUP3 DUP3 MSTORE PUSH1 0x20 DUP3 ADD SWAP1 POP SWAP3 SWAP2 POP POP JUMP JUMPDEST PUSH32 0x55736572206E6F7420726567697374657265642E000000000000000000000000 PUSH0 DUP3 ADD MSTORE POP JUMP JUMPDEST PUSH0 PUSH2 0x160C PUSH1 0x14 DUP4 PUSH2 0x15C8 JUMP JUMPDEST SWAP2 POP PUSH2 0x1617 DUP3 PUSH2 0x15D8 JUMP JUMPDEST PUSH1 0x20 DUP3 ADD SWAP1 POP SWAP2 SWAP1 POP JUMP JUMPDEST PUSH0 PUSH1 0x20 DUP3 ADD SWAP1 POP DUP2 DUP2 SUB PUSH0 DUP4 ADD MSTORE PUSH2 0x1639 DUP2 PUSH2 0x1600 JUMP JUMPDEST SWAP1 POP SWAP2 SWAP1 POP JUMP JUMPDEST PUSH32 0x4E487B7100000000000000000000000000000000000000000000000000000000 PUSH0 MSTORE PUSH1 0x22 PUSH1 0x4 MSTORE PUSH1 0x24 PUSH0 REVERT JUMPDEST PUSH0 PUSH1 0x2 DUP3 DIV SWAP1 POP PUSH1 0x1 DUP3 AND DUP1 PUSH2 0x1684 JUMPI PUSH1 0x7F DUP3 AND SWAP2 POP JUMPDEST PUSH1 0x20 DUP3 LT DUP2 SUB PUSH2 0x1697 JUMPI PUSH2 0x1696 PUSH2 0x1640 JUMP JUMPDEST JUMPDEST POP SWAP2 SWAP1 POP JUMP JUMPDEST PUSH32 0x5573657220616C726561647920726567697374657265642E0000000000000000 PUSH0 DUP3 ADD MSTORE POP JUMP JUMPDEST PUSH0 PUSH2 0x16D1 PUSH1 0x18 DUP4 PUSH2 0x15C8 JUMP JUMPDEST SWAP2 POP PUSH2 0x16DC DUP3 PUSH2 0x169D JUMP JUMPDEST PUSH1 0x20 DUP3 ADD SWAP1 POP SWAP2 SWAP1 POP JUMP JUMPDEST PUSH0 PUSH1 0x20 DUP3 ADD SWAP1 POP DUP2 DUP2 SUB PUSH0 DUP4 ADD MSTORE PUSH2 0x16FE DUP2 PUSH2 0x16C5 JUMP JUMPDEST SWAP1 POP SWAP2 SWAP1 POP JUMP JUMPDEST PUSH0 DUP2 SWAP1 POP SWAP3 SWAP2 POP POP JUMP JUMPDEST PUSH0 PUSH2 0x1719 DUP3 PUSH2 0x1094 JUMP JUMPDEST PUSH2 0x1723 DUP2 DUP6 PUSH2 0x1705 JUMP JUMPDEST SWAP4 POP PUSH2 0x1733 DUP2 DUP6 PUSH1 0x20 DUP7 ADD PUSH2 0x10AE JUMP JUMPDEST DUP1 DUP5 ADD SWAP2 POP POP SWAP3 SWAP2 POP POP JUMP JUMPDEST PUSH32 0x5F00000000000000000000000000000000000000000000000000000000000000 PUSH0 DUP3 ADD MSTORE POP JUMP JUMPDEST PUSH0 PUSH2 0x1773 PUSH1 0x1 DUP4 PUSH2 0x1705 JUMP JUMPDEST SWAP2 POP PUSH2 0x177E DUP3 PUSH2 0x173F JUMP JUMPDEST PUSH1 0x1 DUP3 ADD SWAP1 POP SWAP2 SWAP1 POP JUMP JUMPDEST PUSH0 PUSH2 0x1794 DUP3 DUP6 PUSH2 0x170F JUMP JUMPDEST SWAP2 POP PUSH2 0x179F DUP3 PUSH2 0x1767 JUMP JUMPDEST SWAP2 POP PUSH2 0x17AB DUP3 DUP5 PUSH2 0x170F JUMP JUMPDEST SWAP2 POP DUP2 SWAP1 POP SWAP4 SWAP3 POP POP POP JUMP JUMPDEST PUSH0 DUP2 SWAP1 POP DUP2 PUSH0 MSTORE PUSH1 0x20 PUSH0 KECCAK256 SWAP1 POP SWAP2 SWAP1 POP JUMP JUMPDEST PUSH0 PUSH1 0x20 PUSH1 0x1F DUP4 ADD DIV SWAP1 POP SWAP2 SWAP1 POP JUMP JUMPDEST PUSH0 DUP3 DUP3 SHL SWAP1 POP SWAP3 SWAP2 POP POP JUMP JUMPDEST PUSH0 PUSH1 0x8 DUP4 MUL PUSH2 0x1813 PUSH32 0xFFFFFFFFFFFFFFFFFFFFFFFFFFFFFFFFFFFFFFFFFFFFFFFFFFFFFFFFFFFFFFFF DUP3 PUSH2 0x17D8 JUMP JUMPDEST PUSH2 0x181D DUP7 DUP4 PUSH2 0x17D8 JUMP JUMPDEST SWAP6 POP DUP1 NOT DUP5 AND SWAP4 POP DUP1 DUP7 AND DUP5 OR SWAP3 POP POP POP SWAP4 SWAP3 POP POP POP JUMP JUMPDEST PUSH0 DUP2 SWAP1 POP SWAP2 SWAP1 POP JUMP JUMPDEST PUSH0 PUSH2 0x1858 PUSH2 0x1853 PUSH2 0x184E DUP5 PUSH2 0x1104 JUMP JUMPDEST PUSH2 0x1835 JUMP JUMPDEST PUSH2 0x1104 JUMP JUMPDEST SWAP1 POP SWAP2 SWAP1 POP JUMP JUMPDEST PUSH0 DUP2 SWAP1 POP SWAP2 SWAP1 POP JUMP JUMPDEST PUSH2 0x1871 DUP4 PUSH2 0x183E JUMP JUMPDEST PUSH2 0x1885 PUSH2 0x187D DUP3 PUSH2 0x185F JUMP JUMPDEST DUP5 DUP5 SLOAD PUSH2 0x17E4 JUMP JUMPDEST DUP3 SSTORE POP POP POP POP JUMP JUMPDEST PUSH0 PUSH0 SWAP1 POP SWAP1 JUMP JUMPDEST PUSH2 0x189C PUSH2 0x188D JUMP JUMPDEST PUSH2 0x18A7 DUP2 DUP5 DUP5 PUSH2 0x1868 JUMP JUMPDEST POP POP POP JUMP JUMPDEST JUMPDEST DUP2 DUP2 LT ISZERO PUSH2 0x18CA JUMPI PUSH2 0x18BF PUSH0 DUP3 PUSH2 0x1894 JUMP JUMPDEST PUSH1 0x1 DUP2 ADD SWAP1 POP PUSH2 0x18AD JUMP JUMPDEST POP POP JUMP JUMPDEST PUSH1 0x1F DUP3 GT ISZERO PUSH2 0x190F JUMPI PUSH2 0x18E0 DUP2 PUSH2 0x17B7 JUMP JUMPDEST PUSH2 0x18E9 DUP5 PUSH2 0x17C9 JUMP JUMPDEST DUP2 ADD PUSH1 0x20 DUP6 LT ISZERO PUSH2 0x18F8 JUMPI DUP2 SWAP1 POP JUMPDEST PUSH2 0x190C PUSH2 0x1904 DUP6 PUSH2 0x17C9 JUMP JUMPDEST DUP4 ADD DUP3 PUSH2 0x18AC JUMP JUMPDEST POP POP JUMPDEST POP POP POP JUMP JUMPDEST PUSH0 DUP3 DUP3 SHR SWAP1 POP SWAP3 SWAP2 POP POP JUMP JUMPDEST PUSH0 PUSH2 0x192F PUSH0 NOT DUP5 PUSH1 0x8 MUL PUSH2 0x1914 JUMP JUMPDEST NOT DUP1 DUP4 AND SWAP2 POP POP SWAP3 SWAP2 POP POP JUMP JUMPDEST PUSH0 PUSH2 0x1947 DUP4 DUP4 PUSH2 0x1920 JUMP JUMPDEST SWAP2 POP DUP3 PUSH1 0x2 MUL DUP3 OR SWAP1 POP SWAP3 SWAP2 POP POP JUMP JUMPDEST PUSH2 0x1960 DUP3 PUSH2 0x1094 JUMP JUMPDEST PUSH8 0xFFFFFFFFFFFFFFFF DUP2 GT ISZERO PUSH2 0x1979 JUMPI PUSH2 0x1978 PUSH2 0x12DB JUMP JUMPDEST JUMPDEST PUSH2 0x1983 DUP3 SLOAD PUSH2 0x166D JUMP JUMPDEST PUSH2 0x198E DUP3 DUP3 DUP6 PUSH2 0x18CE JUMP JUMPDEST PUSH0 PUSH1 0x20 SWAP1 POP PUSH1 0x1F DUP4 GT PUSH1 0x1 DUP2 EQ PUSH2 0x19BF JUMPI PUSH0 DUP5 ISZERO PUSH2 0x19AD JUMPI DUP3 DUP8 ADD MLOAD SWAP1 POP JUMPDEST PUSH2 0x19B7 DUP6 DUP3 PUSH2 0x193C JUMP JUMPDEST DUP7 SSTORE POP PUSH2 0x1A1E JUMP JUMPDEST PUSH1 0x1F NOT DUP5 AND PUSH2 0x19CD DUP7 PUSH2 0x17B7 JUMP JUMPDEST PUSH0 JUMPDEST DUP3 DUP2 LT ISZERO PUSH2 0x19F4 JUMPI DUP5 DUP10 ADD MLOAD DUP3 SSTORE PUSH1 0x1 DUP3 ADD SWAP2 POP PUSH1 0x20 DUP6 ADD SWAP5 POP PUSH1 0x20 DUP2 ADD SWAP1 POP PUSH2 0x19CF JUMP JUMPDEST DUP7 DUP4 LT ISZERO PUSH2 0x1A11 JUMPI DUP5 DUP10 ADD MLOAD PUSH2 0x1A0D PUSH1 0x1F DUP10 AND DUP3 PUSH2 0x1920 JUMP JUMPDEST DUP4 SSTORE POP JUMPDEST PUSH1 0x1 PUSH1 0x2 DUP9 MUL ADD DUP9 SSTORE POP POP POP JUMPDEST POP POP POP POP POP POP JUMP JUMPDEST PUSH0 PUSH2 0x1A30 DUP3 PUSH2 0x1094 JUMP JUMPDEST PUSH2 0x1A3A DUP2 DUP6 PUSH2 0x15C8 JUMP JUMPDEST SWAP4 POP PUSH2 0x1A4A DUP2 DUP6 PUSH1 0x20 DUP7 ADD PUSH2 0x10AE JUMP JUMPDEST PUSH2 0x1A53 DUP2 PUSH2 0x10BC JUMP JUMPDEST DUP5 ADD SWAP2 POP POP SWAP3 SWAP2 POP POP JUMP JUMPDEST PUSH0 PUSH1 0x20 DUP3 ADD SWAP1 POP DUP2 DUP2 SUB PUSH0 DUP4 ADD MSTORE PUSH2 0x1A76 DUP2 DUP5 PUSH2 0x1A26 JUMP JUMPDEST SWAP1 POP SWAP3 SWAP2 POP POP JUMP JUMPDEST PUSH0 DUP2 SLOAD PUSH2 0x1A8A DUP2 PUSH2 0x166D JUMP JUMPDEST PUSH2 0x1A94 DUP2 DUP7 PUSH2 0x15C8 JUMP JUMPDEST SWAP5 POP PUSH1 0x1 DUP3 AND PUSH0 DUP2 EQ PUSH2 0x1AAE JUMPI PUSH1 0x1 DUP2 EQ PUSH2 0x1AC4 JUMPI PUSH2 0x1AF6 JUMP JUMPDEST PUSH1 0xFF NOT DUP4 AND DUP7 MSTORE DUP2 ISZERO ISZERO PUSH1 0x20 MUL DUP7 ADD SWAP4 POP PUSH2 0x1AF6 JUMP JUMPDEST PUSH2 0x1ACD DUP6 PUSH2 0x17B7 JUMP JUMPDEST PUSH0 JUMPDEST DUP4 DUP2 LT ISZERO PUSH2 0x1AEE JUMPI DUP2 SLOAD DUP2 DUP10 ADD MSTORE PUSH1 0x1 DUP3 ADD SWAP2 POP PUSH1 0x20 DUP2 ADD SWAP1 POP PUSH2 0x1ACF JUMP JUMPDEST DUP1 DUP9 ADD SWAP6 POP POP POP JUMPDEST POP POP POP SWAP3 SWAP2 POP POP JUMP JUMPDEST PUSH0 PUSH1 0x20 DUP3 ADD SWAP1 POP DUP2 DUP2 SUB PUSH0 DUP4 ADD MSTORE PUSH2 0x1B17 DUP2 DUP5 PUSH2 0x1A7E JUMP JUMPDEST SWAP1 POP SWAP3 SWAP2 POP POP JUMP JUMPDEST PUSH32 0x496E73756666696369656E74204C5620706F696E74732E000000000000000000 PUSH0 DUP3 ADD MSTORE POP JUMP JUMPDEST PUSH0 PUSH2 0x1B53 PUSH1 0x17 DUP4 PUSH2 0x15C8 JUMP JUMPDEST SWAP2 POP PUSH2 0x1B5E DUP3 PUSH2 0x1B1F JUMP JUMPDEST PUSH1 0x20 DUP3 ADD SWAP1 POP SWAP2 SWAP1 POP JUMP JUMPDEST PUSH0 PUSH1 0x20 DUP3 ADD SWAP1 POP DUP2 DUP2 SUB PUSH0 DUP4 ADD MSTORE PUSH2 0x1B80 DUP2 PUSH2 0x1B47 JUMP JUMPDEST SWAP1 POP SWAP2 SWAP1 POP JUMP JUMPDEST PUSH32 0x496E73756666696369656E7420474720706F696E74732E000000000000000000 PUSH0 DUP3 ADD MSTORE POP JUMP JUMPDEST PUSH0 PUSH2 0x1BBB PUSH1 0x17 DUP4 PUSH2 0x15C8 JUMP JUMPDEST SWAP2 POP PUSH2 0x1BC6 DUP3 PUSH2 0x1B87 JUMP JUMPDEST PUSH1 0x20 DUP3 ADD SWAP1 POP SWAP2 SWAP1 POP JUMP JUMPDEST PUSH0 PUSH1 0x20 DUP3 ADD SWAP1 POP DUP2 DUP2 SUB PUSH0 DUP4 ADD MSTORE PUSH2 0x1BE8 DUP2 PUSH2 0x1BAF JUMP JUMPDEST SWAP1 POP SWAP2 SWAP1 POP JUMP JUMPDEST PUSH32 0x4E487B7100000000000000000000000000000000000000000000000000000000 PUSH0 MSTORE PUSH1 0x11 PUSH1 0x4 MSTORE PUSH1 0x24 PUSH0 REVERT JUMPDEST PUSH0 PUSH2 0x1C26 DUP3 PUSH2 0x1104 JUMP JUMPDEST SWAP2 POP PUSH2 0x1C31 DUP4 PUSH2 0x1104 JUMP JUMPDEST SWAP3 POP DUP3 DUP3 SUB SWAP1 POP DUP2 DUP2 GT ISZERO PUSH2 0x1C49 JUMPI PUSH2 0x1C48 PUSH2 0x1BEF JUMP JUMPDEST JUMPDEST SWAP3 SWAP2 POP POP JUMP JUMPDEST PUSH2 0x1C58 DUP2 PUSH2 0x1104 JUMP JUMPDEST DUP3 MSTORE POP POP JUMP JUMPDEST PUSH0 PUSH1 0x40 DUP3 ADD SWAP1 POP PUSH2 0x1C71 PUSH0 DUP4 ADD DUP6 PUSH2 0x1C4F JUMP JUMPDEST PUSH2 0x1C7E PUSH1 0x20 DUP4 ADD DUP5 PUSH2 0x1C4F JUMP JUMPDEST SWAP4 SWAP3 POP POP POP JUMP JUMPDEST PUSH0 PUSH2 0x1C8F DUP3 PUSH2 0x1104 JUMP JUMPDEST SWAP2 POP PUSH2 0x1C9A DUP4 PUSH2 0x1104 JUMP JUMPDEST SWAP3 POP DUP3 DUP3 ADD SWAP1 POP DUP1 DUP3 GT ISZERO PUSH2 0x1CB2 JUMPI PUSH2 0x1CB1 PUSH2 0x1BEF JUMP JUMPDEST JUMPDEST SWAP3 SWAP2 POP POP JUMP JUMPDEST PUSH0 PUSH2 0x1CC2 DUP3 PUSH2 0x1104 JUMP JUMPDEST SWAP2 POP PUSH32 0xFFFFFFFFFFFFFFFFFFFFFFFFFFFFFFFFFFFFFFFFFFFFFFFFFFFFFFFFFFFFFFFF DUP3 SUB PUSH2 0x1CF4 JUMPI PUSH2 0x1CF3 PUSH2 0x1BEF JUMP JUMPDEST JUMPDEST PUSH1 0x1 DUP3 ADD SWAP1 POP SWAP2 SWAP1 POP JUMP JUMPDEST PUSH32 0x4E487B7100000000000000000000000000000000000000000000000000000000 PUSH0 MSTORE PUSH1 0x12 PUSH1 0x4 MSTORE PUSH1 0x24 PUSH0 REVERT JUMPDEST PUSH0 PUSH2 0x1D36 DUP3 PUSH2 0x1104 JUMP JUMPDEST SWAP2 POP PUSH2 0x1D41 DUP4 PUSH2 0x1104 JUMP JUMPDEST SWAP3 POP DUP3 PUSH2 0x1D51 JUMPI PUSH2 0x1D50 PUSH2 0x1CFF JUMP JUMPDEST JUMPDEST DUP3 DUP3 DIV SWAP1 POP SWAP3 SWAP2 POP POP JUMP JUMPDEST PUSH0 PUSH2 0x1D66 DUP3 PUSH2 0x1104 JUMP JUMPDEST SWAP2 POP PUSH2 0x1D71 DUP4 PUSH2 0x1104 JUMP JUMPDEST SWAP3 POP DUP3 PUSH2 0x1D81 JUMPI PUSH2 0x1D80 PUSH2 0x1CFF JUMP JUMPDEST JUMPDEST DUP3 DUP3 MOD SWAP1 POP SWAP3 SWAP2 POP POP JUMP JUMPDEST PUSH32 0x4E487B7100000000000000000000000000000000000000000000000000000000 PUSH0 MSTORE PUSH1 0x32 PUSH1 0x4 MSTORE PUSH1 0x24 PUSH0 REVERT INVALID LOG2 PUSH5 0x6970667358 0x22 SLT KECCAK256 0xC4 0xCD EXTCODECOPY 0xB6 MUL 0xD7 PUSH1 0x93 PUSH18 0xE8AA5E9522762A6AD5909C209D38C912383E EXTCODECOPY PUSH32 0xB3C6EA64736F6C634300081C0033000000000000000000000000000000000000 "
				},
				"gasEstimates": {
					"creation": {
						"codeDepositCost": "1532600",
						"executionCost": "1601",
						"totalCost": "1534201"
					},
					"external": {
						"addPoints(uint256,uint256)": "infinite",
						"createUserProfile(string,string,string,string,string,string,string)": "infinite",
						"getUserProfile()": "infinite",
						"removePoints(uint256,uint256)": "infinite",
						"updateUserProfile(string,string,string,string,string,string,string)": "infinite"
					},
					"internal": {
						"uint2str(uint256)": "infinite"
					}
				},
				"methodIdentifiers": {
					"addPoints(uint256,uint256)": "fe4651a0",
					"createUserProfile(string,string,string,string,string,string,string)": "70e997e2",
					"getUserProfile()": "6f61c744",
					"removePoints(uint256,uint256)": "e0794800",
					"updateUserProfile(string,string,string,string,string,string,string)": "de095560"
				}
			},
			"storageLayout": {
				"storage": [
					{
						"astId": 33,
						"contract": "Gamegrid.sol:GameGrid",
						"label": "userProfiles",
						"offset": 0,
						"slot": "0",
						"type": "t_mapping(t_address,t_struct(UserProfile)28_storage)"
					},
					{
						"astId": 37,
						"contract": "Gamegrid.sol:GameGrid",
						"label": "isRegistered",
						"offset": 0,
						"slot": "1",
						"type": "t_mapping(t_address,t_bool)"
					}
				],
				"types": {
					"t_address": {
						"encoding": "inplace",
						"label": "address",
						"numberOfBytes": "20"
					},
					"t_bool": {
						"encoding": "inplace",
						"label": "bool",
						"numberOfBytes": "1"
					},
					"t_mapping(t_address,t_bool)": {
						"encoding": "mapping",
						"key": "t_address",
						"label": "mapping(address => bool)",
						"numberOfBytes": "32",
						"value": "t_bool"
					},
					"t_mapping(t_address,t_struct(UserProfile)28_storage)": {
						"encoding": "mapping",
						"key": "t_address",
						"label": "mapping(address => struct GameGrid.UserProfile)",
						"numberOfBytes": "32",
						"value": "t_struct(UserProfile)28_storage"
					},
					"t_string_storage": {
						"encoding": "bytes",
						"label": "string",
						"numberOfBytes": "32"
					},
					"t_struct(UserProfile)28_storage": {
						"encoding": "inplace",
						"label": "struct GameGrid.UserProfile",
						"members": [
							{
								"astId": 3,
								"contract": "Gamegrid.sol:GameGrid",
								"label": "userId",
								"offset": 0,
								"slot": "0",
								"type": "t_string_storage"
							},
							{
								"astId": 5,
								"contract": "Gamegrid.sol:GameGrid",
								"label": "username",
								"offset": 0,
								"slot": "1",
								"type": "t_string_storage"
							},
							{
								"astId": 7,
								"contract": "Gamegrid.sol:GameGrid",
								"label": "email",
								"offset": 0,
								"slot": "2",
								"type": "t_string_storage"
							},
							{
								"astId": 9,
								"contract": "Gamegrid.sol:GameGrid",
								"label": "lastLoggedIn",
								"offset": 0,
								"slot": "3",
								"type": "t_uint256"
							},
							{
								"astId": 11,
								"contract": "Gamegrid.sol:GameGrid",
								"label": "joinedDate",
								"offset": 0,
								"slot": "4",
								"type": "t_uint256"
							},
							{
								"astId": 13,
								"contract": "Gamegrid.sol:GameGrid",
								"label": "lvPoints",
								"offset": 0,
								"slot": "5",
								"type": "t_uint256"
							},
							{
								"astId": 15,
								"contract": "Gamegrid.sol:GameGrid",
								"label": "ggPoints",
								"offset": 0,
								"slot": "6",
								"type": "t_uint256"
							},
							{
								"astId": 17,
								"contract": "Gamegrid.sol:GameGrid",
								"label": "class",
								"offset": 0,
								"slot": "7",
								"type": "t_string_storage"
							},
							{
								"astId": 19,
								"contract": "Gamegrid.sol:GameGrid",
								"label": "race",
								"offset": 0,
								"slot": "8",
								"type": "t_string_storage"
							},
							{
								"astId": 21,
								"contract": "Gamegrid.sol:GameGrid",
								"label": "gender",
								"offset": 0,
								"slot": "9",
								"type": "t_string_storage"
							},
							{
								"astId": 23,
								"contract": "Gamegrid.sol:GameGrid",
								"label": "background",
								"offset": 0,
								"slot": "10",
								"type": "t_string_storage"
							},
							{
								"astId": 25,
								"contract": "Gamegrid.sol:GameGrid",
								"label": "nftImage",
								"offset": 0,
								"slot": "11",
								"type": "t_string_storage"
							},
							{
								"astId": 27,
								"contract": "Gamegrid.sol:GameGrid",
								"label": "walletAddress",
								"offset": 0,
								"slot": "12",
								"type": "t_address"
							}
						],
						"numberOfBytes": "416"
					},
					"t_uint256": {
						"encoding": "inplace",
						"label": "uint256",
						"numberOfBytes": "32"
					}
				}
			},
			"userdoc": {
				"kind": "user",
				"methods": {},
				"version": 1
			}
		}
	}
}